{
  "contractName": "BouncerProxy",
  "abi": [
    {
      "inputs": [],
      "stateMutability": "nonpayable",
      "type": "constructor"
    },
    {
      "anonymous": false,
      "inputs": [
        {
          "indexed": false,
          "internalType": "bytes",
          "name": "sig",
          "type": "bytes"
        },
        {
          "indexed": false,
          "internalType": "address",
          "name": "signer",
          "type": "address"
        },
        {
          "indexed": false,
          "internalType": "address",
          "name": "destination",
          "type": "address"
        },
        {
          "indexed": false,
          "internalType": "uint256",
          "name": "value",
          "type": "uint256"
        },
        {
          "indexed": false,
          "internalType": "bytes",
          "name": "data",
          "type": "bytes"
        },
        {
          "indexed": false,
          "internalType": "bytes32",
          "name": "_hash",
          "type": "bytes32"
        }
      ],
      "name": "Forwarded",
      "type": "event"
    },
    {
      "anonymous": false,
      "inputs": [
        {
          "indexed": true,
          "internalType": "address",
          "name": "sender",
          "type": "address"
        },
        {
          "indexed": false,
          "internalType": "uint256",
          "name": "value",
          "type": "uint256"
        }
      ],
      "name": "Received",
      "type": "event"
    },
    {
      "anonymous": false,
      "inputs": [
        {
          "indexed": false,
          "internalType": "address",
          "name": "_account",
          "type": "address"
        },
        {
          "indexed": false,
          "internalType": "bool",
          "name": "_value",
          "type": "bool"
        }
      ],
      "name": "UpdateWhitelist",
      "type": "event"
    },
    {
      "stateMutability": "payable",
      "type": "fallback"
    },
    {
      "inputs": [
        {
          "internalType": "address",
          "name": "",
          "type": "address"
        }
      ],
      "name": "nonce",
      "outputs": [
        {
          "internalType": "uint256",
          "name": "",
          "type": "uint256"
        }
      ],
      "stateMutability": "view",
      "type": "function"
    },
    {
      "inputs": [
        {
          "internalType": "address",
          "name": "",
          "type": "address"
        }
      ],
      "name": "whitelist",
      "outputs": [
        {
          "internalType": "bool",
          "name": "",
          "type": "bool"
        }
      ],
      "stateMutability": "view",
      "type": "function"
    },
    {
      "stateMutability": "payable",
      "type": "receive"
    },
    {
      "inputs": [
        {
          "internalType": "address",
          "name": "_account",
          "type": "address"
        },
        {
          "internalType": "bool",
          "name": "_value",
          "type": "bool"
        }
      ],
      "name": "updateWhitelist",
      "outputs": [
        {
          "internalType": "bool",
          "name": "",
          "type": "bool"
        }
      ],
      "stateMutability": "nonpayable",
      "type": "function"
    },
    {
      "inputs": [
        {
          "internalType": "address",
          "name": "signer",
          "type": "address"
        },
        {
          "internalType": "address",
          "name": "destination",
          "type": "address"
        },
        {
          "internalType": "uint256",
          "name": "value",
          "type": "uint256"
        },
        {
          "internalType": "bytes",
          "name": "data",
          "type": "bytes"
        }
      ],
      "name": "getHash",
      "outputs": [
        {
          "internalType": "bytes32",
          "name": "",
          "type": "bytes32"
        }
      ],
      "stateMutability": "view",
      "type": "function"
    },
    {
      "inputs": [
        {
          "internalType": "bytes",
          "name": "sig",
          "type": "bytes"
        },
        {
          "internalType": "address",
          "name": "signer",
          "type": "address"
        },
        {
          "internalType": "address",
          "name": "destination",
          "type": "address"
        },
        {
          "internalType": "uint256",
          "name": "value",
          "type": "uint256"
        },
        {
          "internalType": "bytes",
          "name": "data",
          "type": "bytes"
        }
      ],
      "name": "forward",
      "outputs": [],
      "stateMutability": "nonpayable",
      "type": "function"
    }
  ],
  "bytecode": "0x608060405234801561001057600080fd5b5060018060003373ffffffffffffffffffffffffffffffffffffffff1673ffffffffffffffffffffffffffffffffffffffff16815260200190815260200160002060006101000a81548160ff021916908315150217905550610cac806100776000396000f3fe60806040526004361061004e5760003560e01c80630d392cd9146100f357806370ae92d21461016857806376e4b67a146101cd5780637f9ec70b146103765780639b19251a1461049c576100a3565b366100a3573373ffffffffffffffffffffffffffffffffffffffff167f88a5966d370b9919b20f3e2c13ff65706f196a4e32cc2c12bf57088f88525874346040518082815260200191505060405180910390a2005b3373ffffffffffffffffffffffffffffffffffffffff167f88a5966d370b9919b20f3e2c13ff65706f196a4e32cc2c12bf57088f88525874346040518082815260200191505060405180910390a2005b3480156100ff57600080fd5b5061014e6004803603604081101561011657600080fd5b81019080803573ffffffffffffffffffffffffffffffffffffffff169060200190929190803515159060200190929190505050610505565b604051808215151515815260200191505060405180910390f35b34801561017457600080fd5b506101b76004803603602081101561018b57600080fd5b81019080803573ffffffffffffffffffffffffffffffffffffffff169060200190929190505050610679565b6040518082815260200191505060405180910390f35b3480156101d957600080fd5b50610374600480360360a08110156101f057600080fd5b810190808035906020019064010000000081111561020d57600080fd5b82018360208201111561021f57600080fd5b8035906020019184600183028401116401000000008311171561024157600080fd5b91908080601f016020809104026020016040519081016040528093929190818152602001838380828437600081840152601f19601f820116905080830192505050505050509192919290803573ffffffffffffffffffffffffffffffffffffffff169060200190929190803573ffffffffffffffffffffffffffffffffffffffff16906020019092919080359060200190929190803590602001906401000000008111156102ee57600080fd5b82018360208201111561030057600080fd5b8035906020019184600183028401116401000000008311171561032257600080fd5b91908080601f016020809104026020016040519081016040528093929190818152602001838380828437600081840152601f19601f820116905080830192505050505050509192919290505050610691565b005b34801561038257600080fd5b506104866004803603608081101561039957600080fd5b81019080803573ffffffffffffffffffffffffffffffffffffffff169060200190929190803573ffffffffffffffffffffffffffffffffffffffff169060200190929190803590602001909291908035906020019064010000000081111561040057600080fd5b82018360208201111561041257600080fd5b8035906020019184600183028401116401000000008311171561043457600080fd5b91908080601f016020809104026020016040519081016040528093929190818152602001838380828437600081840152601f19601f8201169050808301925050505050505091929192905050506108ec565b6040518082815260200191505060405180910390f35b3480156104a857600080fd5b506104eb600480360360208110156104bf57600080fd5b81019080803573ffffffffffffffffffffffffffffffffffffffff169060200190929190505050610a5d565b604051808215151515815260200191505060405180910390f35b6000600160003373ffffffffffffffffffffffffffffffffffffffff1673ffffffffffffffffffffffffffffffffffffffff16815260200190815260200160002060009054906101000a900460ff166105a9576040517f08c379a0000000000000000000000000000000000000000000000000000000008152600401808060200182810382526035815260200180610c426035913960400191505060405180910390fd5b81600160008573ffffffffffffffffffffffffffffffffffffffff1673ffffffffffffffffffffffffffffffffffffffff16815260200190815260200160002060006101000a81548160ff0219169083151502179055507f08b2c0469ecd1d7a21d7e1492f0fc75fc7e8e0fa4fdf4275949c90875f5ebdf58383604051808373ffffffffffffffffffffffffffffffffffffffff1673ffffffffffffffffffffffffffffffffffffffff168152602001821515151581526020019250505060405180910390a16001905092915050565b60006020528060005260406000206000915090505481565b600061069f858585856108ec565b90506000808673ffffffffffffffffffffffffffffffffffffffff1673ffffffffffffffffffffffffffffffffffffffff168152602001908152602001600020600081548092919060010191905055506106f98187610a7d565b61074e576040517f08c379a000000000000000000000000000000000000000000000000000000000815260040180806020018281038252602f815260200180610c13602f913960400191505060405180910390fd5b61075a5a858585610bf9565b61076357600080fd5b7fa44809876be7b0e3c1599dc7b3a9ef62dd9c43c0a951789d181c29e34a3575ce86868686868660405180806020018773ffffffffffffffffffffffffffffffffffffffff1673ffffffffffffffffffffffffffffffffffffffff1681526020018673ffffffffffffffffffffffffffffffffffffffff1673ffffffffffffffffffffffffffffffffffffffff16815260200185815260200180602001848152602001838103835289818151815260200191508051906020019080838360005b8381101561083e578082015181840152602081019050610823565b50505050905090810190601f16801561086b5780820380516001836020036101000a031916815260200191505b50838103825285818151815260200191508051906020019080838360005b838110156108a4578082015181840152602081019050610889565b50505050905090810190601f1680156108d15780820380516001836020036101000a031916815260200191505b509850505050505050505060405180910390a1505050505050565b600030858585856000808b73ffffffffffffffffffffffffffffffffffffffff1673ffffffffffffffffffffffffffffffffffffffff16815260200190815260200160002054604051602001808773ffffffffffffffffffffffffffffffffffffffff1673ffffffffffffffffffffffffffffffffffffffff1660601b81526014018673ffffffffffffffffffffffffffffffffffffffff1673ffffffffffffffffffffffffffffffffffffffff1660601b81526014018573ffffffffffffffffffffffffffffffffffffffff1673ffffffffffffffffffffffffffffffffffffffff1660601b815260140184815260200183805190602001908083835b60208310610a0d57805182526020820191506020810190506020830392506109ea565b6001836020036101000a0380198251168184511680821785525050505050509050018281526020019650505050505050604051602081830303815290604052805190602001209050949350505050565b60016020528060005260406000206000915054906101000a900460ff1681565b6000806000806041855114610a985760009350505050610bf3565b6020850151925060408501519150606085015160001a9050601b8160ff161015610ac357601b810190505b601b8160ff1614158015610adb5750601c8160ff1614155b15610aec5760009350505050610bf3565b6001600060018860405160200180807f19457468657265756d205369676e6564204d6573736167653a0a333200000000815250601c018281526020019150506040516020818303038152906040528051906020012084878760405160008152602001604052604051808581526020018460ff1660ff1681526020018381526020018281526020019450505050506020604051602081039080840390855afa158015610b9b573d6000803e3d6000fd5b5050506020604051035173ffffffffffffffffffffffffffffffffffffffff1673ffffffffffffffffffffffffffffffffffffffff16815260200190815260200160002060009054906101000a900460ff1693505050505b92915050565b600080600083516020850186888af1905094935050505056fe426f756e63657250726f78793a3a666f7277617264205369676e6572206973206e6f742077686974656c6973746564426f756e63657250726f78793a3a75706461746557686974656c697374204163636f756e74204e6f742057686974656c6973746564a2646970667358221220cc459541673190962eb2da05a3d4a61df5bc7258376d78b4473c6f2a1ab96ddd64736f6c63430006020033",
  "source": "pragma solidity ^0.6.0;\n\nimport \"@openzeppelin/contracts/token/ERC20/IERC20.sol\";\n\n\n/*\n  Bouncer identity proxy that executes meta transactions for etherless accounts.\n  Purpose:\n  I wanted a way for etherless accounts to transact with the blockchain through an identity proxy without paying gas.\n  I'm sure there are many examples of something like this already deployed that work a lot better, this is just me learning.\n    (I would love feedback: https://twitter.com/austingriffith)\n  1) An etherless account crafts a meta transaction and signs it\n  2) A (properly incentivized) relay account submits the transaction to the BouncerProxy and pays the gas\n  3) If the meta transaction is valid AND the etherless account is a valid 'Bouncer', the transaction is executed\n      (and the sender is paid in arbitrary tokens from the signer)\n  Inspired by:\n    @avsa - https://www.youtube.com/watch?v=qF2lhJzngto found this later: https://github.com/status-im/contracts/blob/73-economic-abstraction/contracts/identity/IdentityGasRelay.sol\n    @mattgcondon - https://twitter.com/mattgcondon/status/1022287545139449856 && https://twitter.com/mattgcondon/status/1021984009428107264\n    @owocki - https://twitter.com/owocki/status/1021859962882908160\n    @danfinlay - https://twitter.com/danfinlay/status/1022271384938983424\n    @PhABCD - https://twitter.com/PhABCD/status/1021974772786319361\n    gnosis-safe\n    uport-identity\n*/\n\n\n//use case 1:\n//you deploy the bouncer proxy and use it as a standard identity for your own etherless accounts\n//  (multiple devices you don't want to store eth on or move private keys to will need to be added as Bouncers)\n//you run your own relayer and the rewardToken is 0\n\n//use case 2:\n//you deploy the bouncer proxy and use it as a standard identity for your own etherless accounts\n//  (multiple devices you don't want to store eth on or move private keys to will need to be added as Bouncers)\n//  a community if relayers are incentivized by the rewardToken to pay the gas to run your transactions for you\n//SEE: universal logins via @avsa\n\n//use case 3:\n//you deploy the bouncer proxy and use it to let third parties submit transactions as a standard identity\n//  (multiple developer accounts will need to be added as Bouncers to 'whitelist' them to make meta transactions)\n//you run your own relayer and pay for all of their transactions, revoking any bad actors if needed\n//SEE: GitCoin (via @owocki) wants to pay for some of the initial transactions of their Developers to lower the barrier to entry\n\n//use case 4:\n//you deploy the bouncer proxy and use it to let third parties submit transactions as a standard identity\n//  (multiple developer accounts will need to be added as Bouncers to 'whitelist' them to make meta transactions)\n//you run your own relayer and pay for all of their transactions, revoking any bad actors if needed\n\ncontract BouncerProxy {\n\n    //to avoid replay\n    mapping(address => uint) public nonce;\n\n    // allow for third party metatx account to make transactions through this\n    // contract like an identity but make sure the owner has whitelisted the tx\n    mapping(address => bool) public whitelist;\n\n    event UpdateWhitelist(address _account, bool _value);\n    // copied from https://github.com/uport-project/uport-identity/blob/develop/contracts/Proxy.sol\n    event Received (address indexed sender, uint value);\n    // when some frontends see that a tx is made from a bouncerproxy, they may want to parse through these events to find out who the signer was etc\n    event Forwarded (bytes sig, address signer, address destination, uint value, bytes data, bytes32 _hash);\n\n    //whitelist the deployer so they can whitelist others\n    constructor() \n    public \n    {\n        whitelist[msg.sender] = true;\n    }\n\n    fallback () external payable \n    {\n        emit Received(msg.sender, msg.value); \n    }\n\n    receive () external payable \n    {\n        emit Received(msg.sender, msg.value); \n    }\n\n    function updateWhitelist(address _account, bool _value) \n    public \n    returns(bool) \n    {\n        require(whitelist[msg.sender],\"BouncerProxy::updateWhitelist Account Not Whitelisted\");\n        whitelist[_account] = _value;\n        UpdateWhitelist(_account,_value);\n        return true;\n    }\n\n\n    function getHash(address signer, address destination, uint value, bytes memory data) \n    public \n    view \n    returns(bytes32)\n    {\n        return keccak256(abi.encodePacked(address(this), signer, destination, value, data, nonce[signer]));\n    }\n\n\n    // original forward function copied from https://github.com/uport-project/uport-identity/blob/develop/contracts/Proxy.sol\n    function forward(bytes memory sig, address signer, address destination, uint value, bytes memory data) \n    public \n    {\n      //the hash contains all of the information about the meta transaction to be called\n      bytes32 _hash = getHash(signer, destination, value, data);\n      //increment the hash so this tx can't run again\n      nonce[signer]++;\n      //this makes sure signer signed correctly AND signer is a valid bouncer\n      require(signerIsWhitelisted(_hash,sig),\"BouncerProxy::forward Signer is not whitelisted\");\n\n      //execute the transaction with all the given parameters\n      require(executeCall(gasleft(),destination, value, data));\n      emit Forwarded(sig, signer, destination, value, data, _hash);\n    }\n\n  // copied from https://github.com/uport-project/uport-identity/blob/develop/contracts/Proxy.sol\n  // which was copied from GnosisSafe\n  // https://github.com/gnosis/gnosis-safe-contracts/blob/master/contracts/GnosisSafe.sol\n    function executeCall(uint gasLimit, address to, uint256 value, bytes memory data) \n    internal \n    returns (bool success) \n    {\n    assembly {\n               success := call(gasLimit, to, value, add(data, 0x20), mload(data), 0, 0)\n            }\n    }\n\n  //borrowed from OpenZeppelin's ESDA stuff:\n  //https://github.com/OpenZeppelin/openzeppelin-solidity/blob/master/contracts/cryptography/ECDSA.sol\n    function signerIsWhitelisted(bytes32 _hash, bytes memory _signature) \n    internal \n    view \n    returns (bool)\n    {\n        bytes32 r;\n        bytes32 s;\n        uint8 v;\n        // Check the signature length\n        if (_signature.length != 65) \n        {\n          return false;\n        }\n        // Divide the signature in r, s and v variables\n        // ecrecover takes the signature parameters, and the only way to get them\n        // currently is to use assembly.\n        // solium-disable-next-line security/no-inline-assembly\n        assembly {\n          r := mload(add(_signature, 32))\n          s := mload(add(_signature, 64))\n          v := byte(0, mload(add(_signature, 96)))\n        }\n        // Version of signature should be 27 or 28, but 0 and 1 are also possible versions\n        if (v < 27) \n        {\n          v += 27;\n        }\n        // If the version is correct return the signer address\n        if (v != 27 && v != 28) \n        {\n          return false;\n        } else {\n          // solium-disable-next-line arg-overflow\n          return whitelist[ecrecover(keccak256(\n            abi.encodePacked(\"\\x19Ethereum Signed Message:\\n32\", _hash)\n          ), v, r, s)];\n        }\n    }\n}\n",
  "sourcePath": "/Users/henrilieutaud/Documents/Mes documents/ESILV/Workshop/signatures-101/contracts/BouncerProxy.sol",
  "compiler": {
    "name": "solc",
    "version": "0.6.2+commit.bacdbe57.Emscripten.clang"
  },
  "schemaVersion": "3.3.4",
  "updatedAt": "2021-12-10T18:49:27.903Z",
  "devdoc": {
    "methods": {}
  },
  "userdoc": {
    "methods": {}
  }
}