{
  "contractName": "ERC721TD",
  "abi": [
    {
      "inputs": [
        {
          "internalType": "string",
          "name": "name_",
          "type": "string"
        },
        {
          "internalType": "string",
          "name": "symbol_",
          "type": "string"
        }
      ],
      "stateMutability": "nonpayable",
      "type": "constructor"
    },
    {
      "anonymous": false,
      "inputs": [
        {
          "indexed": true,
          "internalType": "address",
          "name": "owner",
          "type": "address"
        },
        {
          "indexed": true,
          "internalType": "address",
          "name": "approved",
          "type": "address"
        },
        {
          "indexed": true,
          "internalType": "uint256",
          "name": "tokenId",
          "type": "uint256"
        }
      ],
      "name": "Approval",
      "type": "event"
    },
    {
      "anonymous": false,
      "inputs": [
        {
          "indexed": true,
          "internalType": "address",
          "name": "owner",
          "type": "address"
        },
        {
          "indexed": true,
          "internalType": "address",
          "name": "operator",
          "type": "address"
        },
        {
          "indexed": false,
          "internalType": "bool",
          "name": "approved",
          "type": "bool"
        }
      ],
      "name": "ApprovalForAll",
      "type": "event"
    },
    {
      "anonymous": false,
      "inputs": [
        {
          "indexed": true,
          "internalType": "address",
          "name": "from",
          "type": "address"
        },
        {
          "indexed": true,
          "internalType": "address",
          "name": "to",
          "type": "address"
        },
        {
          "indexed": true,
          "internalType": "uint256",
          "name": "tokenId",
          "type": "uint256"
        }
      ],
      "name": "Transfer",
      "type": "event"
    },
    {
      "inputs": [
        {
          "internalType": "address",
          "name": "to",
          "type": "address"
        },
        {
          "internalType": "uint256",
          "name": "tokenId",
          "type": "uint256"
        }
      ],
      "name": "approve",
      "outputs": [],
      "stateMutability": "nonpayable",
      "type": "function"
    },
    {
      "inputs": [
        {
          "internalType": "address",
          "name": "owner",
          "type": "address"
        }
      ],
      "name": "balanceOf",
      "outputs": [
        {
          "internalType": "uint256",
          "name": "",
          "type": "uint256"
        }
      ],
      "stateMutability": "view",
      "type": "function"
    },
    {
      "inputs": [],
      "name": "baseURI",
      "outputs": [
        {
          "internalType": "string",
          "name": "",
          "type": "string"
        }
      ],
      "stateMutability": "view",
      "type": "function"
    },
    {
      "inputs": [
        {
          "internalType": "uint256",
          "name": "tokenId",
          "type": "uint256"
        }
      ],
      "name": "getApproved",
      "outputs": [
        {
          "internalType": "address",
          "name": "",
          "type": "address"
        }
      ],
      "stateMutability": "view",
      "type": "function"
    },
    {
      "inputs": [
        {
          "internalType": "address",
          "name": "owner",
          "type": "address"
        },
        {
          "internalType": "address",
          "name": "operator",
          "type": "address"
        }
      ],
      "name": "isApprovedForAll",
      "outputs": [
        {
          "internalType": "bool",
          "name": "",
          "type": "bool"
        }
      ],
      "stateMutability": "view",
      "type": "function"
    },
    {
      "inputs": [],
      "name": "name",
      "outputs": [
        {
          "internalType": "string",
          "name": "",
          "type": "string"
        }
      ],
      "stateMutability": "view",
      "type": "function"
    },
    {
      "inputs": [],
      "name": "nextTokenId",
      "outputs": [
        {
          "internalType": "uint256",
          "name": "",
          "type": "uint256"
        }
      ],
      "stateMutability": "view",
      "type": "function"
    },
    {
      "inputs": [
        {
          "internalType": "uint256",
          "name": "tokenId",
          "type": "uint256"
        }
      ],
      "name": "ownerOf",
      "outputs": [
        {
          "internalType": "address",
          "name": "",
          "type": "address"
        }
      ],
      "stateMutability": "view",
      "type": "function"
    },
    {
      "inputs": [
        {
          "internalType": "address",
          "name": "from",
          "type": "address"
        },
        {
          "internalType": "address",
          "name": "to",
          "type": "address"
        },
        {
          "internalType": "uint256",
          "name": "tokenId",
          "type": "uint256"
        }
      ],
      "name": "safeTransferFrom",
      "outputs": [],
      "stateMutability": "nonpayable",
      "type": "function"
    },
    {
      "inputs": [
        {
          "internalType": "address",
          "name": "from",
          "type": "address"
        },
        {
          "internalType": "address",
          "name": "to",
          "type": "address"
        },
        {
          "internalType": "uint256",
          "name": "tokenId",
          "type": "uint256"
        },
        {
          "internalType": "bytes",
          "name": "_data",
          "type": "bytes"
        }
      ],
      "name": "safeTransferFrom",
      "outputs": [],
      "stateMutability": "nonpayable",
      "type": "function"
    },
    {
      "inputs": [
        {
          "internalType": "address",
          "name": "operator",
          "type": "address"
        },
        {
          "internalType": "bool",
          "name": "approved",
          "type": "bool"
        }
      ],
      "name": "setApprovalForAll",
      "outputs": [],
      "stateMutability": "nonpayable",
      "type": "function"
    },
    {
      "inputs": [
        {
          "internalType": "bytes4",
          "name": "interfaceId",
          "type": "bytes4"
        }
      ],
      "name": "supportsInterface",
      "outputs": [
        {
          "internalType": "bool",
          "name": "",
          "type": "bool"
        }
      ],
      "stateMutability": "view",
      "type": "function"
    },
    {
      "inputs": [],
      "name": "symbol",
      "outputs": [
        {
          "internalType": "string",
          "name": "",
          "type": "string"
        }
      ],
      "stateMutability": "view",
      "type": "function"
    },
    {
      "inputs": [
        {
          "internalType": "uint256",
          "name": "index",
          "type": "uint256"
        }
      ],
      "name": "tokenByIndex",
      "outputs": [
        {
          "internalType": "uint256",
          "name": "",
          "type": "uint256"
        }
      ],
      "stateMutability": "view",
      "type": "function"
    },
    {
      "inputs": [
        {
          "internalType": "address",
          "name": "owner",
          "type": "address"
        },
        {
          "internalType": "uint256",
          "name": "index",
          "type": "uint256"
        }
      ],
      "name": "tokenOfOwnerByIndex",
      "outputs": [
        {
          "internalType": "uint256",
          "name": "",
          "type": "uint256"
        }
      ],
      "stateMutability": "view",
      "type": "function"
    },
    {
      "inputs": [
        {
          "internalType": "uint256",
          "name": "tokenId",
          "type": "uint256"
        }
      ],
      "name": "tokenURI",
      "outputs": [
        {
          "internalType": "string",
          "name": "",
          "type": "string"
        }
      ],
      "stateMutability": "view",
      "type": "function"
    },
    {
      "inputs": [],
      "name": "totalSupply",
      "outputs": [
        {
          "internalType": "uint256",
          "name": "",
          "type": "uint256"
        }
      ],
      "stateMutability": "view",
      "type": "function"
    },
    {
      "inputs": [
        {
          "internalType": "address",
          "name": "from",
          "type": "address"
        },
        {
          "internalType": "address",
          "name": "to",
          "type": "address"
        },
        {
          "internalType": "uint256",
          "name": "tokenId",
          "type": "uint256"
        }
      ],
      "name": "transferFrom",
      "outputs": [],
      "stateMutability": "nonpayable",
      "type": "function"
    },
    {
      "inputs": [
        {
          "internalType": "address",
          "name": "",
          "type": "address"
        }
      ],
      "name": "whitelist",
      "outputs": [
        {
          "internalType": "bool",
          "name": "",
          "type": "bool"
        }
      ],
      "stateMutability": "view",
      "type": "function"
    },
    {
      "inputs": [
        {
          "internalType": "address",
          "name": "to",
          "type": "address"
        }
      ],
      "name": "mint",
      "outputs": [],
      "stateMutability": "nonpayable",
      "type": "function"
    },
    {
      "inputs": [
        {
          "internalType": "address",
          "name": "newMinter",
          "type": "address"
        },
        {
          "internalType": "bool",
          "name": "isMinter",
          "type": "bool"
        }
      ],
      "name": "manageMinter",
      "outputs": [],
      "stateMutability": "nonpayable",
      "type": "function"
    }
  ],
  "bytecode": "0x60806040526000600a553480156200001657600080fd5b50604051620031ff380380620031ff833981810160405260408110156200003c57600080fd5b81019080805160405193929190846401000000008211156200005d57600080fd5b838201915060208201858111156200007457600080fd5b82518660018202830111640100000000821117156200009257600080fd5b8083526020830192505050908051906020019080838360005b83811015620000c8578082015181840152602081019050620000ab565b50505050905090810190601f168015620000f65780820380516001836020036101000a031916815260200191505b50604052602001805160405193929190846401000000008211156200011a57600080fd5b838201915060208201858111156200013157600080fd5b82518660018202830111640100000000821117156200014f57600080fd5b8083526020830192505050908051906020019080838360005b838110156200018557808201518184015260208101905062000168565b50505050905090810190601f168015620001b35780820380516001836020036101000a031916815260200191505b506040525050508181620001d46301ffc9a760e01b6200026b60201b60201c565b8160069080519060200190620001ec929190620003cf565b50806007908051906020019062000205929190620003cf565b506200021e6380ac58cd60e01b6200026b60201b60201c565b62000236635b5e139f60e01b6200026b60201b60201c565b6200024e63780e9d6360e01b6200026b60201b60201c565b5050620002633360016200037460201b60201c565b50506200047e565b63ffffffff60e01b817bffffffffffffffffffffffffffffffffffffffffffffffffffffffff1916141562000308576040517f08c379a000000000000000000000000000000000000000000000000000000000815260040180806020018281038252601c8152602001807f4552433136353a20696e76616c696420696e746572666163652069640000000081525060200191505060405180910390fd5b6001600080837bffffffffffffffffffffffffffffffffffffffffffffffffffffffff19167bffffffffffffffffffffffffffffffffffffffffffffffffffffffff1916815260200190815260200160002060006101000a81548160ff02191690831515021790555050565b80600b60008473ffffffffffffffffffffffffffffffffffffffff1673ffffffffffffffffffffffffffffffffffffffff16815260200190815260200160002060006101000a81548160ff0219169083151502179055505050565b828054600181600116156101000203166002900490600052602060002090601f016020900481019282601f106200041257805160ff191683800117855562000443565b8280016001018555821562000443579182015b828111156200044257825182559160200191906001019062000425565b5b50905062000452919062000456565b5090565b6200047b91905b80821115620004775760008160009055506001016200045d565b5090565b90565b612d71806200048e6000396000f3fe608060405234801561001057600080fd5b50600436106101375760003560e01c80636a627842116100b857806395d89b411161007c57806395d89b41146106795780639b19251a146106fc578063a22cb46514610758578063b88d4fde146107a8578063c87b56dd146108ad578063e985e9c51461095457610137565b80636a627842146104ec5780636c0360eb1461053057806370a08231146105b357806375794a3c1461060b5780637e7dd60b1461062957610137565b806323b872dd116100ff57806323b872dd146102fe5780632f745c591461036c57806342842e0e146103ce5780634f6ccce71461043c5780636352211e1461047e57610137565b806301ffc9a71461013c57806306fdde03146101a1578063081812fc14610224578063095ea7b31461029257806318160ddd146102e0575b600080fd5b6101876004803603602081101561015257600080fd5b8101908080357bffffffffffffffffffffffffffffffffffffffffffffffffffffffff191690602001909291905050506109d0565b604051808215151515815260200191505060405180910390f35b6101a9610a37565b6040518080602001828103825283818151815260200191508051906020019080838360005b838110156101e95780820151818401526020810190506101ce565b50505050905090810190601f1680156102165780820380516001836020036101000a031916815260200191505b509250505060405180910390f35b6102506004803603602081101561023a57600080fd5b8101908080359060200190929190505050610ad9565b604051808273ffffffffffffffffffffffffffffffffffffffff1673ffffffffffffffffffffffffffffffffffffffff16815260200191505060405180910390f35b6102de600480360360408110156102a857600080fd5b81019080803573ffffffffffffffffffffffffffffffffffffffff16906020019092919080359060200190929190505050610b74565b005b6102e8610cb8565b6040518082815260200191505060405180910390f35b61036a6004803603606081101561031457600080fd5b81019080803573ffffffffffffffffffffffffffffffffffffffff169060200190929190803573ffffffffffffffffffffffffffffffffffffffff16906020019092919080359060200190929190505050610cc9565b005b6103b86004803603604081101561038257600080fd5b81019080803573ffffffffffffffffffffffffffffffffffffffff16906020019092919080359060200190929190505050610d3f565b6040518082815260200191505060405180910390f35b61043a600480360360608110156103e457600080fd5b81019080803573ffffffffffffffffffffffffffffffffffffffff169060200190929190803573ffffffffffffffffffffffffffffffffffffffff16906020019092919080359060200190929190505050610d9a565b005b6104686004803603602081101561045257600080fd5b8101908080359060200190929190505050610dba565b6040518082815260200191505060405180910390f35b6104aa6004803603602081101561049457600080fd5b8101908080359060200190929190505050610ddd565b604051808273ffffffffffffffffffffffffffffffffffffffff1673ffffffffffffffffffffffffffffffffffffffff16815260200191505060405180910390f35b61052e6004803603602081101561050257600080fd5b81019080803573ffffffffffffffffffffffffffffffffffffffff169060200190929190505050610e14565b005b610538610ef3565b6040518080602001828103825283818151815260200191508051906020019080838360005b8381101561057857808201518184015260208101905061055d565b50505050905090810190601f1680156105a55780820380516001836020036101000a031916815260200191505b509250505060405180910390f35b6105f5600480360360208110156105c957600080fd5b81019080803573ffffffffffffffffffffffffffffffffffffffff169060200190929190505050610f95565b6040518082815260200191505060405180910390f35b61061361106a565b6040518082815260200191505060405180910390f35b6106776004803603604081101561063f57600080fd5b81019080803573ffffffffffffffffffffffffffffffffffffffff169060200190929190803515159060200190929190505050611070565b005b61068161113d565b6040518080602001828103825283818151815260200191508051906020019080838360005b838110156106c15780820151818401526020810190506106a6565b50505050905090810190601f1680156106ee5780820380516001836020036101000a031916815260200191505b509250505060405180910390f35b61073e6004803603602081101561071257600080fd5b81019080803573ffffffffffffffffffffffffffffffffffffffff1690602001909291905050506111df565b604051808215151515815260200191505060405180910390f35b6107a66004803603604081101561076e57600080fd5b81019080803573ffffffffffffffffffffffffffffffffffffffff1690602001909291908035151590602001909291905050506111ff565b005b6108ab600480360360808110156107be57600080fd5b81019080803573ffffffffffffffffffffffffffffffffffffffff169060200190929190803573ffffffffffffffffffffffffffffffffffffffff169060200190929190803590602001909291908035906020019064010000000081111561082557600080fd5b82018360208201111561083757600080fd5b8035906020019184600183028401116401000000008311171561085957600080fd5b91908080601f016020809104026020016040519081016040528093929190818152602001838380828437600081840152601f19601f8201169050808301925050505050505091929192905050506113b7565b005b6108d9600480360360208110156108c357600080fd5b810190808035906020019092919050505061142f565b6040518080602001828103825283818151815260200191508051906020019080838360005b838110156109195780820151818401526020810190506108fe565b50505050905090810190601f1680156109465780820380516001836020036101000a031916815260200191505b509250505060405180910390f35b6109b66004803603604081101561096a57600080fd5b81019080803573ffffffffffffffffffffffffffffffffffffffff169060200190929190803573ffffffffffffffffffffffffffffffffffffffff169060200190929190505050611718565b604051808215151515815260200191505060405180910390f35b6000806000837bffffffffffffffffffffffffffffffffffffffffffffffffffffffff19167bffffffffffffffffffffffffffffffffffffffffffffffffffffffff1916815260200190815260200160002060009054906101000a900460ff169050919050565b606060068054600181600116156101000203166002900480601f016020809104026020016040519081016040528092919081815260200182805460018160011615610100020316600290048015610acf5780601f10610aa457610100808354040283529160200191610acf565b820191906000526020600020905b815481529060010190602001808311610ab257829003601f168201915b5050505050905090565b6000610ae4826117ac565b610b39576040517f08c379a000000000000000000000000000000000000000000000000000000000815260040180806020018281038252602c815260200180612c66602c913960400191505060405180910390fd5b6004600083815260200190815260200160002060009054906101000a900473ffffffffffffffffffffffffffffffffffffffff169050919050565b6000610b7f82610ddd565b90508073ffffffffffffffffffffffffffffffffffffffff168373ffffffffffffffffffffffffffffffffffffffff161415610c06576040517f08c379a0000000000000000000000000000000000000000000000000000000008152600401808060200182810382526021815260200180612cea6021913960400191505060405180910390fd5b8073ffffffffffffffffffffffffffffffffffffffff16610c256117c9565b73ffffffffffffffffffffffffffffffffffffffff161480610c545750610c5381610c4e6117c9565b611718565b5b610ca9576040517f08c379a0000000000000000000000000000000000000000000000000000000008152600401808060200182810382526038815260200180612bb96038913960400191505060405180910390fd5b610cb383836117d1565b505050565b6000610cc4600261188a565b905090565b610cda610cd46117c9565b8261189f565b610d2f576040517f08c379a0000000000000000000000000000000000000000000000000000000008152600401808060200182810382526031815260200180612d0b6031913960400191505060405180910390fd5b610d3a838383611993565b505050565b6000610d9282600160008673ffffffffffffffffffffffffffffffffffffffff1673ffffffffffffffffffffffffffffffffffffffff168152602001908152602001600020611bd690919063ffffffff16565b905092915050565b610db5838383604051806020016040528060008152506113b7565b505050565b600080610dd1836002611bf090919063ffffffff16565b50905080915050919050565b6000610e0d82604051806060016040528060298152602001612c1b602991396002611c1f9092919063ffffffff16565b9050919050565b600b60003373ffffffffffffffffffffffffffffffffffffffff1673ffffffffffffffffffffffffffffffffffffffff16815260200190815260200160002060009054906101000a900460ff16610ed3576040517f08c379a00000000000000000000000000000000000000000000000000000000081526004018080602001828103825260178152602001807f4163636f756e74204e6f742057686974656c697374656400000000000000000081525060200191505060405180910390fd5b610edf81600a54611c3e565b6001600a6000828254019250508190555050565b606060098054600181600116156101000203166002900480601f016020809104026020016040519081016040528092919081815260200182805460018160011615610100020316600290048015610f8b5780601f10610f6057610100808354040283529160200191610f8b565b820191906000526020600020905b815481529060010190602001808311610f6e57829003601f168201915b5050505050905090565b60008073ffffffffffffffffffffffffffffffffffffffff168273ffffffffffffffffffffffffffffffffffffffff16141561101c576040517f08c379a000000000000000000000000000000000000000000000000000000000815260040180806020018281038252602a815260200180612bf1602a913960400191505060405180910390fd5b611063600160008473ffffffffffffffffffffffffffffffffffffffff1673ffffffffffffffffffffffffffffffffffffffff168152602001908152602001600020611c5c565b9050919050565b600a5481565b600b60003373ffffffffffffffffffffffffffffffffffffffff1673ffffffffffffffffffffffffffffffffffffffff16815260200190815260200160002060009054906101000a900460ff1661112f576040517f08c379a00000000000000000000000000000000000000000000000000000000081526004018080602001828103825260178152602001807f4163636f756e74204e6f742057686974656c697374656400000000000000000081525060200191505060405180910390fd5b6111398282611c71565b5050565b606060078054600181600116156101000203166002900480601f0160208091040260200160405190810160405280929190818152602001828054600181600116156101000203166002900480156111d55780601f106111aa576101008083540402835291602001916111d5565b820191906000526020600020905b8154815290600101906020018083116111b857829003601f168201915b5050505050905090565b600b6020528060005260406000206000915054906101000a900460ff1681565b6112076117c9565b73ffffffffffffffffffffffffffffffffffffffff168273ffffffffffffffffffffffffffffffffffffffff1614156112a8576040517f08c379a00000000000000000000000000000000000000000000000000000000081526004018080602001828103825260198152602001807f4552433732313a20617070726f766520746f2063616c6c65720000000000000081525060200191505060405180910390fd5b80600560006112b56117c9565b73ffffffffffffffffffffffffffffffffffffffff1673ffffffffffffffffffffffffffffffffffffffff16815260200190815260200160002060008473ffffffffffffffffffffffffffffffffffffffff1673ffffffffffffffffffffffffffffffffffffffff16815260200190815260200160002060006101000a81548160ff0219169083151502179055508173ffffffffffffffffffffffffffffffffffffffff166113626117c9565b73ffffffffffffffffffffffffffffffffffffffff167f17307eab39ab6107e8899845ad3d59bd9653f200f220920489ca2b5937696c3183604051808215151515815260200191505060405180910390a35050565b6113c86113c26117c9565b8361189f565b61141d576040517f08c379a0000000000000000000000000000000000000000000000000000000008152600401808060200182810382526031815260200180612d0b6031913960400191505060405180910390fd5b61142984848484611ccc565b50505050565b606061143a826117ac565b61148f576040517f08c379a000000000000000000000000000000000000000000000000000000000815260040180806020018281038252602f815260200180612cbb602f913960400191505060405180910390fd5b6060600860008481526020019081526020016000208054600181600116156101000203166002900480601f0160208091040260200160405190810160405280929190818152602001828054600181600116156101000203166002900480156115385780601f1061150d57610100808354040283529160200191611538565b820191906000526020600020905b81548152906001019060200180831161151b57829003601f168201915b505050505090506000600980546001816001161561010002031660029004905014156115675780915050611713565b6000815111156116405760098160405160200180838054600181600116156101000203166002900480156115d25780601f106115b05761010080835404028352918201916115d2565b820191906000526020600020905b8154815290600101906020018083116115be575b505082805190602001908083835b6020831061160357805182526020820191506020810190506020830392506115e0565b6001836020036101000a03801982511681845116808217855250505050505090500192505050604051602081830303815290604052915050611713565b600961164b84611d3e565b60405160200180838054600181600116156101000203166002900480156116a95780601f106116875761010080835404028352918201916116a9565b820191906000526020600020905b815481529060010190602001808311611695575b505082805190602001908083835b602083106116da57805182526020820191506020810190506020830392506116b7565b6001836020036101000a038019825116818451168082178552505050505050905001925050506040516020818303038152906040529150505b919050565b6000600560008473ffffffffffffffffffffffffffffffffffffffff1673ffffffffffffffffffffffffffffffffffffffff16815260200190815260200160002060008373ffffffffffffffffffffffffffffffffffffffff1673ffffffffffffffffffffffffffffffffffffffff16815260200190815260200160002060009054906101000a900460ff16905092915050565b60006117c2826002611e6e90919063ffffffff16565b9050919050565b600033905090565b816004600083815260200190815260200160002060006101000a81548173ffffffffffffffffffffffffffffffffffffffff021916908373ffffffffffffffffffffffffffffffffffffffff160217905550808273ffffffffffffffffffffffffffffffffffffffff1661184483610ddd565b73ffffffffffffffffffffffffffffffffffffffff167f8c5be1e5ebec7d5bd14f71427d1e84f3dd0314c0f7b2291e5b200ac8c7c3b92560405160405180910390a45050565b600061189882600001611e88565b9050919050565b60006118aa826117ac565b6118ff576040517f08c379a000000000000000000000000000000000000000000000000000000000815260040180806020018281038252602c815260200180612b8d602c913960400191505060405180910390fd5b600061190a83610ddd565b90508073ffffffffffffffffffffffffffffffffffffffff168473ffffffffffffffffffffffffffffffffffffffff16148061197957508373ffffffffffffffffffffffffffffffffffffffff1661196184610ad9565b73ffffffffffffffffffffffffffffffffffffffff16145b8061198a57506119898185611718565b5b91505092915050565b8273ffffffffffffffffffffffffffffffffffffffff166119b382610ddd565b73ffffffffffffffffffffffffffffffffffffffff1614611a1f576040517f08c379a0000000000000000000000000000000000000000000000000000000008152600401808060200182810382526029815260200180612c926029913960400191505060405180910390fd5b600073ffffffffffffffffffffffffffffffffffffffff168273ffffffffffffffffffffffffffffffffffffffff161415611aa5576040517f08c379a0000000000000000000000000000000000000000000000000000000008152600401808060200182810382526024815260200180612b436024913960400191505060405180910390fd5b611ab0838383611e99565b611abb6000826117d1565b611b0c81600160008673ffffffffffffffffffffffffffffffffffffffff1673ffffffffffffffffffffffffffffffffffffffff168152602001908152602001600020611e9e90919063ffffffff16565b50611b5e81600160008573ffffffffffffffffffffffffffffffffffffffff1673ffffffffffffffffffffffffffffffffffffffff168152602001908152602001600020611eb890919063ffffffff16565b50611b7581836002611ed29092919063ffffffff16565b50808273ffffffffffffffffffffffffffffffffffffffff168473ffffffffffffffffffffffffffffffffffffffff167fddf252ad1be2c89b69c2b068fc378daa952ba7f163c4a11628f55a4df523b3ef60405160405180910390a4505050565b6000611be58360000183611f07565b60001c905092915050565b600080600080611c038660000186611f8a565b915091508160001c8160001c8090509350935050509250929050565b6000611c32846000018460001b84612023565b60001c90509392505050565b611c58828260405180602001604052806000815250612119565b5050565b6000611c6a8260000161218a565b9050919050565b80600b60008473ffffffffffffffffffffffffffffffffffffffff1673ffffffffffffffffffffffffffffffffffffffff16815260200190815260200160002060006101000a81548160ff0219169083151502179055505050565b611cd7848484611993565b611ce38484848461219b565b611d38576040517f08c379a0000000000000000000000000000000000000000000000000000000008152600401808060200182810382526032815260200180612b116032913960400191505060405180910390fd5b50505050565b60606000821415611d86576040518060400160405280600181526020017f30000000000000000000000000000000000000000000000000000000000000008152509050611e69565b600082905060005b60008214611db0578080600101915050600a8281611da857fe5b049150611d8e565b6060816040519080825280601f01601f191660200182016040528015611de55781602001600182028038833980820191505090505b50905060006001830390508593505b60008414611e6157600a8481611e0657fe5b0660300160f81b82828060019003935081518110611e2057fe5b60200101907effffffffffffffffffffffffffffffffffffffffffffffffffffffffffffff1916908160001a905350600a8481611e5957fe5b049350611df4565b819450505050505b919050565b6000611e80836000018360001b6123e0565b905092915050565b600081600001805490509050919050565b505050565b6000611eb0836000018360001b612403565b905092915050565b6000611eca836000018360001b6124eb565b905092915050565b6000611efe846000018460001b8473ffffffffffffffffffffffffffffffffffffffff1660001b61255b565b90509392505050565b600081836000018054905011611f68576040517f08c379a0000000000000000000000000000000000000000000000000000000008152600401808060200182810382526022815260200180612aef6022913960400191505060405180910390fd5b826000018281548110611f7757fe5b9060005260206000200154905092915050565b60008082846000018054905011611fec576040517f08c379a0000000000000000000000000000000000000000000000000000000008152600401808060200182810382526022815260200180612c446022913960400191505060405180910390fd5b6000846000018481548110611ffd57fe5b906000526020600020906002020190508060000154816001015492509250509250929050565b600080846001016000858152602001908152602001600020549050600081141583906120ea576040517f08c379a00000000000000000000000000000000000000000000000000000000081526004018080602001828103825283818151815260200191508051906020019080838360005b838110156120af578082015181840152602081019050612094565b50505050905090810190601f1680156120dc5780820380516001836020036101000a031916815260200191505b509250505060405180910390fd5b508460000160018203815481106120fd57fe5b9060005260206000209060020201600101549150509392505050565b6121238383612637565b612130600084848461219b565b612185576040517f08c379a0000000000000000000000000000000000000000000000000000000008152600401808060200182810382526032815260200180612b116032913960400191505060405180910390fd5b505050565b600081600001805490509050919050565b60006121bc8473ffffffffffffffffffffffffffffffffffffffff1661282b565b6121c957600190506123d8565b606061235f63150b7a0260e01b6121de6117c9565b888787604051602401808573ffffffffffffffffffffffffffffffffffffffff1673ffffffffffffffffffffffffffffffffffffffff1681526020018473ffffffffffffffffffffffffffffffffffffffff1673ffffffffffffffffffffffffffffffffffffffff16815260200183815260200180602001828103825283818151815260200191508051906020019080838360005b8381101561228e578082015181840152602081019050612273565b50505050905090810190601f1680156122bb5780820380516001836020036101000a031916815260200191505b5095505050505050604051602081830303815290604052907bffffffffffffffffffffffffffffffffffffffffffffffffffffffff19166020820180517bffffffffffffffffffffffffffffffffffffffffffffffffffffffff8381831617835250505050604051806060016040528060328152602001612b11603291398773ffffffffffffffffffffffffffffffffffffffff1661283e9092919063ffffffff16565b9050600081806020019051602081101561237857600080fd5b8101908080519060200190929190505050905063150b7a0260e01b7bffffffffffffffffffffffffffffffffffffffffffffffffffffffff1916817bffffffffffffffffffffffffffffffffffffffffffffffffffffffff191614925050505b949350505050565b600080836001016000848152602001908152602001600020541415905092915050565b600080836001016000848152602001908152602001600020549050600081146124df576000600182039050600060018660000180549050039050600086600001828154811061244e57fe5b906000526020600020015490508087600001848154811061246b57fe5b90600052602060002001819055506001830187600101600083815260200190815260200160002081905550866000018054806124a357fe5b600190038181906000526020600020016000905590558660010160008781526020019081526020016000206000905560019450505050506124e5565b60009150505b92915050565b60006124f78383612856565b612550578260000182908060018154018082558091505060019003906000526020600020016000909190919091505582600001805490508360010160008481526020019081526020016000208190555060019050612555565b600090505b92915050565b600080846001016000858152602001908152602001600020549050600081141561260257846000016040518060400160405280868152602001858152509080600181540180825580915050600190039060005260206000209060020201600090919091909150600082015181600001556020820151816001015550508460000180549050856001016000868152602001908152602001600020819055506001915050612630565b8285600001600183038154811061261557fe5b90600052602060002090600202016001018190555060009150505b9392505050565b600073ffffffffffffffffffffffffffffffffffffffff168273ffffffffffffffffffffffffffffffffffffffff1614156126da576040517f08c379a00000000000000000000000000000000000000000000000000000000081526004018080602001828103825260208152602001807f4552433732313a206d696e7420746f20746865207a65726f206164647265737381525060200191505060405180910390fd5b6126e3816117ac565b15612756576040517f08c379a000000000000000000000000000000000000000000000000000000000815260040180806020018281038252601c8152602001807f4552433732313a20746f6b656e20616c7265616479206d696e7465640000000081525060200191505060405180910390fd5b61276260008383611e99565b6127b381600160008573ffffffffffffffffffffffffffffffffffffffff1673ffffffffffffffffffffffffffffffffffffffff168152602001908152602001600020611eb890919063ffffffff16565b506127ca81836002611ed29092919063ffffffff16565b50808273ffffffffffffffffffffffffffffffffffffffff16600073ffffffffffffffffffffffffffffffffffffffff167fddf252ad1be2c89b69c2b068fc378daa952ba7f163c4a11628f55a4df523b3ef60405160405180910390a45050565b600080823b905060008111915050919050565b606061284d8484600085612879565b90509392505050565b600080836001016000848152602001908152602001600020541415905092915050565b6060824710156128d4576040517f08c379a0000000000000000000000000000000000000000000000000000000008152600401808060200182810382526026815260200180612b676026913960400191505060405180910390fd5b6128dd8561282b565b61294f576040517f08c379a000000000000000000000000000000000000000000000000000000000815260040180806020018281038252601d8152602001807f416464726573733a2063616c6c20746f206e6f6e2d636f6e747261637400000081525060200191505060405180910390fd5b600060608673ffffffffffffffffffffffffffffffffffffffff1685876040518082805190602001908083835b6020831061299f578051825260208201915060208101905060208303925061297c565b6001836020036101000a03801982511681845116808217855250505050505090500191505060006040518083038185875af1925050503d8060008114612a01576040519150601f19603f3d011682016040523d82523d6000602084013e612a06565b606091505b5091509150612a16828286612a22565b92505050949350505050565b60608315612a3257829050612ae7565b600083511115612a455782518084602001fd5b816040517f08c379a00000000000000000000000000000000000000000000000000000000081526004018080602001828103825283818151815260200191508051906020019080838360005b83811015612aac578082015181840152602081019050612a91565b50505050905090810190601f168015612ad95780820380516001836020036101000a031916815260200191505b509250505060405180910390fd5b939250505056fe456e756d657261626c655365743a20696e646578206f7574206f6620626f756e64734552433732313a207472616e7366657220746f206e6f6e20455243373231526563656976657220696d706c656d656e7465724552433732313a207472616e7366657220746f20746865207a65726f2061646472657373416464726573733a20696e73756666696369656e742062616c616e636520666f722063616c6c4552433732313a206f70657261746f7220717565727920666f72206e6f6e6578697374656e7420746f6b656e4552433732313a20617070726f76652063616c6c6572206973206e6f74206f776e6572206e6f7220617070726f76656420666f7220616c6c4552433732313a2062616c616e636520717565727920666f7220746865207a65726f20616464726573734552433732313a206f776e657220717565727920666f72206e6f6e6578697374656e7420746f6b656e456e756d657261626c654d61703a20696e646578206f7574206f6620626f756e64734552433732313a20617070726f76656420717565727920666f72206e6f6e6578697374656e7420746f6b656e4552433732313a207472616e73666572206f6620746f6b656e2074686174206973206e6f74206f776e4552433732314d657461646174613a2055524920717565727920666f72206e6f6e6578697374656e7420746f6b656e4552433732313a20617070726f76616c20746f2063757272656e74206f776e65724552433732313a207472616e736665722063616c6c6572206973206e6f74206f776e6572206e6f7220617070726f766564a26469706673582212205c70d5664700a57ef427b97ac0cfdfdd72b541c89b0991699f92846bab06cb3964736f6c63430006020033",
  "source": "pragma solidity ^0.6.0;\nimport \"@openzeppelin/contracts/token/ERC721/ERC721.sol\";\n\n\ncontract ERC721TD is ERC721 {\n\t\n\n    uint public nextTokenId = 0;\n    mapping(address => bool) public whitelist;\n\n    constructor(string memory name_, string memory symbol_) public ERC721(name_, symbol_) {\n    \t_addMinter(msg.sender, true);\n    }\n\n\tfunction mint(address to) public onlyWhitelisted\n\t{\n\t\t_safeMint(to, nextTokenId);\n\t\tnextTokenId += 1;\n\t}\n\n\tfunction manageMinter(address newMinter, bool isMinter) public onlyWhitelisted\n\t{\n\t\t_addMinter(newMinter, isMinter);\n\t}\n\n\tfunction _addMinter(address newMinter, bool isMinter) internal\n\t{\n\t\twhitelist[newMinter] = isMinter;\n\t}\n\n\tmodifier onlyWhitelisted() {\n        require(whitelist[msg.sender], \"Account Not Whitelisted\");\n        _;\n    }\n}\n",
  "sourcePath": "/Users/henrilieutaud/Documents/Mes documents/ESILV/Workshop/signatures-101/contracts/ERC721TD.sol",
  "compiler": {
    "name": "solc",
    "version": "0.6.2+commit.bacdbe57.Emscripten.clang"
  },
  "schemaVersion": "3.3.4",
  "updatedAt": "2021-12-10T16:32:57.137Z",
  "devdoc": {
    "methods": {
      "approve(address,uint256)": {
        "details": "See {IERC721-approve}."
      },
      "balanceOf(address)": {
        "details": "See {IERC721-balanceOf}."
      },
      "baseURI()": {
        "details": "Returns the base URI set via {_setBaseURI}. This will be automatically added as a prefix in {tokenURI} to each token's URI, or to the token ID if no specific URI is set for that token ID."
      },
      "getApproved(uint256)": {
        "details": "See {IERC721-getApproved}."
      },
      "isApprovedForAll(address,address)": {
        "details": "See {IERC721-isApprovedForAll}."
      },
      "name()": {
        "details": "See {IERC721Metadata-name}."
      },
      "ownerOf(uint256)": {
        "details": "See {IERC721-ownerOf}."
      },
      "safeTransferFrom(address,address,uint256)": {
        "details": "See {IERC721-safeTransferFrom}."
      },
      "safeTransferFrom(address,address,uint256,bytes)": {
        "details": "See {IERC721-safeTransferFrom}."
      },
      "setApprovalForAll(address,bool)": {
        "details": "See {IERC721-setApprovalForAll}."
      },
      "supportsInterface(bytes4)": {
        "details": "See {IERC165-supportsInterface}.     * Time complexity O(1), guaranteed to always use less than 30 000 gas."
      },
      "symbol()": {
        "details": "See {IERC721Metadata-symbol}."
      },
      "tokenByIndex(uint256)": {
        "details": "See {IERC721Enumerable-tokenByIndex}."
      },
      "tokenOfOwnerByIndex(address,uint256)": {
        "details": "See {IERC721Enumerable-tokenOfOwnerByIndex}."
      },
      "tokenURI(uint256)": {
        "details": "See {IERC721Metadata-tokenURI}."
      },
      "totalSupply()": {
        "details": "See {IERC721Enumerable-totalSupply}."
      },
      "transferFrom(address,address,uint256)": {
        "details": "See {IERC721-transferFrom}."
      }
    }
  },
  "userdoc": {
    "methods": {}
  }
}