{
  "contractName": "Evaluator",
  "abi": [
    {
      "inputs": [
        {
          "internalType": "contract ERC20TD",
          "name": "_TDERC20",
          "type": "address"
        },
        {
          "internalType": "address payable",
          "name": "_referenceBouncerProxy",
          "type": "address"
        }
      ],
      "stateMutability": "nonpayable",
      "type": "constructor"
    },
    {
      "anonymous": false,
      "inputs": [
        {
          "indexed": false,
          "internalType": "address",
          "name": "_account",
          "type": "address"
        },
        {
          "indexed": false,
          "internalType": "bool",
          "name": "_value",
          "type": "bool"
        }
      ],
      "name": "UpdateWhitelist",
      "type": "event"
    },
    {
      "anonymous": false,
      "inputs": [
        {
          "indexed": false,
          "internalType": "address",
          "name": "erc20Address",
          "type": "address"
        },
        {
          "indexed": false,
          "internalType": "address",
          "name": "referenceBouncerProxy",
          "type": "address"
        }
      ],
      "name": "constructedCorrectly",
      "type": "event"
    },
    {
      "anonymous": false,
      "inputs": [
        {
          "indexed": false,
          "internalType": "bytes32",
          "name": "data",
          "type": "bytes32"
        },
        {
          "indexed": false,
          "internalType": "bytes",
          "name": "sig",
          "type": "bytes"
        }
      ],
      "name": "newRandomBytes32AndSig",
      "type": "event"
    },
    {
      "stateMutability": "payable",
      "type": "fallback",
      "payable": true
    },
    {
      "inputs": [
        {
          "internalType": "address",
          "name": "",
          "type": "address"
        },
        {
          "internalType": "uint256",
          "name": "",
          "type": "uint256"
        }
      ],
      "name": "exerciceProgression",
      "outputs": [
        {
          "internalType": "bool",
          "name": "",
          "type": "bool"
        }
      ],
      "stateMutability": "view",
      "type": "function",
      "constant": true
    },
    {
      "inputs": [
        {
          "internalType": "address",
          "name": "",
          "type": "address"
        }
      ],
      "name": "hasBeenPaired",
      "outputs": [
        {
          "internalType": "bool",
          "name": "",
          "type": "bool"
        }
      ],
      "stateMutability": "view",
      "type": "function",
      "constant": true
    },
    {
      "inputs": [],
      "name": "nextValueStoreRank",
      "outputs": [
        {
          "internalType": "uint256",
          "name": "",
          "type": "uint256"
        }
      ],
      "stateMutability": "view",
      "type": "function",
      "constant": true
    },
    {
      "inputs": [],
      "name": "referenceBouncerProxy",
      "outputs": [
        {
          "internalType": "address payable",
          "name": "",
          "type": "address"
        }
      ],
      "stateMutability": "view",
      "type": "function",
      "constant": true
    },
    {
      "inputs": [
        {
          "internalType": "bytes32",
          "name": "",
          "type": "bytes32"
        }
      ],
      "name": "signedBytes32",
      "outputs": [
        {
          "internalType": "bool",
          "name": "",
          "type": "bool"
        }
      ],
      "stateMutability": "view",
      "type": "function",
      "constant": true
    },
    {
      "inputs": [
        {
          "internalType": "address",
          "name": "",
          "type": "address"
        }
      ],
      "name": "studentExerciceSolution",
      "outputs": [
        {
          "internalType": "contract IExerciceSolution",
          "name": "",
          "type": "address"
        }
      ],
      "stateMutability": "view",
      "type": "function",
      "constant": true
    },
    {
      "inputs": [
        {
          "internalType": "address",
          "name": "",
          "type": "address"
        }
      ],
      "name": "teachers",
      "outputs": [
        {
          "internalType": "bool",
          "name": "",
          "type": "bool"
        }
      ],
      "stateMutability": "view",
      "type": "function",
      "constant": true
    },
    {
      "stateMutability": "payable",
      "type": "receive",
      "payable": true
    },
    {
      "inputs": [],
      "name": "ex1_testERC721",
      "outputs": [],
      "stateMutability": "nonpayable",
      "type": "function"
    },
    {
      "inputs": [
        {
          "internalType": "bytes",
          "name": "_signature",
          "type": "bytes"
        }
      ],
      "name": "ex2_generateASignature",
      "outputs": [],
      "stateMutability": "nonpayable",
      "type": "function"
    },
    {
      "inputs": [],
      "name": "ex3_extractAddressFromSignature",
      "outputs": [],
      "stateMutability": "nonpayable",
      "type": "function"
    },
    {
      "inputs": [
        {
          "internalType": "bytes32",
          "name": "_aBytes32YouChose",
          "type": "bytes32"
        },
        {
          "internalType": "bytes",
          "name": "_theAssociatedSignature",
          "type": "bytes"
        }
      ],
      "name": "ex4_manageWhiteListWithSignature",
      "outputs": [],
      "stateMutability": "nonpayable",
      "type": "function"
    },
    {
      "inputs": [
        {
          "internalType": "bytes",
          "name": "_theRequiredSignature",
          "type": "bytes"
        }
      ],
      "name": "ex5_mintATokenWithASpecificSignature",
      "outputs": [],
      "stateMutability": "nonpayable",
      "type": "function"
    },
    {
      "inputs": [
        {
          "internalType": "address payable",
          "name": "myBouncerProxy",
          "type": "address"
        }
      ],
      "name": "ex6_deployBouncerProxyAndWhitelistYourself",
      "outputs": [],
      "stateMutability": "nonpayable",
      "type": "function"
    },
    {
      "inputs": [],
      "name": "ex7_useBouncerProxyToCallEvaluator",
      "outputs": [],
      "stateMutability": "nonpayable",
      "type": "function"
    },
    {
      "inputs": [
        {
          "internalType": "contract IExerciceSolution",
          "name": "studentExercice",
          "type": "address"
        }
      ],
      "name": "submitExercice",
      "outputs": [],
      "stateMutability": "nonpayable",
      "type": "function"
    },
    {
      "inputs": [
        {
          "internalType": "bytes32[20]",
          "name": "_randomData",
          "type": "bytes32[20]"
        },
        {
          "internalType": "bytes[20]",
          "name": "_signatures",
          "type": "bytes[20]"
        }
      ],
      "name": "setRandomBytes32AndSignature",
      "outputs": [],
      "stateMutability": "nonpayable",
      "type": "function"
    },
    {
      "inputs": [
        {
          "internalType": "bytes32",
          "name": "_bytes32",
          "type": "bytes32"
        }
      ],
      "name": "bytes32ToString",
      "outputs": [
        {
          "internalType": "string",
          "name": "",
          "type": "string"
        }
      ],
      "stateMutability": "pure",
      "type": "function",
      "constant": true
    }
  ],
  "bytecode": "0x60806040523480156200001157600080fd5b5060405162004b2538038062004b2583398181016040526200003791908101906200016e565b81600160006101000a81548173ffffffffffffffffffffffffffffffffffffffff021916908373ffffffffffffffffffffffffffffffffffffffff16021790555080602f60006101000a81548173ffffffffffffffffffffffffffffffffffffffff021916908373ffffffffffffffffffffffffffffffffffffffff1602179055507faec105056259e6e944bb71151b9922f56b566fb88054f082eef397db7ccddf2a600160009054906101000a900473ffffffffffffffffffffffffffffffffffffffff16602f60009054906101000a900473ffffffffffffffffffffffffffffffffffffffff1660405162000130929190620001d1565b60405180910390a15050620002ca565b600081519050620001518162000296565b92915050565b6000815190506200016881620002b0565b92915050565b600080604083850312156200018257600080fd5b6000620001928582860162000157565b9250506020620001a58582860162000140565b9150509250929050565b620001ba816200025a565b82525050565b620001cb81620001fe565b82525050565b6000604082019050620001e86000830185620001c0565b620001f76020830184620001af565b9392505050565b60006200020b826200023a565b9050919050565b60006200021f826200023a565b9050919050565b60006200023382620001fe565b9050919050565b600073ffffffffffffffffffffffffffffffffffffffff82169050919050565b600062000267826200026e565b9050919050565b60006200027b8262000282565b9050919050565b60006200028f826200023a565b9050919050565b620002a18162000212565b8114620002ad57600080fd5b50565b620002bb8162000226565b8114620002c757600080fd5b50565b61484b80620002da6000396000f3fe6080604052600436106101025760003560e01c80639201de5511610095578063d6d1de7811610064578063d6d1de7814610327578063dede624c14610350578063f0a47f7814610367578063f4fdbb88146103a4578063fff31a2f146103e157610109565b80639201de5514610281578063b2c8c14c146102be578063b3c0faae146102e7578063bd144546146102fe57610109565b80632e64c500116100d15780632e64c500146101c55780633027f7a01461020257806339119dce1461021957806342acd0ab1461024457610109565b8063026c4e541461010b5780630b961254146101345780632236d3531461017157806323b88aba1461019a57610109565b3661010957005b005b34801561011757600080fd5b50610132600480360361012d9190810190613743565b61040a565b005b34801561014057600080fd5b5061015b60048036036101569190810190613590565b610a6c565b604051610168919061421f565b60405180910390f35b34801561017d57600080fd5b5061019860048036036101939190810190613784565b610a9f565b005b3480156101a657600080fd5b506101af610d2b565b6040516101bc9190614070565b60405180910390f35b3480156101d157600080fd5b506101ec60048036036101e7919081019061360b565b610d51565b6040516101f9919061413d565b60405180910390f35b34801561020e57600080fd5b50610217610d80565b005b34801561022557600080fd5b5061022e61102b565b60405161023b919061449c565b60405180910390f35b34801561025057600080fd5b5061026b600480360361026691908101906136c6565b611031565b604051610278919061413d565b60405180910390f35b34801561028d57600080fd5b506102a860048036036102a391908101906136c6565b611051565b6040516102b5919061423a565b60405180910390f35b3480156102ca57600080fd5b506102e560048036036102e09190810190613647565b6111ae565b005b3480156102f357600080fd5b506102fc611303565b005b34801561030a57600080fd5b5061032560048036036103209190810190613743565b6116cc565b005b34801561033357600080fd5b5061034e600480360361034991908101906135e2565b6118cf565b005b34801561035c57600080fd5b50610365611c3d565b005b34801561037357600080fd5b5061038e60048036036103899190810190613590565b6128d3565b60405161039b919061413d565b60405180910390f35b3480156103b057600080fd5b506103cb60048036036103c69190810190613590565b6128f3565b6040516103d8919061413d565b60405180910390f35b3480156103ed57600080fd5b50610408600480360361040391908101906136ef565b612913565b005b6000600360003373ffffffffffffffffffffffffffffffffffffffff1673ffffffffffffffffffffffffffffffffffffffff16815260200190815260200160002060009054906101000a900473ffffffffffffffffffffffffffffffffffffffff1673ffffffffffffffffffffffffffffffffffffffff1663574490cd6040518163ffffffff1660e01b8152600401602060405180830381600087803b1580156104b357600080fd5b505af11580156104c7573d6000803e3d6000fd5b505050506040513d601f19601f820116820180604052506104eb91908101906135b9565b90506000819050600030328460405160200161050993929190613fd7565b604051602081830303815290604052805190602001209050600061052d82866130a6565b90503273ffffffffffffffffffffffffffffffffffffffff168173ffffffffffffffffffffffffffffffffffffffff161461059d576040517f08c379a00000000000000000000000000000000000000000000000000000000081526004016105949061445c565b60405180910390fd5b60008373ffffffffffffffffffffffffffffffffffffffff166370a08231306040518263ffffffff1660e01b81526004016105d89190614055565b60206040518083038186803b1580156105f057600080fd5b505afa158015610604573d6000803e3d6000fd5b505050506040513d601f19601f8201168201806040525061062891908101906137ad565b90506000600360003373ffffffffffffffffffffffffffffffffffffffff1673ffffffffffffffffffffffffffffffffffffffff16815260200190815260200160002060009054906101000a900473ffffffffffffffffffffffffffffffffffffffff1673ffffffffffffffffffffffffffffffffffffffff16639a9a291f886040518263ffffffff1660e01b81526004016106c491906141fd565b602060405180830381600087803b1580156106de57600080fd5b505af11580156106f2573d6000803e3d6000fd5b505050506040513d601f19601f8201168201806040525061071691908101906137ad565b905060008573ffffffffffffffffffffffffffffffffffffffff166370a08231306040518263ffffffff1660e01b81526004016107539190614055565b60206040518083038186803b15801561076b57600080fd5b505afa15801561077f573d6000803e3d6000fd5b505050506040513d601f19601f820116820180604052506107a391908101906137ad565b90506001830181146107ea576040517f08c379a00000000000000000000000000000000000000000000000000000000081526004016107e19061447c565b60405180910390fd5b3073ffffffffffffffffffffffffffffffffffffffff168673ffffffffffffffffffffffffffffffffffffffff16636352211e846040518263ffffffff1660e01b815260040161083a919061449c565b60206040518083038186803b15801561085257600080fd5b505afa158015610866573d6000803e3d6000fd5b505050506040513d601f19601f8201168201806040525061088a91908101906135b9565b73ffffffffffffffffffffffffffffffffffffffff16146108e0576040517f08c379a00000000000000000000000000000000000000000000000000000000081526004016108d79061433c565b60405180910390fd5b6001602d600082825401925050819055506014602d5410610904576000602d819055505b600260003373ffffffffffffffffffffffffffffffffffffffff1673ffffffffffffffffffffffffffffffffffffffff16815260200190815260200160002060006005815260200190815260200160002060009054906101000a900460ff16610a62576001600260003373ffffffffffffffffffffffffffffffffffffffff1673ffffffffffffffffffffffffffffffffffffffff16815260200190815260200160002060006005815260200190815260200160002060006101000a81548160ff021916908315150217905550600160009054906101000a900473ffffffffffffffffffffffffffffffffffffffff1673ffffffffffffffffffffffffffffffffffffffff1663158a49883360036040518363ffffffff1660e01b8152600401610a2f9291906140eb565b600060405180830381600087803b158015610a4957600080fd5b505af1158015610a5d573d6000803e3d6000fd5b505050505b5050505050505050565b60036020528060005260406000206000915054906101000a900473ffffffffffffffffffffffffffffffffffffffff1681565b600460008273ffffffffffffffffffffffffffffffffffffffff1673ffffffffffffffffffffffffffffffffffffffff16815260200190815260200160002060009054906101000a900460ff1615610af657600080fd5b80600360003373ffffffffffffffffffffffffffffffffffffffff1673ffffffffffffffffffffffffffffffffffffffff16815260200190815260200160002060006101000a81548173ffffffffffffffffffffffffffffffffffffffff021916908373ffffffffffffffffffffffffffffffffffffffff1602179055506001600460008373ffffffffffffffffffffffffffffffffffffffff1673ffffffffffffffffffffffffffffffffffffffff16815260200190815260200160002060006101000a81548160ff021916908315150217905550600260003373ffffffffffffffffffffffffffffffffffffffff1673ffffffffffffffffffffffffffffffffffffffff168152602001908152602001600020600080815260200190815260200160002060009054906101000a900460ff16610d28576001600260003373ffffffffffffffffffffffffffffffffffffffff1673ffffffffffffffffffffffffffffffffffffffff168152602001908152602001600020600080815260200190815260200160002060006101000a81548160ff021916908315150217905550600160009054906101000a900473ffffffffffffffffffffffffffffffffffffffff1673ffffffffffffffffffffffffffffffffffffffff1663158a49883360026040518363ffffffff1660e01b8152600401610cf59291906140c2565b600060405180830381600087803b158015610d0f57600080fd5b505af1158015610d23573d6000803e3d6000fd5b505050505b50565b602f60009054906101000a900473ffffffffffffffffffffffffffffffffffffffff1681565b60026020528160005260406000206020528060005260406000206000915091509054906101000a900460ff1681565b600080339050803f9150600080602f60009054906101000a900473ffffffffffffffffffffffffffffffffffffffff169050803f9150838214610df8576040517f08c379a0000000000000000000000000000000000000000000000000000000008152600401610def906143dc565b60405180910390fd5b60003390508073ffffffffffffffffffffffffffffffffffffffff16639b19251a326040518263ffffffff1660e01b8152600401610e369190614055565b60206040518083038186803b158015610e4e57600080fd5b505afa158015610e62573d6000803e3d6000fd5b505050506040513d601f19601f82011682018060405250610e86919081019061369d565b15610ec6576040517f08c379a0000000000000000000000000000000000000000000000000000000008152600401610ebd9061439c565b60405180910390fd5b600260003373ffffffffffffffffffffffffffffffffffffffff1673ffffffffffffffffffffffffffffffffffffffff16815260200190815260200160002060006007815260200190815260200160002060009054906101000a900460ff16611024576001600260003373ffffffffffffffffffffffffffffffffffffffff1673ffffffffffffffffffffffffffffffffffffffff16815260200190815260200160002060006007815260200190815260200160002060006101000a81548160ff021916908315150217905550600160009054906101000a900473ffffffffffffffffffffffffffffffffffffffff1673ffffffffffffffffffffffffffffffffffffffff1663158a49883360046040518363ffffffff1660e01b8152600401610ff1929190614114565b600060405180830381600087803b15801561100b57600080fd5b505af115801561101f573d6000803e3d6000fd5b505050505b5050505050565b602d5481565b602e6020528060005260406000206000915054906101000a900460ff1681565b606060008090505b60208160ff161080156110a45750600060f81b838260ff166020811061107b57fe5b1a60f81b7effffffffffffffffffffffffffffffffffffffffffffffffffffffffffffff191614155b156110b6578080600101915050611059565b60608160ff166040519080825280601f01601f1916602001820160405280156110ee5781602001600182028038833980820191505090505b509050600091505b60208260ff161080156111415750600060f81b848360ff166020811061111857fe5b1a60f81b7effffffffffffffffffffffffffffffffffffffffffffffffffffffffffffff191614155b156111a457838260ff166020811061115557fe5b1a60f81b818360ff168151811061116857fe5b60200101907effffffffffffffffffffffffffffffffffffffffffffffffffffffffffffff1916908160001a90535081806001019250506110f6565b8092505050919050565b600160009054906101000a900473ffffffffffffffffffffffffffffffffffffffff1673ffffffffffffffffffffffffffffffffffffffff1663f0a47f78336040518263ffffffff1660e01b81526004016112099190614055565b60206040518083038186803b15801561122157600080fd5b505afa158015611235573d6000803e3d6000fd5b505050506040513d601f19601f82011682018060405250611259919081019061369d565b61126257600080fd5b816005906014611273929190613196565b508060199060146112859291906131d6565b506000602d8190555060008090505b60148110156112fe577fc396a7839f15bca18b63cda01cf4c42871d939b4f58995afbd1bd99c1b7d5912600582601481106112cb57fe5b0154601983601481106112da57fe5b016040516112e9929190614188565b60405180910390a18080600101915050611294565b505050565b60006113c76005602d546014811061131757fe5b01546019602d546014811061132857fe5b018054600181600116156101000203166002900480601f0160208091040260200160405190810160405280929190818152602001828054600181600116156101000203166002900480156113bd5780601f10611392576101008083540402835291602001916113bd565b820191906000526020600020905b8154815290600101906020018083116113a057829003601f168201915b50505050506130a6565b90506000600360003373ffffffffffffffffffffffffffffffffffffffff1673ffffffffffffffffffffffffffffffffffffffff16815260200190815260200160002060009054906101000a900473ffffffffffffffffffffffffffffffffffffffff1673ffffffffffffffffffffffffffffffffffffffff166379d336066005602d546014811061145557fe5b01546019602d546014811061146657fe5b016040518363ffffffff1660e01b8152600401611484929190614188565b602060405180830381600087803b15801561149e57600080fd5b505af11580156114b2573d6000803e3d6000fd5b505050506040513d601f19601f820116820180604052506114d691908101906135b9565b90508073ffffffffffffffffffffffffffffffffffffffff168273ffffffffffffffffffffffffffffffffffffffff1614611546576040517f08c379a000000000000000000000000000000000000000000000000000000000815260040161153d9061441c565b60405180910390fd5b6001602d600082825401925050819055506014602d541061156a576000602d819055505b600260003373ffffffffffffffffffffffffffffffffffffffff1673ffffffffffffffffffffffffffffffffffffffff16815260200190815260200160002060006003815260200190815260200160002060009054906101000a900460ff166116c8576001600260003373ffffffffffffffffffffffffffffffffffffffff1673ffffffffffffffffffffffffffffffffffffffff16815260200190815260200160002060006003815260200190815260200160002060006101000a81548160ff021916908315150217905550600160009054906101000a900473ffffffffffffffffffffffffffffffffffffffff1673ffffffffffffffffffffffffffffffffffffffff1663158a49883360026040518363ffffffff1660e01b81526004016116959291906140c2565b600060405180830381600087803b1580156116af57600080fd5b505af11580156116c3573d6000803e3d6000fd5b505050505b5050565b60007b596f75206e65656420746f207369676e207468697320737472696e6760001b905060006116fc82846130a6565b90508073ffffffffffffffffffffffffffffffffffffffff163273ffffffffffffffffffffffffffffffffffffffff161461176c576040517f08c379a00000000000000000000000000000000000000000000000000000000081526004016117639061445c565b60405180910390fd5b600260003373ffffffffffffffffffffffffffffffffffffffff1673ffffffffffffffffffffffffffffffffffffffff16815260200190815260200160002060006002815260200190815260200160002060009054906101000a900460ff166118ca576001600260003373ffffffffffffffffffffffffffffffffffffffff1673ffffffffffffffffffffffffffffffffffffffff16815260200190815260200160002060006002815260200190815260200160002060006101000a81548160ff021916908315150217905550600160009054906101000a900473ffffffffffffffffffffffffffffffffffffffff1673ffffffffffffffffffffffffffffffffffffffff1663158a49883360026040518363ffffffff1660e01b81526004016118979291906140c2565b600060405180830381600087803b1580156118b157600080fd5b505af11580156118c5573d6000803e3d6000fd5b505050505b505050565b60008190506000823f9050600080602f60009054906101000a900473ffffffffffffffffffffffffffffffffffffffff169050803f9150828214611948576040517f08c379a000000000000000000000000000000000000000000000000000000000815260040161193f906143dc565b60405180910390fd5b8373ffffffffffffffffffffffffffffffffffffffff16639b19251a326040518263ffffffff1660e01b81526004016119819190614055565b60206040518083038186803b15801561199957600080fd5b505afa1580156119ad573d6000803e3d6000fd5b505050506040513d601f19601f820116820180604052506119d1919081019061369d565b611a10576040517f08c379a0000000000000000000000000000000000000000000000000000000008152600401611a07906142bc565b60405180910390fd5b8373ffffffffffffffffffffffffffffffffffffffff16639b19251a336040518263ffffffff1660e01b8152600401611a499190614055565b60206040518083038186803b158015611a6157600080fd5b505afa158015611a75573d6000803e3d6000fd5b505050506040513d601f19601f82011682018060405250611a99919081019061369d565b611ad8576040517f08c379a0000000000000000000000000000000000000000000000000000000008152600401611acf9061427c565b60405180910390fd5b600260003373ffffffffffffffffffffffffffffffffffffffff1673ffffffffffffffffffffffffffffffffffffffff16815260200190815260200160002060006006815260200190815260200160002060009054906101000a900460ff16611c36576001600260003373ffffffffffffffffffffffffffffffffffffffff1673ffffffffffffffffffffffffffffffffffffffff16815260200190815260200160002060006006815260200190815260200160002060006101000a81548160ff021916908315150217905550600160009054906101000a900473ffffffffffffffffffffffffffffffffffffffff1673ffffffffffffffffffffffffffffffffffffffff1663158a49883360036040518363ffffffff1660e01b8152600401611c039291906140eb565b600060405180830381600087803b158015611c1d57600080fd5b505af1158015611c31573d6000803e3d6000fd5b505050505b5050505050565b600260003373ffffffffffffffffffffffffffffffffffffffff1673ffffffffffffffffffffffffffffffffffffffff168152602001908152602001600020600080815260200190815260200160002060009054906101000a900460ff16611cda576040517f08c379a0000000000000000000000000000000000000000000000000000000008152600401611cd19061443c565b60405180910390fd5b6000600360003373ffffffffffffffffffffffffffffffffffffffff1673ffffffffffffffffffffffffffffffffffffffff16815260200190815260200160002060009054906101000a900473ffffffffffffffffffffffffffffffffffffffff1673ffffffffffffffffffffffffffffffffffffffff1663574490cd6040518163ffffffff1660e01b8152600401602060405180830381600087803b158015611d8357600080fd5b505af1158015611d97573d6000803e3d6000fd5b505050506040513d601f19601f82011682018060405250611dbb91908101906135b9565b90506000819050600360003373ffffffffffffffffffffffffffffffffffffffff1673ffffffffffffffffffffffffffffffffffffffff16815260200190815260200160002060009054906101000a900473ffffffffffffffffffffffffffffffffffffffff1673ffffffffffffffffffffffffffffffffffffffff168273ffffffffffffffffffffffffffffffffffffffff161415611e90576040517f08c379a0000000000000000000000000000000000000000000000000000000008152600401611e879061437c565b60405180910390fd5b60008173ffffffffffffffffffffffffffffffffffffffff166370a08231306040518263ffffffff1660e01b8152600401611ecb9190614055565b60206040518083038186803b158015611ee357600080fd5b505afa158015611ef7573d6000803e3d6000fd5b505050506040513d601f19601f82011682018060405250611f1b91908101906137ad565b905060008273ffffffffffffffffffffffffffffffffffffffff166370a08231600360003373ffffffffffffffffffffffffffffffffffffffff1673ffffffffffffffffffffffffffffffffffffffff16815260200190815260200160002060009054906101000a900473ffffffffffffffffffffffffffffffffffffffff166040518263ffffffff1660e01b8152600401611fb7919061403a565b60206040518083038186803b158015611fcf57600080fd5b505afa158015611fe3573d6000803e3d6000fd5b505050506040513d601f19601f8201168201806040525061200791908101906137ad565b90506000600360003373ffffffffffffffffffffffffffffffffffffffff1673ffffffffffffffffffffffffffffffffffffffff16815260200190815260200160002060009054906101000a900473ffffffffffffffffffffffffffffffffffffffff1673ffffffffffffffffffffffffffffffffffffffff1663ac4fec216040518163ffffffff1660e01b8152600401602060405180830381600087803b1580156120b257600080fd5b505af11580156120c6573d6000803e3d6000fd5b505050506040513d601f19601f820116820180604052506120ea91908101906137ad565b905060008473ffffffffffffffffffffffffffffffffffffffff166370a08231306040518263ffffffff1660e01b81526004016121279190614055565b60206040518083038186803b15801561213f57600080fd5b505afa158015612153573d6000803e3d6000fd5b505050506040513d601f19601f8201168201806040525061217791908101906137ad565b905060008573ffffffffffffffffffffffffffffffffffffffff166370a08231600360003373ffffffffffffffffffffffffffffffffffffffff1673ffffffffffffffffffffffffffffffffffffffff16815260200190815260200160002060009054906101000a900473ffffffffffffffffffffffffffffffffffffffff166040518263ffffffff1660e01b8152600401612213919061403a565b60206040518083038186803b15801561222b57600080fd5b505afa15801561223f573d6000803e3d6000fd5b505050506040513d601f19601f8201168201806040525061226391908101906137ad565b90506001850182146122aa576040517f08c379a00000000000000000000000000000000000000000000000000000000081526004016122a19061447c565b60405180910390fd5b3073ffffffffffffffffffffffffffffffffffffffff168673ffffffffffffffffffffffffffffffffffffffff16636352211e856040518263ffffffff1660e01b81526004016122fa919061449c565b60206040518083038186803b15801561231257600080fd5b505afa158015612326573d6000803e3d6000fd5b505050506040513d601f19601f8201168201806040525061234a91908101906135b9565b73ffffffffffffffffffffffffffffffffffffffff16146123a0576040517f08c379a00000000000000000000000000000000000000000000000000000000081526004016123979061433c565b60405180910390fd5b8381146123e2576040517f08c379a00000000000000000000000000000000000000000000000000000000081526004016123d99061429c565b60405180910390fd5b60008673ffffffffffffffffffffffffffffffffffffffff166370a08231336040518263ffffffff1660e01b815260040161241d9190614055565b60206040518083038186803b15801561243557600080fd5b505afa158015612449573d6000803e3d6000fd5b505050506040513d601f19601f8201168201806040525061246d91908101906137ad565b90508673ffffffffffffffffffffffffffffffffffffffff166342842e0e3033876040518463ffffffff1660e01b81526004016124ac9392919061408b565b600060405180830381600087803b1580156124c657600080fd5b505af11580156124da573d6000803e3d6000fd5b50505050858773ffffffffffffffffffffffffffffffffffffffff166370a08231306040518263ffffffff1660e01b81526004016125189190614055565b60206040518083038186803b15801561253057600080fd5b505afa158015612544573d6000803e3d6000fd5b505050506040513d601f19601f8201168201806040525061256891908101906137ad565b146125a8576040517f08c379a000000000000000000000000000000000000000000000000000000000815260040161259f9061431c565b60405180910390fd5b3373ffffffffffffffffffffffffffffffffffffffff168773ffffffffffffffffffffffffffffffffffffffff16636352211e866040518263ffffffff1660e01b81526004016125f8919061449c565b60206040518083038186803b15801561261057600080fd5b505afa158015612624573d6000803e3d6000fd5b505050506040513d601f19601f8201168201806040525061264891908101906135b9565b73ffffffffffffffffffffffffffffffffffffffff161461269e576040517f08c379a0000000000000000000000000000000000000000000000000000000008152600401612695906142fc565b60405180910390fd5b600181018773ffffffffffffffffffffffffffffffffffffffff166370a08231336040518263ffffffff1660e01b81526004016126db9190614055565b60206040518083038186803b1580156126f357600080fd5b505afa158015612707573d6000803e3d6000fd5b505050506040513d601f19601f8201168201806040525061272b91908101906137ad565b1461276b576040517f08c379a00000000000000000000000000000000000000000000000000000000081526004016127629061435c565b60405180910390fd5b600260003373ffffffffffffffffffffffffffffffffffffffff1673ffffffffffffffffffffffffffffffffffffffff16815260200190815260200160002060006001815260200190815260200160002060009054906101000a900460ff166128c9576001600260003373ffffffffffffffffffffffffffffffffffffffff1673ffffffffffffffffffffffffffffffffffffffff16815260200190815260200160002060006001815260200190815260200160002060006101000a81548160ff021916908315150217905550600160009054906101000a900473ffffffffffffffffffffffffffffffffffffffff1673ffffffffffffffffffffffffffffffffffffffff1663158a49883360026040518363ffffffff1660e01b81526004016128969291906140c2565b600060405180830381600087803b1580156128b057600080fd5b505af11580156128c4573d6000803e3d6000fd5b505050505b5050505050505050565b60006020528060005260406000206000915054906101000a900460ff1681565b60046020528060005260406000206000915054906101000a900460ff1681565b600061291f83836130a6565b90503273ffffffffffffffffffffffffffffffffffffffff168173ffffffffffffffffffffffffffffffffffffffff161461298f576040517f08c379a00000000000000000000000000000000000000000000000000000000081526004016129869061445c565b60405180910390fd5b600360003373ffffffffffffffffffffffffffffffffffffffff1673ffffffffffffffffffffffffffffffffffffffff16815260200190815260200160002060009054906101000a900473ffffffffffffffffffffffffffffffffffffffff1673ffffffffffffffffffffffffffffffffffffffff16639b19251a826040518263ffffffff1660e01b8152600401612a27919061403a565b602060405180830381600087803b158015612a4157600080fd5b505af1158015612a55573d6000803e3d6000fd5b505050506040513d601f19601f82011682018060405250612a79919081019061369d565b612ab8576040517f08c379a0000000000000000000000000000000000000000000000000000000008152600401612aaf906143bc565b60405180910390fd5b600360003373ffffffffffffffffffffffffffffffffffffffff1673ffffffffffffffffffffffffffffffffffffffff16815260200190815260200160002060009054906101000a900473ffffffffffffffffffffffffffffffffffffffff1673ffffffffffffffffffffffffffffffffffffffff16637d851a1384846040518363ffffffff1660e01b8152600401612b52929190614158565b602060405180830381600087803b158015612b6c57600080fd5b505af1158015612b80573d6000803e3d6000fd5b505050506040513d601f19601f82011682018060405250612ba4919081019061369d565b612be3576040517f08c379a0000000000000000000000000000000000000000000000000000000008152600401612bda9061425c565b60405180910390fd5b6000612ca76005602d5460148110612bf757fe5b01546019602d5460148110612c0857fe5b018054600181600116156101000203166002900480601f016020809104026020016040519081016040528092919081815260200182805460018160011615610100020316600290048015612c9d5780601f10612c7257610100808354040283529160200191612c9d565b820191906000526020600020905b815481529060010190602001808311612c8057829003601f168201915b50505050506130a6565b9050600360003373ffffffffffffffffffffffffffffffffffffffff1673ffffffffffffffffffffffffffffffffffffffff16815260200190815260200160002060009054906101000a900473ffffffffffffffffffffffffffffffffffffffff1673ffffffffffffffffffffffffffffffffffffffff16639b19251a826040518263ffffffff1660e01b8152600401612d41919061403a565b602060405180830381600087803b158015612d5b57600080fd5b505af1158015612d6f573d6000803e3d6000fd5b505050506040513d601f19601f82011682018060405250612d93919081019061369d565b15612dd3576040517f08c379a0000000000000000000000000000000000000000000000000000000008152600401612dca906142dc565b60405180910390fd5b600360003373ffffffffffffffffffffffffffffffffffffffff1673ffffffffffffffffffffffffffffffffffffffff16815260200190815260200160002060009054906101000a900473ffffffffffffffffffffffffffffffffffffffff1673ffffffffffffffffffffffffffffffffffffffff16637d851a136005602d5460148110612e5d57fe5b01546019602d5460148110612e6e57fe5b016040518363ffffffff1660e01b8152600401612e8c929190614188565b602060405180830381600087803b158015612ea657600080fd5b505af1158015612eba573d6000803e3d6000fd5b505050506040513d601f19601f82011682018060405250612ede919081019061369d565b15612f1e576040517f08c379a0000000000000000000000000000000000000000000000000000000008152600401612f15906143fc565b60405180910390fd5b6001602d600082825401925050819055506014602d5410612f42576000602d819055505b600260003373ffffffffffffffffffffffffffffffffffffffff1673ffffffffffffffffffffffffffffffffffffffff16815260200190815260200160002060006004815260200190815260200160002060009054906101000a900460ff166130a0576001600260003373ffffffffffffffffffffffffffffffffffffffff1673ffffffffffffffffffffffffffffffffffffffff16815260200190815260200160002060006004815260200190815260200160002060006101000a81548160ff021916908315150217905550600160009054906101000a900473ffffffffffffffffffffffffffffffffffffffff1673ffffffffffffffffffffffffffffffffffffffff1663158a49883360026040518363ffffffff1660e01b815260040161306d9291906140c2565b600060405180830381600087803b15801561308757600080fd5b505af115801561309b573d6000803e3d6000fd5b505050505b50505050565b60008060008060418551146130c15760009350505050613190565b6020850151925060408501519150606085015160001a9050601b8160ff1610156130ec57601b810190505b601b8160ff16141580156131045750601c8160ff1614155b156131155760009350505050613190565b6001866040516020016131289190614014565b604051602081830303815290604052805190602001208285856040516000815260200160405260405161315e94939291906141b8565b6020604051602081039080840390855afa158015613180573d6000803e3d6000fd5b5050506020604051035193505050505b92915050565b82601481019282156131c5579160200282015b828111156131c45782518255916020019190600101906131a9565b5b5090506131d29190613229565b5090565b8260148101928215613218579160200282015b8281111561321757825182908051906020019061320792919061324e565b50916020019190600101906131e9565b5b50905061322591906132ce565b5090565b61324b91905b8082111561324757600081600090555060010161322f565b5090565b90565b828054600181600116156101000203166002900490600052602060002090601f016020900481019282601f1061328f57805160ff19168380011785556132bd565b828001600101855582156132bd579182015b828111156132bc5782518255916020019190600101906132a1565b5b5090506132ca91906132fa565b5090565b6132f791905b808211156132f357600081816132ea919061331f565b506001016132d4565b5090565b90565b61331c91905b80821115613318576000816000905550600101613300565b5090565b90565b50805460018160011615610100020316600290046000825580601f106133455750613364565b601f01602090049060005260206000209081019061336391906132fa565b5b50565b6000813590506133768161478b565b92915050565b60008151905061338b8161478b565b92915050565b6000813590506133a0816147a2565b92915050565b600082601f8301126133b757600080fd5b60146133ca6133c5826144e4565b6144b7565b915081838560208402820111156133e057600080fd5b60005b8381101561341057816133f68882613494565b8452602084019350602083019250506001810190506133e3565b5050505092915050565b600082601f83011261342b57600080fd5b601461343e61343982614506565b6144b7565b9150818360005b83811015613475578135860161345b88826134a9565b845260208401935060208301925050600181019050613445565b5050505092915050565b60008151905061348e816147b9565b92915050565b6000813590506134a3816147d0565b92915050565b600082601f8301126134ba57600080fd5b81356134cd6134c882614528565b6144b7565b915080825260208301602083018583830111156134e957600080fd5b6134f48382846146eb565b50505092915050565b600082601f83011261350e57600080fd5b813561352161351c82614554565b6144b7565b9150808252602083016020830185838301111561353d57600080fd5b6135488382846146eb565b50505092915050565b600081359050613560816147e7565b92915050565b600081359050613575816147fe565b92915050565b60008151905061358a816147fe565b92915050565b6000602082840312156135a257600080fd5b60006135b084828501613367565b91505092915050565b6000602082840312156135cb57600080fd5b60006135d98482850161337c565b91505092915050565b6000602082840312156135f457600080fd5b600061360284828501613391565b91505092915050565b6000806040838503121561361e57600080fd5b600061362c85828601613367565b925050602061363d85828601613566565b9150509250929050565b6000806102a0838503121561365b57600080fd5b6000613669858286016133a6565b92505061028083013567ffffffffffffffff81111561368757600080fd5b6136938582860161341a565b9150509250929050565b6000602082840312156136af57600080fd5b60006136bd8482850161347f565b91505092915050565b6000602082840312156136d857600080fd5b60006136e684828501613494565b91505092915050565b6000806040838503121561370257600080fd5b600061371085828601613494565b925050602083013567ffffffffffffffff81111561372d57600080fd5b613739858286016134fd565b9150509250929050565b60006020828403121561375557600080fd5b600082013567ffffffffffffffff81111561376f57600080fd5b61377b848285016134fd565b91505092915050565b60006020828403121561379657600080fd5b60006137a484828501613551565b91505092915050565b6000602082840312156137bf57600080fd5b60006137cd8482850161357b565b91505092915050565b6137df8161465b565b82525050565b6137ee816145ea565b82525050565b613805613800826145ea565b61473f565b82525050565b613814816145d8565b82525050565b61382b613826826145d8565b61472d565b82525050565b61383a816145fc565b82525050565b61384981614608565b82525050565b61386061385b82614608565b614751565b82525050565b600061387182614595565b61387b81856145ab565b935061388b8185602086016146fa565b6138948161476d565b840191505092915050565b6000815460018116600081146138bc57600181146138e257613926565b607f60028304166138cd81876145ab565b955060ff198316865260208601935050613926565b600282046138f081876145ab565b95506138fb85614580565b60005b8281101561391d578154818901526001820191506020810190506138fe565b80880195505050505b505092915050565b6139378161466d565b82525050565b61394681614691565b82525050565b613955816146a3565b82525050565b613964816146b5565b82525050565b6000613975826145a0565b61397f81856145bc565b935061398f8185602086016146fa565b6139988161476d565b840191505092915050565b60006139b06021836145bc565b91507f5369676e6174757265206e6f742076616c69646174656420636f72726563746c60008301527f79000000000000000000000000000000000000000000000000000000000000006020830152604082019050919050565b6000613a166021836145bc565b91507f4d6573736167652073656e646572206973206e6f742077686974656c6973746560008301527f64000000000000000000000000000000000000000000000000000000000000006020830152604082019050919050565b6000613a7c6024836145bc565b91507f4d696e7465722062616c616e6365206368616e6765642c20646964206e6f742060008301527f6d696e74000000000000000000000000000000000000000000000000000000006020830152604082019050919050565b6000613ae2601c836145cd565b91507f19457468657265756d205369676e6564204d6573736167653a0a3332000000006000830152601c82019050919050565b6000613b226020836145bc565b91507f5478206f726967696e61746f72206973206e6f742077686974656c69737465646000830152602082019050919050565b6000613b62601c836145bc565b91507f52616e646f6d207369676e65722069732077686974656c6973746564000000006000830152602082019050919050565b6000613ba2601c836145bc565b91507f546f6b656e20646f6573206e6f742062656c6f6e6720746f20796f75000000006000830152602082019050919050565b6000613be26027836145bc565b91507f42616c616e636520646964206e6f74206465637265617365206166746572207460008301527f72616e73666572000000000000000000000000000000000000000000000000006020830152604082019050919050565b6000613c486022836145bc565b91507f4e657720746f6b656e20646f6573206e6f742062656c6f6e6720746f206d656560008301527f65650000000000000000000000000000000000000000000000000000000000006020830152604082019050919050565b6000613cae6027836145bc565b91507f42616c616e636520646964206e6f7420696e637265617365206166746572207460008301527f72616e73666572000000000000000000000000000000000000000000000000006020830152604082019050919050565b6000613d14601e836145bc565b91507f45524337323120616e64206d696e74657220617265207468652073616d6500006000830152602082019050919050565b6000613d54601c836145bc565b91507f5478206f726967696e61746f722069732077686974656c6973746564000000006000830152602082019050919050565b6000613d94601a836145bc565b91507f6f726967696e61746f72206e6f742077686974656c69737465640000000000006000830152602082019050919050565b6000613dd46029836145bc565b91507f4465706c6f79656420636f646520697320646966666572656e742066726f6d2060008301527f7265666572656e636500000000000000000000000000000000000000000000006020830152604082019050919050565b6000613e3a6016836145bc565b91507f52616e646f6d207369676e617475726520776f726b73000000000000000000006000830152602082019050919050565b6000613e7a6023836145bc565b91507f5369676e6174757265206e6f7420696e74657270726574656420636f7272656360008301527f746c7900000000000000000000000000000000000000000000000000000000006020830152604082019050919050565b6000613ee06015836145bc565b91507f4e6f20736f6c7574696f6e207375626d697474656400000000000000000000006000830152602082019050919050565b6000613f206026836145bc565b91507f7369676e617475726520646f6573206e6f74206d61746368207478206f72696760008301527f696e61746f7200000000000000000000000000000000000000000000000000006020830152604082019050919050565b6000613f866019836145bc565b91507f446964206e6f742072656365697665206f6e6520746f6b656e000000000000006000830152602082019050919050565b613fc281614644565b82525050565b613fd18161464e565b82525050565b6000613fe382866137f4565b601482019150613ff382856137f4565b601482019150614003828461381a565b601482019150819050949350505050565b600061401f82613ad5565b915061402b828461384f565b60208201915081905092915050565b600060208201905061404f600083018461380b565b92915050565b600060208201905061406a60008301846137d6565b92915050565b600060208201905061408560008301846137e5565b92915050565b60006060820190506140a060008301866137d6565b6140ad60208301856137d6565b6140ba6040830184613fb9565b949350505050565b60006040820190506140d760008301856137d6565b6140e4602083018461393d565b9392505050565b600060408201905061410060008301856137d6565b61410d602083018461394c565b9392505050565b600060408201905061412960008301856137d6565b614136602083018461395b565b9392505050565b60006020820190506141526000830184613831565b92915050565b600060408201905061416d6000830185613840565b818103602083015261417f8184613866565b90509392505050565b600060408201905061419d6000830185613840565b81810360208301526141af818461389f565b90509392505050565b60006080820190506141cd6000830187613840565b6141da6020830186613fc8565b6141e76040830185613840565b6141f46060830184613840565b95945050505050565b600060208201905081810360008301526142178184613866565b905092915050565b6000602082019050614234600083018461392e565b92915050565b60006020820190508181036000830152614254818461396a565b905092915050565b60006020820190508181036000830152614275816139a3565b9050919050565b6000602082019050818103600083015261429581613a09565b9050919050565b600060208201905081810360008301526142b581613a6f565b9050919050565b600060208201905081810360008301526142d581613b15565b9050919050565b600060208201905081810360008301526142f581613b55565b9050919050565b6000602082019050818103600083015261431581613b95565b9050919050565b6000602082019050818103600083015261433581613bd5565b9050919050565b6000602082019050818103600083015261435581613c3b565b9050919050565b6000602082019050818103600083015261437581613ca1565b9050919050565b6000602082019050818103600083015261439581613d07565b9050919050565b600060208201905081810360008301526143b581613d47565b9050919050565b600060208201905081810360008301526143d581613d87565b9050919050565b600060208201905081810360008301526143f581613dc7565b9050919050565b6000602082019050818103600083015261441581613e2d565b9050919050565b6000602082019050818103600083015261443581613e6d565b9050919050565b6000602082019050818103600083015261445581613ed3565b9050919050565b6000602082019050818103600083015261447581613f13565b9050919050565b6000602082019050818103600083015261449581613f79565b9050919050565b60006020820190506144b16000830184613fb9565b92915050565b6000604051905081810181811067ffffffffffffffff821117156144da57600080fd5b8060405250919050565b600067ffffffffffffffff8211156144fb57600080fd5b602082029050919050565b600067ffffffffffffffff82111561451d57600080fd5b602082029050919050565b600067ffffffffffffffff82111561453f57600080fd5b601f19601f8301169050602081019050919050565b600067ffffffffffffffff82111561456b57600080fd5b601f19601f8301169050602081019050919050565b60008190508160005260206000209050919050565b600081519050919050565b600081519050919050565b600082825260208201905092915050565b600082825260208201905092915050565b600081905092915050565b60006145e382614624565b9050919050565b60006145f582614624565b9050919050565b60008115159050919050565b6000819050919050565b600061461d826145d8565b9050919050565b600073ffffffffffffffffffffffffffffffffffffffff82169050919050565b6000819050919050565b600060ff82169050919050565b6000614666826146c7565b9050919050565b60006146788261467f565b9050919050565b600061468a82614624565b9050919050565b600061469c82614644565b9050919050565b60006146ae82614644565b9050919050565b60006146c082614644565b9050919050565b60006146d2826146d9565b9050919050565b60006146e482614624565b9050919050565b82818337600083830152505050565b60005b838110156147185780820151818401526020810190506146fd565b83811115614727576000848401525b50505050565b60006147388261475b565b9050919050565b600061474a8261475b565b9050919050565b6000819050919050565b60006147668261477e565b9050919050565b6000601f19601f8301169050919050565b60008160601b9050919050565b614794816145d8565b811461479f57600080fd5b50565b6147ab816145ea565b81146147b657600080fd5b50565b6147c2816145fc565b81146147cd57600080fd5b50565b6147d981614608565b81146147e457600080fd5b50565b6147f081614612565b81146147fb57600080fd5b50565b61480781614644565b811461481257600080fd5b5056fea2646970667358221220e6853aed325f98edde6a54b117add36429d431f5140845189f65dc5fc18c770064736f6c63430006020033",
  "source": "pragma solidity ^0.6.0;\npragma experimental ABIEncoderV2;\n\nimport \"./ERC20TD.sol\";\nimport \"./IExerciceSolution.sol\";\nimport \"@openzeppelin/contracts/token/ERC721/IERC721.sol\";\nimport \"./BouncerProxy.sol\";\n\ncontract Evaluator {\n\n    mapping(address => bool) public teachers;\n    ERC20TD TDERC20;\n   \n    mapping(address => mapping(uint256 => bool)) public exerciceProgression;\n    mapping(address => IExerciceSolution) public studentExerciceSolution;\n    mapping(address => bool) public hasBeenPaired;\n\n    bytes32[20] private randomBytes32ToSign;\n    bytes[20] private associatedSignatures;\n    uint public nextValueStoreRank;\n    mapping(bytes32 => bool) public signedBytes32;\n    address payable public referenceBouncerProxy;\n\n    event constructedCorrectly(address erc20Address, address referenceBouncerProxy);\n    event UpdateWhitelist(address _account, bool _value);\n    event newRandomBytes32AndSig(bytes32 data, bytes sig);\n\n    constructor(ERC20TD _TDERC20, address payable _referenceBouncerProxy) \n    public \n    {\n        TDERC20 = _TDERC20;\n        referenceBouncerProxy = _referenceBouncerProxy;\n        emit constructedCorrectly(address(TDERC20), referenceBouncerProxy);\n    }\n\n    fallback () external payable \n    {}\n\n    receive () external payable \n    {}\n\n    function ex1_testERC721()\n    public  \n    {\n        // Checking a solution was submitted\n        require(exerciceProgression[msg.sender][0], \"No solution submitted\");\n\n        // Retrieve ERC721 address from ExerciceSolution\n        address studentERC721Address = studentExerciceSolution[msg.sender].ERC721Address();\n        IERC721 studentERC721 = IERC721(studentERC721Address);\n\n        // Check they are two different contracts \n        require(studentERC721Address != address(studentExerciceSolution[msg.sender]), \"ERC721 and minter are the same\");\n\n        // Checking balance pre minting\n        uint256 evaluatorBalancePreMint = studentERC721.balanceOf(address(this));\n        uint256 minterBalancePreMint = studentERC721.balanceOf(address(studentExerciceSolution[msg.sender]));\n\n        // Claim a token through minter\n        uint256 newToken = studentExerciceSolution[msg.sender].mintATokenForMe();\n\n        // Checking balance post minting\n        uint256 evaluatorBalancePostMint = studentERC721.balanceOf(address(this));\n        uint256 minterBalancePostMint = studentERC721.balanceOf(address(studentExerciceSolution[msg.sender]));\n\n        // Check that token 1 belongs to the Evaluator\n        require(evaluatorBalancePostMint == evaluatorBalancePreMint + 1, \"Did not receive one token\");\n        require(studentERC721.ownerOf(newToken) == address(this), \"New token does not belong to meeee\");\n\n        // Check the token was minted, not lazily transferred\n        require(minterBalancePostMint == minterBalancePreMint, \"Minter balance changed, did not mint\");\n\n        // Check that token 1 can be transferred back to msg.sender, so it's a real ERC721\n        uint256 senderBalancePreTransfer = studentERC721.balanceOf(msg.sender);\n        studentERC721.safeTransferFrom(address(this), msg.sender, newToken);\n        require(studentERC721.balanceOf(address(this)) == evaluatorBalancePreMint, \"Balance did not decrease after transfer\");\n        require(studentERC721.ownerOf(newToken) == msg.sender, \"Token does not belong to you\");\n        require(studentERC721.balanceOf(msg.sender) == senderBalancePreTransfer + 1, \"Balance did not increase after transfer\");\n\n        // Crediting points\n        if (!exerciceProgression[msg.sender][1])\n        {\n            exerciceProgression[msg.sender][1] = true;\n            // ERC721 points\n            TDERC20.distributeTokens(msg.sender, 2);\n        }\n    }\n\n    function ex2_generateASignature(bytes memory _signature) \n    public \n    {\n        bytes32 stringToSignToGetPoint = 0x00000000596f75206e65656420746f207369676e207468697320737472696e67;\n\n        // If tx fails here, it means the transaction did not receive a valid signature\n        address signatureSender = extractAddress(stringToSignToGetPoint , _signature);\n        require(tx.origin == signatureSender, \"signature does not match tx originator\");\n\n        // Crediting points\n        if (!exerciceProgression[msg.sender][2])\n        {\n            exerciceProgression[msg.sender][2] = true;\n            // ERC721 points\n            TDERC20.distributeTokens(msg.sender, 2);\n        }\n    }\n\n    function ex3_extractAddressFromSignature() \n    public \n    {        \n        // Retrieving a random signature and associated address\n        address signatureSender = extractAddress(randomBytes32ToSign[nextValueStoreRank] , associatedSignatures[nextValueStoreRank]);\n\n        // Checking that student contract is able to extract the address from the signature\n        address retrievedAddressByExerciceSolution = studentExerciceSolution[msg.sender].getAddressFromSignature(randomBytes32ToSign[nextValueStoreRank] , associatedSignatures[nextValueStoreRank]);\n        \n        require(signatureSender == retrievedAddressByExerciceSolution, \"Signature not interpreted correctly\");\n        \n        // Incrementing next value store rank\n        nextValueStoreRank += 1;\n        if (nextValueStoreRank >= 20)\n        {\n            nextValueStoreRank = 0;\n        }\n\n        // Crediting points\n        if (!exerciceProgression[msg.sender][3])\n        {\n            exerciceProgression[msg.sender][3] = true;\n            // ERC721 points\n            TDERC20.distributeTokens(msg.sender, 2);\n        }\n    }\n\n    function ex4_manageWhiteListWithSignature(bytes32 _aBytes32YouChose, bytes memory _theAssociatedSignature)\n    public\n    {\n        // Is your signature correctly formated\n        address signatureSender = extractAddress(_aBytes32YouChose , _theAssociatedSignature);\n        // Broadcaster is signer \n        require(signatureSender == tx.origin, \"signature does not match tx originator\");\n\n        // Is the signer whitelisted\n        require(studentExerciceSolution[msg.sender].whitelist(signatureSender), \"originator not whitelisted\");\n        require(studentExerciceSolution[msg.sender].signerIsWhitelisted(_aBytes32YouChose, _theAssociatedSignature), \"Signature not validated correctly\");\n\n        // Extracting a random signer\n        address storedSignatureSender = extractAddress(randomBytes32ToSign[nextValueStoreRank] , associatedSignatures[nextValueStoreRank]);\n\n        // Is a random signer whitelisted whitelisted\n        require(!studentExerciceSolution[msg.sender].whitelist(storedSignatureSender), \"Random signer is whitelisted\");\n        require(!studentExerciceSolution[msg.sender].signerIsWhitelisted(randomBytes32ToSign[nextValueStoreRank] , associatedSignatures[nextValueStoreRank]), \"Random signature works\");\n        \n        // Incrementing next value store rank\n        nextValueStoreRank += 1;\n        if (nextValueStoreRank >= 20)\n        {\n            nextValueStoreRank = 0;\n        }\n        // Crediting points\n        if (!exerciceProgression[msg.sender][4])\n        {\n            exerciceProgression[msg.sender][4] = true;\n            // ERC721 points\n            TDERC20.distributeTokens(msg.sender, 2);\n        }\n    }\n\n    function ex5_mintATokenWithASpecificSignature(bytes memory _theRequiredSignature)\n    public\n    {\n\n        // Retrieve ERC721 address from ExerciceSolution\n        address studentERC721Address = studentExerciceSolution[msg.sender].ERC721Address();\n        IERC721 studentERC721 = IERC721(studentERC721Address);\n\n        // Generating the data that needs to be signed to claim a token on student contract.\n        // We hash the concatenation of the evaluator address, the sender's address, and the ERC721 address\n        bytes32 dataToSign = keccak256(abi.encodePacked(address(this), tx.origin, studentERC721Address));\n\n        // Has sender signed the correct piece of data, and extract the address\n        address signatureSender = extractAddress(dataToSign , _theRequiredSignature);\n\n        // Broadcaster is signer \n        require(signatureSender == tx.origin, \"signature does not match tx originator\");\n\n        // Checking that we own no NFT before claiming\n        uint256 evaluatorBalancePreMint = studentERC721.balanceOf(address(this));\n\n        // Claim a token through minter\n        uint256 newToken = studentExerciceSolution[msg.sender].mintATokenForMeWithASignature(_theRequiredSignature);\n\n        // Checking balance post minting\n        uint256 evaluatorBalancePostMint = studentERC721.balanceOf(address(this));\n\n        // Check that token 1 belongs to the Evaluator\n        require(evaluatorBalancePostMint == evaluatorBalancePreMint + 1, \"Did not receive one token\");\n        require(studentERC721.ownerOf(newToken) == address(this), \"New token does not belong to meeee\");\n\n        // Incrementing next value store rank\n        nextValueStoreRank += 1;\n        if (nextValueStoreRank >= 20)\n        {\n            nextValueStoreRank = 0;\n        }\n        // Crediting points\n        if (!exerciceProgression[msg.sender][5])\n        {\n            exerciceProgression[msg.sender][5] = true;\n            // ERC721 points\n            TDERC20.distributeTokens(msg.sender, 3);\n        }\n    }\n\n    function ex6_deployBouncerProxyAndWhitelistYourself(address payable myBouncerProxy)\n    public\n    {\n        // Build bouncer proxy\n        BouncerProxy localBouncer = BouncerProxy(myBouncerProxy);\n        // Retrieving your contract code hash\n        bytes32 codeHash;\n        assembly { codeHash := extcodehash(myBouncerProxy) }\n        // Checking it is the correct code hash\n        bytes32 referenceCodeHash;\n        address _referenceBouncerProxy = referenceBouncerProxy;\n        assembly { referenceCodeHash := extcodehash(_referenceBouncerProxy) }\n\n        require(referenceCodeHash == codeHash, \"Deployed code is different from reference\");\n\n        // Check if sender is whitelisted\n        require(localBouncer.whitelist(tx.origin), \"Tx originator is not whitelisted\");\n        // For fun, whitelist sender also\n        require(localBouncer.whitelist(msg.sender), \"Message sender is not whitelisted\");\n\n        // Crediting points\n        if (!exerciceProgression[msg.sender][6])\n        {\n            exerciceProgression[msg.sender][6] = true;\n            // ERC721 points\n            TDERC20.distributeTokens(msg.sender, 3);\n        }\n    }\n\n    function ex7_useBouncerProxyToCallEvaluator()\n    public\n    {\n    \n        // Retrieving caller contract code hash\n        bytes32 codeHash;\n        address _sender = msg.sender;\n        assembly { codeHash := extcodehash(_sender) }\n        // Checking it is the correct code hash\n        bytes32 referenceCodeHash;\n        address _referenceBouncerProxy = referenceBouncerProxy;\n        assembly { referenceCodeHash := extcodehash(_referenceBouncerProxy) }\n\n        require(referenceCodeHash == codeHash, \"Deployed code is different from reference\");\n\n        // Build bouncer proxy\n        BouncerProxy localBouncer = BouncerProxy(msg.sender);\n        // Check if sender is whitelisted\n        require(!localBouncer.whitelist(tx.origin), \"Tx originator is whitelisted\");\n\n        // Crediting points\n        if (!exerciceProgression[msg.sender][7])\n        {\n            exerciceProgression[msg.sender][7] = true;\n            // ERC721 points\n            TDERC20.distributeTokens(msg.sender, 4);\n        }\n    }\n\n    modifier onlyTeachers() \n    {\n\n        require(TDERC20.teachers(msg.sender));\n        _;\n    }\n\n    /* Internal functions and modifiers */ \n    function submitExercice(IExerciceSolution studentExercice)\n    public\n    {\n        // Checking this contract was not used by another group before\n        require(!hasBeenPaired[address(studentExercice)]);\n\n        // Assigning passed ERC20 as student ERC20\n        studentExerciceSolution[msg.sender] = studentExercice;\n        hasBeenPaired[address(studentExercice)] = true;\n\n        if (!exerciceProgression[msg.sender][0])\n        {\n            exerciceProgression[msg.sender][0] = true;\n            // setup points\n            TDERC20.distributeTokens(msg.sender, 2);\n        }\n    }\n\n    function setRandomBytes32AndSignature(bytes32[20] memory _randomData, bytes[20] memory _signatures) \n    public \n    onlyTeachers\n    {\n        randomBytes32ToSign = _randomData;\n        associatedSignatures = _signatures;\n        nextValueStoreRank = 0;\n        for (uint i = 0; i < 20; i++)\n        {\n            emit newRandomBytes32AndSig(randomBytes32ToSign[i], associatedSignatures[i]);\n        }\n    }\n\n    function _compareStrings(string memory a, string memory b) \n    internal \n    pure \n    returns (bool) \n    {\n        return (keccak256(abi.encodePacked((a))) == keccak256(abi.encodePacked((b))));\n    }\n\n    function bytes32ToString(bytes32 _bytes32) \n    public \n    pure returns (string memory) \n    {\n        uint8 i = 0;\n        while(i < 32 && _bytes32[i] != 0) {\n            i++;\n        }\n        bytes memory bytesArray = new bytes(i);\n        for (i = 0; i < 32 && _bytes32[i] != 0; i++) {\n            bytesArray[i] = _bytes32[i];\n        }\n        return string(bytesArray);\n    }\n\n    function extractAddress(bytes32 _hash, bytes memory _signature) \n    internal \n    pure \n    returns (address) {\n        bytes32 r;\n        bytes32 s;\n        uint8 v;\n        // Check the signature length\n        if (_signature.length != 65) {\n            return address(0);\n        }\n        // Divide the signature in r, s and v variables\n        // ecrecover takes the signature parameters, and the only way to get them\n        // currently is to use assembly.\n        // solium-disable-next-line security/no-inline-assembly\n        assembly {\n            r := mload(add(_signature, 32))\n            s := mload(add(_signature, 64))\n            v := byte(0, mload(add(_signature, 96)))\n        }\n        // Version of signature should be 27 or 28, but 0 and 1 are also possible versions\n        if (v < 27) {\n            v += 27;\n        }\n        // If the version is correct return the signer address\n        if (v != 27 && v != 28) {\n            return address(0);\n        } else {\n            // solium-disable-next-line arg-overflow\n            return ecrecover(keccak256(\n                abi.encodePacked(\"\\x19Ethereum Signed Message:\\n32\", _hash)\n                ), v, r, s);\n        }\n    }\n}\n",
  "sourcePath": "/Users/henrilieutaud/Documents/Mes documents/ESILV/Workshop/signatures-101/contracts/Evaluator.sol",
  "compiler": {
    "name": "solc",
    "version": "0.6.2+commit.bacdbe57.Emscripten.clang"
  },
  "schemaVersion": "3.3.4",
  "updatedAt": "2021-12-17T14:33:35.158Z",
  "networkType": "ethereum",
  "devdoc": {
    "methods": {}
  },
  "userdoc": {
    "methods": {}
  }
}