{
  "contractName": "Evaluator",
  "abi": [
    {
      "inputs": [
        {
          "internalType": "contract ERC20TD",
          "name": "_TDERC20",
          "type": "address"
        },
        {
          "internalType": "address payable",
          "name": "_referenceBouncerProxy",
          "type": "address"
        }
      ],
      "stateMutability": "nonpayable",
      "type": "constructor"
    },
    {
      "anonymous": false,
      "inputs": [
        {
          "indexed": false,
          "internalType": "address",
          "name": "_account",
          "type": "address"
        },
        {
          "indexed": false,
          "internalType": "bool",
          "name": "_value",
          "type": "bool"
        }
      ],
      "name": "UpdateWhitelist",
      "type": "event"
    },
    {
      "anonymous": false,
      "inputs": [
        {
          "indexed": false,
          "internalType": "address",
          "name": "erc20Address",
          "type": "address"
        },
        {
          "indexed": false,
          "internalType": "address",
          "name": "referenceBouncerProxy",
          "type": "address"
        }
      ],
      "name": "constructedCorrectly",
      "type": "event"
    },
    {
      "anonymous": false,
      "inputs": [
        {
          "indexed": false,
          "internalType": "bytes32",
          "name": "data",
          "type": "bytes32"
        },
        {
          "indexed": false,
          "internalType": "bytes",
          "name": "sig",
          "type": "bytes"
        }
      ],
      "name": "newRandomBytes32AndSig",
      "type": "event"
    },
    {
      "stateMutability": "payable",
      "type": "fallback",
      "payable": true
    },
    {
      "inputs": [
        {
          "internalType": "address",
          "name": "",
          "type": "address"
        },
        {
          "internalType": "uint256",
          "name": "",
          "type": "uint256"
        }
      ],
      "name": "exerciceProgression",
      "outputs": [
        {
          "internalType": "bool",
          "name": "",
          "type": "bool"
        }
      ],
      "stateMutability": "view",
      "type": "function",
      "constant": true
    },
    {
      "inputs": [
        {
          "internalType": "address",
          "name": "",
          "type": "address"
        }
      ],
      "name": "hasBeenPaired",
      "outputs": [
        {
          "internalType": "bool",
          "name": "",
          "type": "bool"
        }
      ],
      "stateMutability": "view",
      "type": "function",
      "constant": true
    },
    {
      "inputs": [],
      "name": "nextValueStoreRank",
      "outputs": [
        {
          "internalType": "uint256",
          "name": "",
          "type": "uint256"
        }
      ],
      "stateMutability": "view",
      "type": "function",
      "constant": true
    },
    {
      "inputs": [],
      "name": "referenceBouncerProxy",
      "outputs": [
        {
          "internalType": "address payable",
          "name": "",
          "type": "address"
        }
      ],
      "stateMutability": "view",
      "type": "function",
      "constant": true
    },
    {
      "inputs": [
        {
          "internalType": "bytes32",
          "name": "",
          "type": "bytes32"
        }
      ],
      "name": "signedBytes32",
      "outputs": [
        {
          "internalType": "bool",
          "name": "",
          "type": "bool"
        }
      ],
      "stateMutability": "view",
      "type": "function",
      "constant": true
    },
    {
      "inputs": [
        {
          "internalType": "address",
          "name": "",
          "type": "address"
        }
      ],
      "name": "studentExerciceSolution",
      "outputs": [
        {
          "internalType": "contract IExerciceSolution",
          "name": "",
          "type": "address"
        }
      ],
      "stateMutability": "view",
      "type": "function",
      "constant": true
    },
    {
      "inputs": [
        {
          "internalType": "address",
          "name": "",
          "type": "address"
        }
      ],
      "name": "teachers",
      "outputs": [
        {
          "internalType": "bool",
          "name": "",
          "type": "bool"
        }
      ],
      "stateMutability": "view",
      "type": "function",
      "constant": true
    },
    {
      "stateMutability": "payable",
      "type": "receive",
      "payable": true
    },
    {
      "inputs": [],
      "name": "ex1_testERC721",
      "outputs": [],
      "stateMutability": "nonpayable",
      "type": "function"
    },
    {
      "inputs": [
        {
          "internalType": "bytes",
          "name": "_signature",
          "type": "bytes"
        }
      ],
      "name": "ex2_generateASignature",
      "outputs": [],
      "stateMutability": "nonpayable",
      "type": "function"
    },
    {
      "inputs": [],
      "name": "ex3_extractAddressFromSignature",
      "outputs": [],
      "stateMutability": "nonpayable",
      "type": "function"
    },
    {
      "inputs": [
        {
          "internalType": "bytes32",
          "name": "_aBytes32YouChose",
          "type": "bytes32"
        },
        {
          "internalType": "bytes",
          "name": "_theAssociatedSignature",
          "type": "bytes"
        }
      ],
      "name": "ex4_manageWhiteListWithSignature",
      "outputs": [],
      "stateMutability": "nonpayable",
      "type": "function"
    },
    {
      "inputs": [
        {
          "internalType": "bytes",
          "name": "_theRequiredSignature",
          "type": "bytes"
        }
      ],
      "name": "ex5_mintATokenWithASpecificSignature",
      "outputs": [],
      "stateMutability": "nonpayable",
      "type": "function"
    },
    {
      "inputs": [
        {
          "internalType": "address payable",
          "name": "myBouncerProxy",
          "type": "address"
        }
      ],
      "name": "ex6_deployBouncerProxyAndWhitelistYourself",
      "outputs": [],
      "stateMutability": "nonpayable",
      "type": "function"
    },
    {
      "inputs": [],
      "name": "ex7_useBouncerProxyToCallEvaluator",
      "outputs": [],
      "stateMutability": "nonpayable",
      "type": "function"
    },
    {
      "inputs": [],
      "name": "ex8_allInOne",
      "outputs": [],
      "stateMutability": "nonpayable",
      "type": "function"
    },
    {
      "inputs": [
        {
          "internalType": "contract IExerciceSolution",
          "name": "studentExercice",
          "type": "address"
        }
      ],
      "name": "submitExercice",
      "outputs": [],
      "stateMutability": "nonpayable",
      "type": "function"
    },
    {
      "inputs": [
        {
          "internalType": "bytes32[20]",
          "name": "_randomData",
          "type": "bytes32[20]"
        },
        {
          "internalType": "bytes[20]",
          "name": "_signatures",
          "type": "bytes[20]"
        }
      ],
      "name": "setRandomBytes32AndSignature",
      "outputs": [],
      "stateMutability": "nonpayable",
      "type": "function"
    },
    {
      "inputs": [
        {
          "internalType": "bytes32",
          "name": "_bytes32",
          "type": "bytes32"
        }
      ],
      "name": "bytes32ToString",
      "outputs": [
        {
          "internalType": "string",
          "name": "",
          "type": "string"
        }
      ],
      "stateMutability": "pure",
      "type": "function",
      "constant": true
    },
    {
      "inputs": [
        {
          "internalType": "bytes32",
          "name": "_hash",
          "type": "bytes32"
        },
        {
          "internalType": "bytes",
          "name": "_signature",
          "type": "bytes"
        }
      ],
      "name": "extractAddressExternal",
      "outputs": [
        {
          "internalType": "address",
          "name": "",
          "type": "address"
        }
      ],
      "stateMutability": "pure",
      "type": "function",
      "constant": true
    }
  ],
  "bytecode": "0x60806040523480156200001157600080fd5b50604051620052453803806200524583398181016040526200003791908101906200016e565b81600160006101000a81548173ffffffffffffffffffffffffffffffffffffffff021916908373ffffffffffffffffffffffffffffffffffffffff16021790555080602f60006101000a81548173ffffffffffffffffffffffffffffffffffffffff021916908373ffffffffffffffffffffffffffffffffffffffff1602179055507faec105056259e6e944bb71151b9922f56b566fb88054f082eef397db7ccddf2a600160009054906101000a900473ffffffffffffffffffffffffffffffffffffffff16602f60009054906101000a900473ffffffffffffffffffffffffffffffffffffffff1660405162000130929190620001d1565b60405180910390a15050620002ca565b600081519050620001518162000296565b92915050565b6000815190506200016881620002b0565b92915050565b600080604083850312156200018257600080fd5b6000620001928582860162000157565b9250506020620001a58582860162000140565b9150509250929050565b620001ba816200025a565b82525050565b620001cb81620001fe565b82525050565b6000604082019050620001e86000830185620001c0565b620001f76020830184620001af565b9392505050565b60006200020b826200023a565b9050919050565b60006200021f826200023a565b9050919050565b60006200023382620001fe565b9050919050565b600073ffffffffffffffffffffffffffffffffffffffff82169050919050565b600062000267826200026e565b9050919050565b60006200027b8262000282565b9050919050565b60006200028f826200023a565b9050919050565b620002a18162000212565b8114620002ad57600080fd5b50565b620002bb8162000226565b8114620002c757600080fd5b50565b614f6b80620002da6000396000f3fe6080604052600436106101185760003560e01c80638df02ce0116100a0578063d6d1de7811610064578063d6d1de7814610391578063dede624c146103ba578063f0a47f78146103d1578063f4fdbb881461040e578063fff31a2f1461044b5761011f565b80638df02ce0146102ae5780639201de55146102eb578063b2c8c14c14610328578063b3c0faae14610351578063bd144546146103685761011f565b806323b88aba116100e757806323b88aba146101c75780632e64c500146101f25780633027f7a01461022f57806339119dce1461024657806342acd0ab146102715761011f565b8063026c4e541461012157806304cc50de1461014a5780630b961254146101615780632236d3531461019e5761011f565b3661011f57005b005b34801561012d57600080fd5b5061014860048036036101439190810190613d17565b610474565b005b34801561015657600080fd5b5061015f610ad6565b005b34801561016d57600080fd5b5061018860048036036101839190810190613b0c565b610f30565b60405161019591906148e8565b60405180910390f35b3480156101aa57600080fd5b506101c560048036036101c09190810190613d58565b610f63565b005b3480156101d357600080fd5b506101dc6111ef565b6040516101e99190614739565b60405180910390f35b3480156101fe57600080fd5b5061021960048036036102149190810190613b87565b611215565b6040516102269190614806565b60405180910390f35b34801561023b57600080fd5b50610244611244565b005b34801561025257600080fd5b5061025b6114ef565b6040516102689190614ba5565b60405180910390f35b34801561027d57600080fd5b5061029860048036036102939190810190613c42565b6114f5565b6040516102a59190614806565b60405180910390f35b3480156102ba57600080fd5b506102d560048036036102d09190810190613c6b565b611515565b6040516102e29190614703565b60405180910390f35b3480156102f757600080fd5b50610312600480360361030d9190810190613c42565b61156e565b60405161031f9190614903565b60405180910390f35b34801561033457600080fd5b5061034f600480360361034a9190810190613bc3565b6116cb565b005b34801561035d57600080fd5b50610366611820565b005b34801561037457600080fd5b5061038f600480360361038a9190810190613d17565b611be9565b005b34801561039d57600080fd5b506103b860048036036103b39190810190613b5e565b611dec565b005b3480156103c657600080fd5b506103cf61215a565b005b3480156103dd57600080fd5b506103f860048036036103f39190810190613b0c565b612df0565b6040516104059190614806565b60405180910390f35b34801561041a57600080fd5b5061043560048036036104309190810190613b0c565b612e10565b6040516104429190614806565b60405180910390f35b34801561045757600080fd5b50610472600480360361046d9190810190613cc3565b612e30565b005b6000600360003373ffffffffffffffffffffffffffffffffffffffff1673ffffffffffffffffffffffffffffffffffffffff16815260200190815260200160002060009054906101000a900473ffffffffffffffffffffffffffffffffffffffff1673ffffffffffffffffffffffffffffffffffffffff1663574490cd6040518163ffffffff1660e01b8152600401602060405180830381600087803b15801561051d57600080fd5b505af1158015610531573d6000803e3d6000fd5b505050506040513d601f19601f820116820180604052506105559190810190613b35565b905060008190506000303284604051602001610573939291906146a0565b604051602081830303815290604052805190602001209050600061059782866135c3565b90503273ffffffffffffffffffffffffffffffffffffffff168173ffffffffffffffffffffffffffffffffffffffff1614610607576040517f08c379a00000000000000000000000000000000000000000000000000000000081526004016105fe90614b65565b60405180910390fd5b60008373ffffffffffffffffffffffffffffffffffffffff166370a08231306040518263ffffffff1660e01b8152600401610642919061471e565b60206040518083038186803b15801561065a57600080fd5b505afa15801561066e573d6000803e3d6000fd5b505050506040513d601f19601f820116820180604052506106929190810190613d81565b90506000600360003373ffffffffffffffffffffffffffffffffffffffff1673ffffffffffffffffffffffffffffffffffffffff16815260200190815260200160002060009054906101000a900473ffffffffffffffffffffffffffffffffffffffff1673ffffffffffffffffffffffffffffffffffffffff16639a9a291f886040518263ffffffff1660e01b815260040161072e91906148c6565b602060405180830381600087803b15801561074857600080fd5b505af115801561075c573d6000803e3d6000fd5b505050506040513d601f19601f820116820180604052506107809190810190613d81565b905060008573ffffffffffffffffffffffffffffffffffffffff166370a08231306040518263ffffffff1660e01b81526004016107bd919061471e565b60206040518083038186803b1580156107d557600080fd5b505afa1580156107e9573d6000803e3d6000fd5b505050506040513d601f19601f8201168201806040525061080d9190810190613d81565b9050600183018114610854576040517f08c379a000000000000000000000000000000000000000000000000000000000815260040161084b90614b85565b60405180910390fd5b3073ffffffffffffffffffffffffffffffffffffffff168673ffffffffffffffffffffffffffffffffffffffff16636352211e846040518263ffffffff1660e01b81526004016108a49190614ba5565b60206040518083038186803b1580156108bc57600080fd5b505afa1580156108d0573d6000803e3d6000fd5b505050506040513d601f19601f820116820180604052506108f49190810190613b35565b73ffffffffffffffffffffffffffffffffffffffff161461094a576040517f08c379a000000000000000000000000000000000000000000000000000000000815260040161094190614a25565b60405180910390fd5b6001602d600082825401925050819055506014602d541061096e576000602d819055505b600260003373ffffffffffffffffffffffffffffffffffffffff1673ffffffffffffffffffffffffffffffffffffffff16815260200190815260200160002060006005815260200190815260200160002060009054906101000a900460ff16610acc576001600260003373ffffffffffffffffffffffffffffffffffffffff1673ffffffffffffffffffffffffffffffffffffffff16815260200190815260200160002060006005815260200190815260200160002060006101000a81548160ff021916908315150217905550600160009054906101000a900473ffffffffffffffffffffffffffffffffffffffff1673ffffffffffffffffffffffffffffffffffffffff1663158a49883360036040518363ffffffff1660e01b8152600401610a999291906147b4565b600060405180830381600087803b158015610ab357600080fd5b505af1158015610ac7573d6000803e3d6000fd5b505050505b5050505050505050565b6000600160009054906101000a900473ffffffffffffffffffffffffffffffffffffffff1673ffffffffffffffffffffffffffffffffffffffff166370a08231336040518263ffffffff1660e01b8152600401610b33919061471e565b60206040518083038186803b158015610b4b57600080fd5b505afa158015610b5f573d6000803e3d6000fd5b505050506040513d601f19601f82011682018060405250610b839190810190613d81565b905060008114610bc8576040517f08c379a0000000000000000000000000000000000000000000000000000000008152600401610bbf906149c5565b60405180910390fd5b60003390508073ffffffffffffffffffffffffffffffffffffffff166359b4726c6040518163ffffffff1660e01b8152600401600060405180830381600087803b158015610c1557600080fd5b505af1158015610c29573d6000803e3d6000fd5b505050506000600160009054906101000a900473ffffffffffffffffffffffffffffffffffffffff1673ffffffffffffffffffffffffffffffffffffffff166370a08231336040518263ffffffff1660e01b8152600401610c8a919061471e565b60206040518083038186803b158015610ca257600080fd5b505afa158015610cb6573d6000803e3d6000fd5b505050506040513d601f19601f82011682018060405250610cda9190810190613d81565b90506000600160009054906101000a900473ffffffffffffffffffffffffffffffffffffffff1673ffffffffffffffffffffffffffffffffffffffff1663313ce5676040518163ffffffff1660e01b815260040160206040518083038186803b158015610d4657600080fd5b505afa158015610d5a573d6000803e3d6000fd5b505050506040513d601f19601f82011682018060405250610d7e9190810190613daa565b60ff169050601081600a0a02821015610dcc576040517f08c379a0000000000000000000000000000000000000000000000000000000008152600401610dc390614aa5565b60405180910390fd5b600260003373ffffffffffffffffffffffffffffffffffffffff1673ffffffffffffffffffffffffffffffffffffffff16815260200190815260200160002060006008815260200190815260200160002060009054906101000a900460ff16610f2a576001600260003373ffffffffffffffffffffffffffffffffffffffff1673ffffffffffffffffffffffffffffffffffffffff16815260200190815260200160002060006008815260200190815260200160002060006101000a81548160ff021916908315150217905550600160009054906101000a900473ffffffffffffffffffffffffffffffffffffffff1673ffffffffffffffffffffffffffffffffffffffff1663158a49883360026040518363ffffffff1660e01b8152600401610ef792919061478b565b600060405180830381600087803b158015610f1157600080fd5b505af1158015610f25573d6000803e3d6000fd5b505050505b50505050565b60036020528060005260406000206000915054906101000a900473ffffffffffffffffffffffffffffffffffffffff1681565b600460008273ffffffffffffffffffffffffffffffffffffffff1673ffffffffffffffffffffffffffffffffffffffff16815260200190815260200160002060009054906101000a900460ff1615610fba57600080fd5b80600360003373ffffffffffffffffffffffffffffffffffffffff1673ffffffffffffffffffffffffffffffffffffffff16815260200190815260200160002060006101000a81548173ffffffffffffffffffffffffffffffffffffffff021916908373ffffffffffffffffffffffffffffffffffffffff1602179055506001600460008373ffffffffffffffffffffffffffffffffffffffff1673ffffffffffffffffffffffffffffffffffffffff16815260200190815260200160002060006101000a81548160ff021916908315150217905550600260003373ffffffffffffffffffffffffffffffffffffffff1673ffffffffffffffffffffffffffffffffffffffff168152602001908152602001600020600080815260200190815260200160002060009054906101000a900460ff166111ec576001600260003373ffffffffffffffffffffffffffffffffffffffff1673ffffffffffffffffffffffffffffffffffffffff168152602001908152602001600020600080815260200190815260200160002060006101000a81548160ff021916908315150217905550600160009054906101000a900473ffffffffffffffffffffffffffffffffffffffff1673ffffffffffffffffffffffffffffffffffffffff1663158a49883360026040518363ffffffff1660e01b81526004016111b992919061478b565b600060405180830381600087803b1580156111d357600080fd5b505af11580156111e7573d6000803e3d6000fd5b505050505b50565b602f60009054906101000a900473ffffffffffffffffffffffffffffffffffffffff1681565b60026020528160005260406000206020528060005260406000206000915091509054906101000a900460ff1681565b600080339050803f9150600080602f60009054906101000a900473ffffffffffffffffffffffffffffffffffffffff169050803f91508382146112bc576040517f08c379a00000000000000000000000000000000000000000000000000000000081526004016112b390614ae5565b60405180910390fd5b60003390508073ffffffffffffffffffffffffffffffffffffffff16639b19251a326040518263ffffffff1660e01b81526004016112fa919061471e565b60206040518083038186803b15801561131257600080fd5b505afa158015611326573d6000803e3d6000fd5b505050506040513d601f19601f8201168201806040525061134a9190810190613c19565b1561138a576040517f08c379a000000000000000000000000000000000000000000000000000000000815260040161138190614a85565b60405180910390fd5b600260003373ffffffffffffffffffffffffffffffffffffffff1673ffffffffffffffffffffffffffffffffffffffff16815260200190815260200160002060006007815260200190815260200160002060009054906101000a900460ff166114e8576001600260003373ffffffffffffffffffffffffffffffffffffffff1673ffffffffffffffffffffffffffffffffffffffff16815260200190815260200160002060006007815260200190815260200160002060006101000a81548160ff021916908315150217905550600160009054906101000a900473ffffffffffffffffffffffffffffffffffffffff1673ffffffffffffffffffffffffffffffffffffffff1663158a49883360046040518363ffffffff1660e01b81526004016114b59291906147dd565b600060405180830381600087803b1580156114cf57600080fd5b505af11580156114e3573d6000803e3d6000fd5b505050505b5050505050565b602d5481565b602e6020528060005260406000206000915054906101000a900460ff1681565b60006115658484848080601f016020809104026020016040519081016040528093929190818152602001838380828437600081840152601f19601f820116905080830192505050505050506135c3565b90509392505050565b606060008090505b60208160ff161080156115c15750600060f81b838260ff166020811061159857fe5b1a60f81b7effffffffffffffffffffffffffffffffffffffffffffffffffffffffffffff191614155b156115d3578080600101915050611576565b60608160ff166040519080825280601f01601f19166020018201604052801561160b5781602001600182028038833980820191505090505b509050600091505b60208260ff1610801561165e5750600060f81b848360ff166020811061163557fe5b1a60f81b7effffffffffffffffffffffffffffffffffffffffffffffffffffffffffffff191614155b156116c157838260ff166020811061167257fe5b1a60f81b818360ff168151811061168557fe5b60200101907effffffffffffffffffffffffffffffffffffffffffffffffffffffffffffff1916908160001a9053508180600101925050611613565b8092505050919050565b600160009054906101000a900473ffffffffffffffffffffffffffffffffffffffff1673ffffffffffffffffffffffffffffffffffffffff1663f0a47f78336040518263ffffffff1660e01b8152600401611726919061471e565b60206040518083038186803b15801561173e57600080fd5b505afa158015611752573d6000803e3d6000fd5b505050506040513d601f19601f820116820180604052506117769190810190613c19565b61177f57600080fd5b8160059060146117909291906136b3565b508060199060146117a29291906136f3565b506000602d8190555060008090505b601481101561181b577fc396a7839f15bca18b63cda01cf4c42871d939b4f58995afbd1bd99c1b7d5912600582601481106117e857fe5b0154601983601481106117f757fe5b01604051611806929190614851565b60405180910390a180806001019150506117b1565b505050565b60006118e46005602d546014811061183457fe5b01546019602d546014811061184557fe5b018054600181600116156101000203166002900480601f0160208091040260200160405190810160405280929190818152602001828054600181600116156101000203166002900480156118da5780601f106118af576101008083540402835291602001916118da565b820191906000526020600020905b8154815290600101906020018083116118bd57829003601f168201915b50505050506135c3565b90506000600360003373ffffffffffffffffffffffffffffffffffffffff1673ffffffffffffffffffffffffffffffffffffffff16815260200190815260200160002060009054906101000a900473ffffffffffffffffffffffffffffffffffffffff1673ffffffffffffffffffffffffffffffffffffffff166379d336066005602d546014811061197257fe5b01546019602d546014811061198357fe5b016040518363ffffffff1660e01b81526004016119a1929190614851565b602060405180830381600087803b1580156119bb57600080fd5b505af11580156119cf573d6000803e3d6000fd5b505050506040513d601f19601f820116820180604052506119f39190810190613b35565b90508073ffffffffffffffffffffffffffffffffffffffff168273ffffffffffffffffffffffffffffffffffffffff1614611a63576040517f08c379a0000000000000000000000000000000000000000000000000000000008152600401611a5a90614b25565b60405180910390fd5b6001602d600082825401925050819055506014602d5410611a87576000602d819055505b600260003373ffffffffffffffffffffffffffffffffffffffff1673ffffffffffffffffffffffffffffffffffffffff16815260200190815260200160002060006003815260200190815260200160002060009054906101000a900460ff16611be5576001600260003373ffffffffffffffffffffffffffffffffffffffff1673ffffffffffffffffffffffffffffffffffffffff16815260200190815260200160002060006003815260200190815260200160002060006101000a81548160ff021916908315150217905550600160009054906101000a900473ffffffffffffffffffffffffffffffffffffffff1673ffffffffffffffffffffffffffffffffffffffff1663158a49883360026040518363ffffffff1660e01b8152600401611bb292919061478b565b600060405180830381600087803b158015611bcc57600080fd5b505af1158015611be0573d6000803e3d6000fd5b505050505b5050565b60007b596f75206e65656420746f207369676e207468697320737472696e6760001b90506000611c1982846135c3565b90508073ffffffffffffffffffffffffffffffffffffffff163273ffffffffffffffffffffffffffffffffffffffff1614611c89576040517f08c379a0000000000000000000000000000000000000000000000000000000008152600401611c8090614b65565b60405180910390fd5b600260003373ffffffffffffffffffffffffffffffffffffffff1673ffffffffffffffffffffffffffffffffffffffff16815260200190815260200160002060006002815260200190815260200160002060009054906101000a900460ff16611de7576001600260003373ffffffffffffffffffffffffffffffffffffffff1673ffffffffffffffffffffffffffffffffffffffff16815260200190815260200160002060006002815260200190815260200160002060006101000a81548160ff021916908315150217905550600160009054906101000a900473ffffffffffffffffffffffffffffffffffffffff1673ffffffffffffffffffffffffffffffffffffffff1663158a49883360026040518363ffffffff1660e01b8152600401611db492919061478b565b600060405180830381600087803b158015611dce57600080fd5b505af1158015611de2573d6000803e3d6000fd5b505050505b505050565b60008190506000823f9050600080602f60009054906101000a900473ffffffffffffffffffffffffffffffffffffffff169050803f9150828214611e65576040517f08c379a0000000000000000000000000000000000000000000000000000000008152600401611e5c90614ae5565b60405180910390fd5b8373ffffffffffffffffffffffffffffffffffffffff16639b19251a326040518263ffffffff1660e01b8152600401611e9e919061471e565b60206040518083038186803b158015611eb657600080fd5b505afa158015611eca573d6000803e3d6000fd5b505050506040513d601f19601f82011682018060405250611eee9190810190613c19565b611f2d576040517f08c379a0000000000000000000000000000000000000000000000000000000008152600401611f2490614985565b60405180910390fd5b8373ffffffffffffffffffffffffffffffffffffffff16639b19251a336040518263ffffffff1660e01b8152600401611f66919061471e565b60206040518083038186803b158015611f7e57600080fd5b505afa158015611f92573d6000803e3d6000fd5b505050506040513d601f19601f82011682018060405250611fb69190810190613c19565b611ff5576040517f08c379a0000000000000000000000000000000000000000000000000000000008152600401611fec90614945565b60405180910390fd5b600260003373ffffffffffffffffffffffffffffffffffffffff1673ffffffffffffffffffffffffffffffffffffffff16815260200190815260200160002060006006815260200190815260200160002060009054906101000a900460ff16612153576001600260003373ffffffffffffffffffffffffffffffffffffffff1673ffffffffffffffffffffffffffffffffffffffff16815260200190815260200160002060006006815260200190815260200160002060006101000a81548160ff021916908315150217905550600160009054906101000a900473ffffffffffffffffffffffffffffffffffffffff1673ffffffffffffffffffffffffffffffffffffffff1663158a49883360036040518363ffffffff1660e01b81526004016121209291906147b4565b600060405180830381600087803b15801561213a57600080fd5b505af115801561214e573d6000803e3d6000fd5b505050505b5050505050565b600260003373ffffffffffffffffffffffffffffffffffffffff1673ffffffffffffffffffffffffffffffffffffffff168152602001908152602001600020600080815260200190815260200160002060009054906101000a900460ff166121f7576040517f08c379a00000000000000000000000000000000000000000000000000000000081526004016121ee90614b45565b60405180910390fd5b6000600360003373ffffffffffffffffffffffffffffffffffffffff1673ffffffffffffffffffffffffffffffffffffffff16815260200190815260200160002060009054906101000a900473ffffffffffffffffffffffffffffffffffffffff1673ffffffffffffffffffffffffffffffffffffffff1663574490cd6040518163ffffffff1660e01b8152600401602060405180830381600087803b1580156122a057600080fd5b505af11580156122b4573d6000803e3d6000fd5b505050506040513d601f19601f820116820180604052506122d89190810190613b35565b90506000819050600360003373ffffffffffffffffffffffffffffffffffffffff1673ffffffffffffffffffffffffffffffffffffffff16815260200190815260200160002060009054906101000a900473ffffffffffffffffffffffffffffffffffffffff1673ffffffffffffffffffffffffffffffffffffffff168273ffffffffffffffffffffffffffffffffffffffff1614156123ad576040517f08c379a00000000000000000000000000000000000000000000000000000000081526004016123a490614a65565b60405180910390fd5b60008173ffffffffffffffffffffffffffffffffffffffff166370a08231306040518263ffffffff1660e01b81526004016123e8919061471e565b60206040518083038186803b15801561240057600080fd5b505afa158015612414573d6000803e3d6000fd5b505050506040513d601f19601f820116820180604052506124389190810190613d81565b905060008273ffffffffffffffffffffffffffffffffffffffff166370a08231600360003373ffffffffffffffffffffffffffffffffffffffff1673ffffffffffffffffffffffffffffffffffffffff16815260200190815260200160002060009054906101000a900473ffffffffffffffffffffffffffffffffffffffff166040518263ffffffff1660e01b81526004016124d49190614703565b60206040518083038186803b1580156124ec57600080fd5b505afa158015612500573d6000803e3d6000fd5b505050506040513d601f19601f820116820180604052506125249190810190613d81565b90506000600360003373ffffffffffffffffffffffffffffffffffffffff1673ffffffffffffffffffffffffffffffffffffffff16815260200190815260200160002060009054906101000a900473ffffffffffffffffffffffffffffffffffffffff1673ffffffffffffffffffffffffffffffffffffffff1663ac4fec216040518163ffffffff1660e01b8152600401602060405180830381600087803b1580156125cf57600080fd5b505af11580156125e3573d6000803e3d6000fd5b505050506040513d601f19601f820116820180604052506126079190810190613d81565b905060008473ffffffffffffffffffffffffffffffffffffffff166370a08231306040518263ffffffff1660e01b8152600401612644919061471e565b60206040518083038186803b15801561265c57600080fd5b505afa158015612670573d6000803e3d6000fd5b505050506040513d601f19601f820116820180604052506126949190810190613d81565b905060008573ffffffffffffffffffffffffffffffffffffffff166370a08231600360003373ffffffffffffffffffffffffffffffffffffffff1673ffffffffffffffffffffffffffffffffffffffff16815260200190815260200160002060009054906101000a900473ffffffffffffffffffffffffffffffffffffffff166040518263ffffffff1660e01b81526004016127309190614703565b60206040518083038186803b15801561274857600080fd5b505afa15801561275c573d6000803e3d6000fd5b505050506040513d601f19601f820116820180604052506127809190810190613d81565b90506001850182146127c7576040517f08c379a00000000000000000000000000000000000000000000000000000000081526004016127be90614b85565b60405180910390fd5b3073ffffffffffffffffffffffffffffffffffffffff168673ffffffffffffffffffffffffffffffffffffffff16636352211e856040518263ffffffff1660e01b81526004016128179190614ba5565b60206040518083038186803b15801561282f57600080fd5b505afa158015612843573d6000803e3d6000fd5b505050506040513d601f19601f820116820180604052506128679190810190613b35565b73ffffffffffffffffffffffffffffffffffffffff16146128bd576040517f08c379a00000000000000000000000000000000000000000000000000000000081526004016128b490614a25565b60405180910390fd5b8381146128ff576040517f08c379a00000000000000000000000000000000000000000000000000000000081526004016128f690614965565b60405180910390fd5b60008673ffffffffffffffffffffffffffffffffffffffff166370a08231336040518263ffffffff1660e01b815260040161293a919061471e565b60206040518083038186803b15801561295257600080fd5b505afa158015612966573d6000803e3d6000fd5b505050506040513d601f19601f8201168201806040525061298a9190810190613d81565b90508673ffffffffffffffffffffffffffffffffffffffff166342842e0e3033876040518463ffffffff1660e01b81526004016129c993929190614754565b600060405180830381600087803b1580156129e357600080fd5b505af11580156129f7573d6000803e3d6000fd5b50505050858773ffffffffffffffffffffffffffffffffffffffff166370a08231306040518263ffffffff1660e01b8152600401612a35919061471e565b60206040518083038186803b158015612a4d57600080fd5b505afa158015612a61573d6000803e3d6000fd5b505050506040513d601f19601f82011682018060405250612a859190810190613d81565b14612ac5576040517f08c379a0000000000000000000000000000000000000000000000000000000008152600401612abc90614a05565b60405180910390fd5b3373ffffffffffffffffffffffffffffffffffffffff168773ffffffffffffffffffffffffffffffffffffffff16636352211e866040518263ffffffff1660e01b8152600401612b159190614ba5565b60206040518083038186803b158015612b2d57600080fd5b505afa158015612b41573d6000803e3d6000fd5b505050506040513d601f19601f82011682018060405250612b659190810190613b35565b73ffffffffffffffffffffffffffffffffffffffff1614612bbb576040517f08c379a0000000000000000000000000000000000000000000000000000000008152600401612bb2906149e5565b60405180910390fd5b600181018773ffffffffffffffffffffffffffffffffffffffff166370a08231336040518263ffffffff1660e01b8152600401612bf8919061471e565b60206040518083038186803b158015612c1057600080fd5b505afa158015612c24573d6000803e3d6000fd5b505050506040513d601f19601f82011682018060405250612c489190810190613d81565b14612c88576040517f08c379a0000000000000000000000000000000000000000000000000000000008152600401612c7f90614a45565b60405180910390fd5b600260003373ffffffffffffffffffffffffffffffffffffffff1673ffffffffffffffffffffffffffffffffffffffff16815260200190815260200160002060006001815260200190815260200160002060009054906101000a900460ff16612de6576001600260003373ffffffffffffffffffffffffffffffffffffffff1673ffffffffffffffffffffffffffffffffffffffff16815260200190815260200160002060006001815260200190815260200160002060006101000a81548160ff021916908315150217905550600160009054906101000a900473ffffffffffffffffffffffffffffffffffffffff1673ffffffffffffffffffffffffffffffffffffffff1663158a49883360026040518363ffffffff1660e01b8152600401612db392919061478b565b600060405180830381600087803b158015612dcd57600080fd5b505af1158015612de1573d6000803e3d6000fd5b505050505b5050505050505050565b60006020528060005260406000206000915054906101000a900460ff1681565b60046020528060005260406000206000915054906101000a900460ff1681565b6000612e3c83836135c3565b90503273ffffffffffffffffffffffffffffffffffffffff168173ffffffffffffffffffffffffffffffffffffffff1614612eac576040517f08c379a0000000000000000000000000000000000000000000000000000000008152600401612ea390614b65565b60405180910390fd5b600360003373ffffffffffffffffffffffffffffffffffffffff1673ffffffffffffffffffffffffffffffffffffffff16815260200190815260200160002060009054906101000a900473ffffffffffffffffffffffffffffffffffffffff1673ffffffffffffffffffffffffffffffffffffffff16639b19251a826040518263ffffffff1660e01b8152600401612f449190614703565b602060405180830381600087803b158015612f5e57600080fd5b505af1158015612f72573d6000803e3d6000fd5b505050506040513d601f19601f82011682018060405250612f969190810190613c19565b612fd5576040517f08c379a0000000000000000000000000000000000000000000000000000000008152600401612fcc90614ac5565b60405180910390fd5b600360003373ffffffffffffffffffffffffffffffffffffffff1673ffffffffffffffffffffffffffffffffffffffff16815260200190815260200160002060009054906101000a900473ffffffffffffffffffffffffffffffffffffffff1673ffffffffffffffffffffffffffffffffffffffff16637d851a1384846040518363ffffffff1660e01b815260040161306f929190614821565b602060405180830381600087803b15801561308957600080fd5b505af115801561309d573d6000803e3d6000fd5b505050506040513d601f19601f820116820180604052506130c19190810190613c19565b613100576040517f08c379a00000000000000000000000000000000000000000000000000000000081526004016130f790614925565b60405180910390fd5b60006131c46005602d546014811061311457fe5b01546019602d546014811061312557fe5b018054600181600116156101000203166002900480601f0160208091040260200160405190810160405280929190818152602001828054600181600116156101000203166002900480156131ba5780601f1061318f576101008083540402835291602001916131ba565b820191906000526020600020905b81548152906001019060200180831161319d57829003601f168201915b50505050506135c3565b9050600360003373ffffffffffffffffffffffffffffffffffffffff1673ffffffffffffffffffffffffffffffffffffffff16815260200190815260200160002060009054906101000a900473ffffffffffffffffffffffffffffffffffffffff1673ffffffffffffffffffffffffffffffffffffffff16639b19251a826040518263ffffffff1660e01b815260040161325e9190614703565b602060405180830381600087803b15801561327857600080fd5b505af115801561328c573d6000803e3d6000fd5b505050506040513d601f19601f820116820180604052506132b09190810190613c19565b156132f0576040517f08c379a00000000000000000000000000000000000000000000000000000000081526004016132e7906149a5565b60405180910390fd5b600360003373ffffffffffffffffffffffffffffffffffffffff1673ffffffffffffffffffffffffffffffffffffffff16815260200190815260200160002060009054906101000a900473ffffffffffffffffffffffffffffffffffffffff1673ffffffffffffffffffffffffffffffffffffffff16637d851a136005602d546014811061337a57fe5b01546019602d546014811061338b57fe5b016040518363ffffffff1660e01b81526004016133a9929190614851565b602060405180830381600087803b1580156133c357600080fd5b505af11580156133d7573d6000803e3d6000fd5b505050506040513d601f19601f820116820180604052506133fb9190810190613c19565b1561343b576040517f08c379a000000000000000000000000000000000000000000000000000000000815260040161343290614b05565b60405180910390fd5b6001602d600082825401925050819055506014602d541061345f576000602d819055505b600260003373ffffffffffffffffffffffffffffffffffffffff1673ffffffffffffffffffffffffffffffffffffffff16815260200190815260200160002060006004815260200190815260200160002060009054906101000a900460ff166135bd576001600260003373ffffffffffffffffffffffffffffffffffffffff1673ffffffffffffffffffffffffffffffffffffffff16815260200190815260200160002060006004815260200190815260200160002060006101000a81548160ff021916908315150217905550600160009054906101000a900473ffffffffffffffffffffffffffffffffffffffff1673ffffffffffffffffffffffffffffffffffffffff1663158a49883360026040518363ffffffff1660e01b815260040161358a92919061478b565b600060405180830381600087803b1580156135a457600080fd5b505af11580156135b8573d6000803e3d6000fd5b505050505b50505050565b60008060008060418551146135de57600093505050506136ad565b6020850151925060408501519150606085015160001a9050601b8160ff16101561360957601b810190505b601b8160ff16141580156136215750601c8160ff1614155b1561363257600093505050506136ad565b60018660405160200161364591906146dd565b604051602081830303815290604052805190602001208285856040516000815260200160405260405161367b9493929190614881565b6020604051602081039080840390855afa15801561369d573d6000803e3d6000fd5b5050506020604051035193505050505b92915050565b82601481019282156136e2579160200282015b828111156136e15782518255916020019190600101906136c6565b5b5090506136ef9190613746565b5090565b8260148101928215613735579160200282015b8281111561373457825182908051906020019061372492919061376b565b5091602001919060010190613706565b5b50905061374291906137eb565b5090565b61376891905b8082111561376457600081600090555060010161374c565b5090565b90565b828054600181600116156101000203166002900490600052602060002090601f016020900481019282601f106137ac57805160ff19168380011785556137da565b828001600101855582156137da579182015b828111156137d95782518255916020019190600101906137be565b5b5090506137e79190613817565b5090565b61381491905b808211156138105760008181613807919061383c565b506001016137f1565b5090565b90565b61383991905b8082111561383557600081600090555060010161381d565b5090565b90565b50805460018160011615610100020316600290046000825580601f106138625750613881565b601f0160209004906000526020600020908101906138809190613817565b5b50565b60008135905061389381614e94565b92915050565b6000815190506138a881614e94565b92915050565b6000813590506138bd81614eab565b92915050565b600082601f8301126138d457600080fd5b60146138e76138e282614bed565b614bc0565b915081838560208402820111156138fd57600080fd5b60005b8381101561392d578161391388826139b1565b845260208401935060208301925050600181019050613900565b5050505092915050565b600082601f83011261394857600080fd5b601461395b61395682614c0f565b614bc0565b9150818360005b8381101561399257813586016139788882613a10565b845260208401935060208301925050600181019050613962565b5050505092915050565b6000815190506139ab81614ec2565b92915050565b6000813590506139c081614ed9565b92915050565b60008083601f8401126139d857600080fd5b8235905067ffffffffffffffff8111156139f157600080fd5b602083019150836001820283011115613a0957600080fd5b9250929050565b600082601f830112613a2157600080fd5b8135613a34613a2f82614c31565b614bc0565b91508082526020830160208301858383011115613a5057600080fd5b613a5b838284614df4565b50505092915050565b600082601f830112613a7557600080fd5b8135613a88613a8382614c5d565b614bc0565b91508082526020830160208301858383011115613aa457600080fd5b613aaf838284614df4565b50505092915050565b600081359050613ac781614ef0565b92915050565b600081359050613adc81614f07565b92915050565b600081519050613af181614f07565b92915050565b600081519050613b0681614f1e565b92915050565b600060208284031215613b1e57600080fd5b6000613b2c84828501613884565b91505092915050565b600060208284031215613b4757600080fd5b6000613b5584828501613899565b91505092915050565b600060208284031215613b7057600080fd5b6000613b7e848285016138ae565b91505092915050565b60008060408385031215613b9a57600080fd5b6000613ba885828601613884565b9250506020613bb985828601613acd565b9150509250929050565b6000806102a08385031215613bd757600080fd5b6000613be5858286016138c3565b92505061028083013567ffffffffffffffff811115613c0357600080fd5b613c0f85828601613937565b9150509250929050565b600060208284031215613c2b57600080fd5b6000613c398482850161399c565b91505092915050565b600060208284031215613c5457600080fd5b6000613c62848285016139b1565b91505092915050565b600080600060408486031215613c8057600080fd5b6000613c8e868287016139b1565b935050602084013567ffffffffffffffff811115613cab57600080fd5b613cb7868287016139c6565b92509250509250925092565b60008060408385031215613cd657600080fd5b6000613ce4858286016139b1565b925050602083013567ffffffffffffffff811115613d0157600080fd5b613d0d85828601613a64565b9150509250929050565b600060208284031215613d2957600080fd5b600082013567ffffffffffffffff811115613d4357600080fd5b613d4f84828501613a64565b91505092915050565b600060208284031215613d6a57600080fd5b6000613d7884828501613ab8565b91505092915050565b600060208284031215613d9357600080fd5b6000613da184828501613ae2565b91505092915050565b600060208284031215613dbc57600080fd5b6000613dca84828501613af7565b91505092915050565b613ddc81614d64565b82525050565b613deb81614cf3565b82525050565b613e02613dfd82614cf3565b614e48565b82525050565b613e1181614ce1565b82525050565b613e28613e2382614ce1565b614e36565b82525050565b613e3781614d05565b82525050565b613e4681614d11565b82525050565b613e5d613e5882614d11565b614e5a565b82525050565b6000613e6e82614c9e565b613e788185614cb4565b9350613e88818560208601614e03565b613e9181614e76565b840191505092915050565b600081546001811660008114613eb95760018114613edf57613f23565b607f6002830416613eca8187614cb4565b955060ff198316865260208601935050613f23565b60028204613eed8187614cb4565b9550613ef885614c89565b60005b82811015613f1a57815481890152600182019150602081019050613efb565b80880195505050505b505092915050565b613f3481614d76565b82525050565b613f4381614d9a565b82525050565b613f5281614dac565b82525050565b613f6181614dbe565b82525050565b6000613f7282614ca9565b613f7c8185614cc5565b9350613f8c818560208601614e03565b613f9581614e76565b840191505092915050565b6000613fad602183614cc5565b91507f5369676e6174757265206e6f742076616c69646174656420636f72726563746c60008301527f79000000000000000000000000000000000000000000000000000000000000006020830152604082019050919050565b6000614013602183614cc5565b91507f4d6573736167652073656e646572206973206e6f742077686974656c6973746560008301527f64000000000000000000000000000000000000000000000000000000000000006020830152604082019050919050565b6000614079602483614cc5565b91507f4d696e7465722062616c616e6365206368616e6765642c20646964206e6f742060008301527f6d696e74000000000000000000000000000000000000000000000000000000006020830152604082019050919050565b60006140df601c83614cd6565b91507f19457468657265756d205369676e6564204d6573736167653a0a3332000000006000830152601c82019050919050565b600061411f602083614cc5565b91507f5478206f726967696e61746f72206973206e6f742077686974656c69737465646000830152602082019050919050565b600061415f601c83614cc5565b91507f52616e646f6d207369676e65722069732077686974656c6973746564000000006000830152602082019050919050565b600061419f602383614cc5565b91507f536f6c7574696f6e2073686f756c642073746172742077697468203020706f6960008301527f6e747300000000000000000000000000000000000000000000000000000000006020830152604082019050919050565b6000614205601c83614cc5565b91507f546f6b656e20646f6573206e6f742062656c6f6e6720746f20796f75000000006000830152602082019050919050565b6000614245602783614cc5565b91507f42616c616e636520646964206e6f74206465637265617365206166746572207460008301527f72616e73666572000000000000000000000000000000000000000000000000006020830152604082019050919050565b60006142ab602283614cc5565b91507f4e657720746f6b656e20646f6573206e6f742062656c6f6e6720746f206d656560008301527f65650000000000000000000000000000000000000000000000000000000000006020830152604082019050919050565b6000614311602783614cc5565b91507f42616c616e636520646964206e6f7420696e637265617365206166746572207460008301527f72616e73666572000000000000000000000000000000000000000000000000006020830152604082019050919050565b6000614377601e83614cc5565b91507f45524337323120616e64206d696e74657220617265207468652073616d6500006000830152602082019050919050565b60006143b7601c83614cc5565b91507f5478206f726967696e61746f722069732077686974656c6973746564000000006000830152602082019050919050565b60006143f7602f83614cc5565b91507f536f6c7574696f6e2073686f756c6420656e642077697468206174206c65617360008301527f74207468616e203220706f696e747300000000000000000000000000000000006020830152604082019050919050565b600061445d601a83614cc5565b91507f6f726967696e61746f72206e6f742077686974656c69737465640000000000006000830152602082019050919050565b600061449d602983614cc5565b91507f4465706c6f79656420636f646520697320646966666572656e742066726f6d2060008301527f7265666572656e636500000000000000000000000000000000000000000000006020830152604082019050919050565b6000614503601683614cc5565b91507f52616e646f6d207369676e617475726520776f726b73000000000000000000006000830152602082019050919050565b6000614543602383614cc5565b91507f5369676e6174757265206e6f7420696e74657270726574656420636f7272656360008301527f746c7900000000000000000000000000000000000000000000000000000000006020830152604082019050919050565b60006145a9601583614cc5565b91507f4e6f20736f6c7574696f6e207375626d697474656400000000000000000000006000830152602082019050919050565b60006145e9602683614cc5565b91507f7369676e617475726520646f6573206e6f74206d61746368207478206f72696760008301527f696e61746f7200000000000000000000000000000000000000000000000000006020830152604082019050919050565b600061464f601983614cc5565b91507f446964206e6f742072656365697665206f6e6520746f6b656e000000000000006000830152602082019050919050565b61468b81614d4d565b82525050565b61469a81614d57565b82525050565b60006146ac8286613df1565b6014820191506146bc8285613df1565b6014820191506146cc8284613e17565b601482019150819050949350505050565b60006146e8826140d2565b91506146f48284613e4c565b60208201915081905092915050565b60006020820190506147186000830184613e08565b92915050565b60006020820190506147336000830184613dd3565b92915050565b600060208201905061474e6000830184613de2565b92915050565b60006060820190506147696000830186613dd3565b6147766020830185613dd3565b6147836040830184614682565b949350505050565b60006040820190506147a06000830185613dd3565b6147ad6020830184613f3a565b9392505050565b60006040820190506147c96000830185613dd3565b6147d66020830184613f49565b9392505050565b60006040820190506147f26000830185613dd3565b6147ff6020830184613f58565b9392505050565b600060208201905061481b6000830184613e2e565b92915050565b60006040820190506148366000830185613e3d565b81810360208301526148488184613e63565b90509392505050565b60006040820190506148666000830185613e3d565b81810360208301526148788184613e9c565b90509392505050565b60006080820190506148966000830187613e3d565b6148a36020830186614691565b6148b06040830185613e3d565b6148bd6060830184613e3d565b95945050505050565b600060208201905081810360008301526148e08184613e63565b905092915050565b60006020820190506148fd6000830184613f2b565b92915050565b6000602082019050818103600083015261491d8184613f67565b905092915050565b6000602082019050818103600083015261493e81613fa0565b9050919050565b6000602082019050818103600083015261495e81614006565b9050919050565b6000602082019050818103600083015261497e8161406c565b9050919050565b6000602082019050818103600083015261499e81614112565b9050919050565b600060208201905081810360008301526149be81614152565b9050919050565b600060208201905081810360008301526149de81614192565b9050919050565b600060208201905081810360008301526149fe816141f8565b9050919050565b60006020820190508181036000830152614a1e81614238565b9050919050565b60006020820190508181036000830152614a3e8161429e565b9050919050565b60006020820190508181036000830152614a5e81614304565b9050919050565b60006020820190508181036000830152614a7e8161436a565b9050919050565b60006020820190508181036000830152614a9e816143aa565b9050919050565b60006020820190508181036000830152614abe816143ea565b9050919050565b60006020820190508181036000830152614ade81614450565b9050919050565b60006020820190508181036000830152614afe81614490565b9050919050565b60006020820190508181036000830152614b1e816144f6565b9050919050565b60006020820190508181036000830152614b3e81614536565b9050919050565b60006020820190508181036000830152614b5e8161459c565b9050919050565b60006020820190508181036000830152614b7e816145dc565b9050919050565b60006020820190508181036000830152614b9e81614642565b9050919050565b6000602082019050614bba6000830184614682565b92915050565b6000604051905081810181811067ffffffffffffffff82111715614be357600080fd5b8060405250919050565b600067ffffffffffffffff821115614c0457600080fd5b602082029050919050565b600067ffffffffffffffff821115614c2657600080fd5b602082029050919050565b600067ffffffffffffffff821115614c4857600080fd5b601f19601f8301169050602081019050919050565b600067ffffffffffffffff821115614c7457600080fd5b601f19601f8301169050602081019050919050565b60008190508160005260206000209050919050565b600081519050919050565b600081519050919050565b600082825260208201905092915050565b600082825260208201905092915050565b600081905092915050565b6000614cec82614d2d565b9050919050565b6000614cfe82614d2d565b9050919050565b60008115159050919050565b6000819050919050565b6000614d2682614ce1565b9050919050565b600073ffffffffffffffffffffffffffffffffffffffff82169050919050565b6000819050919050565b600060ff82169050919050565b6000614d6f82614dd0565b9050919050565b6000614d8182614d88565b9050919050565b6000614d9382614d2d565b9050919050565b6000614da582614d4d565b9050919050565b6000614db782614d4d565b9050919050565b6000614dc982614d4d565b9050919050565b6000614ddb82614de2565b9050919050565b6000614ded82614d2d565b9050919050565b82818337600083830152505050565b60005b83811015614e21578082015181840152602081019050614e06565b83811115614e30576000848401525b50505050565b6000614e4182614e64565b9050919050565b6000614e5382614e64565b9050919050565b6000819050919050565b6000614e6f82614e87565b9050919050565b6000601f19601f8301169050919050565b60008160601b9050919050565b614e9d81614ce1565b8114614ea857600080fd5b50565b614eb481614cf3565b8114614ebf57600080fd5b50565b614ecb81614d05565b8114614ed657600080fd5b50565b614ee281614d11565b8114614eed57600080fd5b50565b614ef981614d1b565b8114614f0457600080fd5b50565b614f1081614d4d565b8114614f1b57600080fd5b50565b614f2781614d57565b8114614f3257600080fd5b5056fea2646970667358221220b00e36b3508beb20a30be8993e0f6234ba53c1e300e6f5d6e6f02a4bdcbcc5bc64736f6c63430006020033",
  "source": "pragma solidity ^0.6.0;\npragma experimental ABIEncoderV2;\n\nimport \"./ERC20TD.sol\";\nimport \"./IExerciceSolution.sol\";\nimport \"@openzeppelin/contracts/token/ERC721/IERC721.sol\";\nimport \"./BouncerProxy.sol\";\nimport \"./IAllInOneSolution.sol\";\n\ncontract Evaluator {\n\n    mapping(address => bool) public teachers;\n    ERC20TD TDERC20;\n   \n    mapping(address => mapping(uint256 => bool)) public exerciceProgression;\n    mapping(address => IExerciceSolution) public studentExerciceSolution;\n    mapping(address => bool) public hasBeenPaired;\n\n    bytes32[20] private randomBytes32ToSign;\n    bytes[20] private associatedSignatures;\n    uint public nextValueStoreRank;\n    mapping(bytes32 => bool) public signedBytes32;\n    address payable public referenceBouncerProxy;\n\n    event constructedCorrectly(address erc20Address, address referenceBouncerProxy);\n    event UpdateWhitelist(address _account, bool _value);\n    event newRandomBytes32AndSig(bytes32 data, bytes sig);\n\n    constructor(ERC20TD _TDERC20, address payable _referenceBouncerProxy) \n    public \n    {\n        TDERC20 = _TDERC20;\n        referenceBouncerProxy = _referenceBouncerProxy;\n        emit constructedCorrectly(address(TDERC20), referenceBouncerProxy);\n    }\n\n    fallback () external payable \n    {}\n\n    receive () external payable \n    {}\n\n    function ex1_testERC721()\n    public  \n    {\n        // Checking a solution was submitted\n        require(exerciceProgression[msg.sender][0], \"No solution submitted\");\n\n        // Retrieve ERC721 address from ExerciceSolution\n        address studentERC721Address = studentExerciceSolution[msg.sender].ERC721Address();\n        IERC721 studentERC721 = IERC721(studentERC721Address);\n\n        // Check they are two different contracts \n        require(studentERC721Address != address(studentExerciceSolution[msg.sender]), \"ERC721 and minter are the same\");\n\n        // Checking balance pre minting\n        uint256 evaluatorBalancePreMint = studentERC721.balanceOf(address(this));\n        uint256 minterBalancePreMint = studentERC721.balanceOf(address(studentExerciceSolution[msg.sender]));\n\n        // Claim a token through minter\n        uint256 newToken = studentExerciceSolution[msg.sender].mintATokenForMe();\n\n        // Checking balance post minting\n        uint256 evaluatorBalancePostMint = studentERC721.balanceOf(address(this));\n        uint256 minterBalancePostMint = studentERC721.balanceOf(address(studentExerciceSolution[msg.sender]));\n\n        // Check that token 1 belongs to the Evaluator\n        require(evaluatorBalancePostMint == evaluatorBalancePreMint + 1, \"Did not receive one token\");\n        require(studentERC721.ownerOf(newToken) == address(this), \"New token does not belong to meeee\");\n\n        // Check the token was minted, not lazily transferred\n        require(minterBalancePostMint == minterBalancePreMint, \"Minter balance changed, did not mint\");\n\n        // Check that token 1 can be transferred back to msg.sender, so it's a real ERC721\n        uint256 senderBalancePreTransfer = studentERC721.balanceOf(msg.sender);\n        studentERC721.safeTransferFrom(address(this), msg.sender, newToken);\n        require(studentERC721.balanceOf(address(this)) == evaluatorBalancePreMint, \"Balance did not decrease after transfer\");\n        require(studentERC721.ownerOf(newToken) == msg.sender, \"Token does not belong to you\");\n        require(studentERC721.balanceOf(msg.sender) == senderBalancePreTransfer + 1, \"Balance did not increase after transfer\");\n\n        // Crediting points\n        if (!exerciceProgression[msg.sender][1])\n        {\n            exerciceProgression[msg.sender][1] = true;\n            // ERC721 points\n            TDERC20.distributeTokens(msg.sender, 2);\n        }\n    }\n\n    function ex2_generateASignature(bytes memory _signature) \n    public \n    {\n        bytes32 stringToSignToGetPoint = 0x00000000596f75206e65656420746f207369676e207468697320737472696e67;\n\n        // If tx fails here, it means the transaction did not receive a valid signature\n        address signatureSender = extractAddress(stringToSignToGetPoint , _signature);\n        require(tx.origin == signatureSender, \"signature does not match tx originator\");\n\n        // Crediting points\n        if (!exerciceProgression[msg.sender][2])\n        {\n            exerciceProgression[msg.sender][2] = true;\n            // ERC721 points\n            TDERC20.distributeTokens(msg.sender, 2);\n        }\n    }\n\n    function ex3_extractAddressFromSignature() \n    public \n    {        \n        // Retrieving a random signature and associated address\n        address signatureSender = extractAddress(randomBytes32ToSign[nextValueStoreRank] , associatedSignatures[nextValueStoreRank]);\n\n        // Checking that student contract is able to extract the address from the signature\n        address retrievedAddressByExerciceSolution = studentExerciceSolution[msg.sender].getAddressFromSignature(randomBytes32ToSign[nextValueStoreRank] , associatedSignatures[nextValueStoreRank]);\n        \n        require(signatureSender == retrievedAddressByExerciceSolution, \"Signature not interpreted correctly\");\n        \n        // Incrementing next value store rank\n        nextValueStoreRank += 1;\n        if (nextValueStoreRank >= 20)\n        {\n            nextValueStoreRank = 0;\n        }\n\n        // Crediting points\n        if (!exerciceProgression[msg.sender][3])\n        {\n            exerciceProgression[msg.sender][3] = true;\n            // ERC721 points\n            TDERC20.distributeTokens(msg.sender, 2);\n        }\n    }\n\n    function ex4_manageWhiteListWithSignature(bytes32 _aBytes32YouChose, bytes memory _theAssociatedSignature)\n    public\n    {\n        // Is your signature correctly formated\n        address signatureSender = extractAddress(_aBytes32YouChose , _theAssociatedSignature);\n        // Broadcaster is signer \n        require(signatureSender == tx.origin, \"signature does not match tx originator\");\n\n        // Is the signer whitelisted\n        require(studentExerciceSolution[msg.sender].whitelist(signatureSender), \"originator not whitelisted\");\n        require(studentExerciceSolution[msg.sender].signerIsWhitelisted(_aBytes32YouChose, _theAssociatedSignature), \"Signature not validated correctly\");\n\n        // Extracting a random signer\n        address storedSignatureSender = extractAddress(randomBytes32ToSign[nextValueStoreRank] , associatedSignatures[nextValueStoreRank]);\n\n        // Is a random signer whitelisted whitelisted\n        require(!studentExerciceSolution[msg.sender].whitelist(storedSignatureSender), \"Random signer is whitelisted\");\n        require(!studentExerciceSolution[msg.sender].signerIsWhitelisted(randomBytes32ToSign[nextValueStoreRank] , associatedSignatures[nextValueStoreRank]), \"Random signature works\");\n        \n        // Incrementing next value store rank\n        nextValueStoreRank += 1;\n        if (nextValueStoreRank >= 20)\n        {\n            nextValueStoreRank = 0;\n        }\n        // Crediting points\n        if (!exerciceProgression[msg.sender][4])\n        {\n            exerciceProgression[msg.sender][4] = true;\n            // ERC721 points\n            TDERC20.distributeTokens(msg.sender, 2);\n        }\n    }\n\n    function ex5_mintATokenWithASpecificSignature(bytes memory _theRequiredSignature)\n    public\n    {\n\n        // Retrieve ERC721 address from ExerciceSolution\n        address studentERC721Address = studentExerciceSolution[msg.sender].ERC721Address();\n        IERC721 studentERC721 = IERC721(studentERC721Address);\n\n        // Generating the data that needs to be signed to claim a token on student contract.\n        // We hash the concatenation of the evaluator address, the sender's address, and the ERC721 address\n        bytes32 dataToSign = keccak256(abi.encodePacked(address(this), tx.origin, studentERC721Address));\n\n        // Has sender signed the correct piece of data, and extract the address\n        address signatureSender = extractAddress(dataToSign , _theRequiredSignature);\n\n        // Broadcaster is signer \n        require(signatureSender == tx.origin, \"signature does not match tx originator\");\n\n        // Checking that we own no NFT before claiming\n        uint256 evaluatorBalancePreMint = studentERC721.balanceOf(address(this));\n\n        // Claim a token through minter\n        uint256 newToken = studentExerciceSolution[msg.sender].mintATokenForMeWithASignature(_theRequiredSignature);\n\n        // Checking balance post minting\n        uint256 evaluatorBalancePostMint = studentERC721.balanceOf(address(this));\n\n        // Check that token 1 belongs to the Evaluator\n        require(evaluatorBalancePostMint == evaluatorBalancePreMint + 1, \"Did not receive one token\");\n        require(studentERC721.ownerOf(newToken) == address(this), \"New token does not belong to meeee\");\n\n        // Incrementing next value store rank\n        nextValueStoreRank += 1;\n        if (nextValueStoreRank >= 20)\n        {\n            nextValueStoreRank = 0;\n        }\n        // Crediting points\n        if (!exerciceProgression[msg.sender][5])\n        {\n            exerciceProgression[msg.sender][5] = true;\n            // ERC721 points\n            TDERC20.distributeTokens(msg.sender, 3);\n        }\n    }\n\n    function ex6_deployBouncerProxyAndWhitelistYourself(address payable myBouncerProxy)\n    public\n    {\n        // Build bouncer proxy\n        BouncerProxy localBouncer = BouncerProxy(myBouncerProxy);\n        // Retrieving your contract code hash\n        bytes32 codeHash;\n        assembly { codeHash := extcodehash(myBouncerProxy) }\n        // Checking it is the correct code hash\n        bytes32 referenceCodeHash;\n        address _referenceBouncerProxy = referenceBouncerProxy;\n        assembly { referenceCodeHash := extcodehash(_referenceBouncerProxy) }\n\n        require(referenceCodeHash == codeHash, \"Deployed code is different from reference\");\n\n        // Check if sender is whitelisted\n        require(localBouncer.whitelist(tx.origin), \"Tx originator is not whitelisted\");\n        // For fun, whitelist sender also\n        require(localBouncer.whitelist(msg.sender), \"Message sender is not whitelisted\");\n\n        // Crediting points\n        if (!exerciceProgression[msg.sender][6])\n        {\n            exerciceProgression[msg.sender][6] = true;\n            // ERC721 points\n            TDERC20.distributeTokens(msg.sender, 3);\n        }\n    }\n\n    function ex7_useBouncerProxyToCallEvaluator()\n    public\n    {\n    \n        // Retrieving caller contract code hash\n        bytes32 codeHash;\n        address _sender = msg.sender;\n        assembly { codeHash := extcodehash(_sender) }\n        // Checking it is the correct code hash\n        bytes32 referenceCodeHash;\n        address _referenceBouncerProxy = referenceBouncerProxy;\n        assembly { referenceCodeHash := extcodehash(_referenceBouncerProxy) }\n\n        require(referenceCodeHash == codeHash, \"Deployed code is different from reference\");\n\n        // Build bouncer proxy\n        BouncerProxy localBouncer = BouncerProxy(msg.sender);\n        // Check if sender is whitelisted\n        require(!localBouncer.whitelist(tx.origin), \"Tx originator is whitelisted\");\n\n        // Crediting points\n        if (!exerciceProgression[msg.sender][7])\n        {\n            exerciceProgression[msg.sender][7] = true;\n            // ERC721 points\n            TDERC20.distributeTokens(msg.sender, 4);\n        }\n    }\n\n    function ex8_allInOne() \n    public  \n    {\n        // Checking that solution has no token yet\n        uint256 initialBalance = TDERC20.balanceOf(msg.sender);\n        require(initialBalance == 0, \"Solution should start with 0 points\");\n\n        // Calling the solution so that it solves the workshop\n        IAllInOneSolution callerSolution = IAllInOneSolution(msg.sender);\n        callerSolution.completeWorkshop();\n\n        // Checking that at least 10 exercices where validated\n        uint256 finalBalance = TDERC20.balanceOf(msg.sender);\n        uint256 decimals = TDERC20.decimals();\n        require(finalBalance >= 10**decimals *16, \"Solution should end with at least than 2 points\");\n\n        if (!exerciceProgression[msg.sender][8])\n        {\n            exerciceProgression[msg.sender][8] = true;\n            // Distribute points\n            TDERC20.distributeTokens(msg.sender, 2);\n        }\n\n    }\n\n    modifier onlyTeachers() \n    {\n\n        require(TDERC20.teachers(msg.sender));\n        _;\n    }\n\n    /* Internal functions and modifiers */ \n    function submitExercice(IExerciceSolution studentExercice)\n    public\n    {\n        // Checking this contract was not used by another group before\n        require(!hasBeenPaired[address(studentExercice)]);\n\n        // Assigning passed ERC20 as student ERC20\n        studentExerciceSolution[msg.sender] = studentExercice;\n        hasBeenPaired[address(studentExercice)] = true;\n\n        if (!exerciceProgression[msg.sender][0])\n        {\n            exerciceProgression[msg.sender][0] = true;\n            // setup points\n            TDERC20.distributeTokens(msg.sender, 2);\n        }\n    }\n\n    function setRandomBytes32AndSignature(bytes32[20] memory _randomData, bytes[20] memory _signatures) \n    public \n    onlyTeachers\n    {\n        randomBytes32ToSign = _randomData;\n        associatedSignatures = _signatures;\n        nextValueStoreRank = 0;\n        for (uint i = 0; i < 20; i++)\n        {\n            emit newRandomBytes32AndSig(randomBytes32ToSign[i], associatedSignatures[i]);\n        }\n    }\n\n    function _compareStrings(string memory a, string memory b) \n    internal \n    pure \n    returns (bool) \n    {\n        return (keccak256(abi.encodePacked((a))) == keccak256(abi.encodePacked((b))));\n    }\n\n    function bytes32ToString(bytes32 _bytes32) \n    public \n    pure returns (string memory) \n    {\n        uint8 i = 0;\n        while(i < 32 && _bytes32[i] != 0) {\n            i++;\n        }\n        bytes memory bytesArray = new bytes(i);\n        for (i = 0; i < 32 && _bytes32[i] != 0; i++) {\n            bytesArray[i] = _bytes32[i];\n        }\n        return string(bytesArray);\n    }\n    function extractAddressExternal(bytes32 _hash, bytes calldata _signature) \n    external \n    pure \n    returns (address) {\n        return extractAddress(_hash, _signature);\n    }\n    function extractAddress(bytes32 _hash, bytes memory _signature) \n    internal \n    pure \n    returns (address) {\n        bytes32 r;\n        bytes32 s;\n        uint8 v;\n        // Check the signature length\n        if (_signature.length != 65) {\n            return address(0);\n        }\n        // Divide the signature in r, s and v variables\n        // ecrecover takes the signature parameters, and the only way to get them\n        // currently is to use assembly.\n        // solium-disable-next-line security/no-inline-assembly\n        assembly {\n            r := mload(add(_signature, 32))\n            s := mload(add(_signature, 64))\n            v := byte(0, mload(add(_signature, 96)))\n        }\n        // Version of signature should be 27 or 28, but 0 and 1 are also possible versions\n        if (v < 27) {\n            v += 27;\n        }\n        // If the version is correct return the signer address\n        if (v != 27 && v != 28) {\n            return address(0);\n        } else {\n            // solium-disable-next-line arg-overflow\n            return ecrecover(keccak256(\n                abi.encodePacked(\"\\x19Ethereum Signed Message:\\n32\", _hash)\n                ), v, r, s);\n        }\n    }\n}\n",
  "sourcePath": "/Users/henrilieutaud/Documents/Workshop/Solidity/signatures-101/contracts/Evaluator.sol",
  "compiler": {
    "name": "solc",
    "version": "0.6.2+commit.bacdbe57.Emscripten.clang"
  },
  "schemaVersion": "3.4.7",
  "updatedAt": "2023-02-24T15:16:21.253Z",
  "networkType": "ethereum",
  "devdoc": {
    "methods": {}
  },
  "userdoc": {
    "methods": {}
  }
}