{
  "contractName": "Evaluator",
  "abi": [
    {
      "inputs": [
        {
          "internalType": "contract ERC20TD",
          "name": "_TDERC20",
          "type": "address"
        }
      ],
      "stateMutability": "nonpayable",
      "type": "constructor"
    },
    {
      "anonymous": false,
      "inputs": [
        {
          "indexed": false,
          "internalType": "address",
          "name": "_account",
          "type": "address"
        },
        {
          "indexed": false,
          "internalType": "bool",
          "name": "_value",
          "type": "bool"
        }
      ],
      "name": "UpdateWhitelist",
      "type": "event"
    },
    {
      "anonymous": false,
      "inputs": [
        {
          "indexed": false,
          "internalType": "address",
          "name": "erc20Address",
          "type": "address"
        }
      ],
      "name": "constructedCorrectly",
      "type": "event"
    },
    {
      "anonymous": false,
      "inputs": [
        {
          "indexed": false,
          "internalType": "string",
          "name": "name",
          "type": "string"
        },
        {
          "indexed": false,
          "internalType": "uint256",
          "name": "legs",
          "type": "uint256"
        },
        {
          "indexed": false,
          "internalType": "uint256",
          "name": "sex",
          "type": "uint256"
        },
        {
          "indexed": false,
          "internalType": "bool",
          "name": "wings",
          "type": "bool"
        }
      ],
      "name": "newRandomAnimalAttributes",
      "type": "event"
    },
    {
      "stateMutability": "payable",
      "type": "fallback"
    },
    {
      "inputs": [
        {
          "internalType": "address",
          "name": "",
          "type": "address"
        },
        {
          "internalType": "uint256",
          "name": "",
          "type": "uint256"
        }
      ],
      "name": "exerciceProgression",
      "outputs": [
        {
          "internalType": "bool",
          "name": "",
          "type": "bool"
        }
      ],
      "stateMutability": "view",
      "type": "function"
    },
    {
      "inputs": [
        {
          "internalType": "address",
          "name": "",
          "type": "address"
        }
      ],
      "name": "hasBeenPaired",
      "outputs": [
        {
          "internalType": "bool",
          "name": "",
          "type": "bool"
        }
      ],
      "stateMutability": "view",
      "type": "function"
    },
    {
      "inputs": [],
      "name": "nextValueStoreRank",
      "outputs": [
        {
          "internalType": "uint256",
          "name": "",
          "type": "uint256"
        }
      ],
      "stateMutability": "view",
      "type": "function"
    },
    {
      "inputs": [
        {
          "internalType": "bytes32",
          "name": "",
          "type": "bytes32"
        }
      ],
      "name": "signedBytes32",
      "outputs": [
        {
          "internalType": "bool",
          "name": "",
          "type": "bool"
        }
      ],
      "stateMutability": "view",
      "type": "function"
    },
    {
      "inputs": [
        {
          "internalType": "address",
          "name": "",
          "type": "address"
        }
      ],
      "name": "studentExerciceSolution",
      "outputs": [
        {
          "internalType": "contract IExerciceSolution",
          "name": "",
          "type": "address"
        }
      ],
      "stateMutability": "view",
      "type": "function"
    },
    {
      "inputs": [
        {
          "internalType": "address",
          "name": "",
          "type": "address"
        }
      ],
      "name": "teachers",
      "outputs": [
        {
          "internalType": "bool",
          "name": "",
          "type": "bool"
        }
      ],
      "stateMutability": "view",
      "type": "function"
    },
    {
      "stateMutability": "payable",
      "type": "receive"
    },
    {
      "inputs": [],
      "name": "ex1_testERC721",
      "outputs": [],
      "stateMutability": "nonpayable",
      "type": "function"
    },
    {
      "inputs": [
        {
          "internalType": "bytes",
          "name": "_signature",
          "type": "bytes"
        }
      ],
      "name": "ex2_generateASignature",
      "outputs": [],
      "stateMutability": "nonpayable",
      "type": "function"
    },
    {
      "inputs": [],
      "name": "ex3_extractAddressFromSignature",
      "outputs": [],
      "stateMutability": "nonpayable",
      "type": "function"
    },
    {
      "inputs": [
        {
          "internalType": "bytes32",
          "name": "_aBytes32YouChose",
          "type": "bytes32"
        },
        {
          "internalType": "bytes",
          "name": "_theAssociatedSignature",
          "type": "bytes"
        }
      ],
      "name": "ex4_manageWhiteListWithSignature",
      "outputs": [],
      "stateMutability": "nonpayable",
      "type": "function"
    },
    {
      "inputs": [
        {
          "internalType": "contract IExerciceSolution",
          "name": "studentExercice",
          "type": "address"
        }
      ],
      "name": "submitExercice",
      "outputs": [],
      "stateMutability": "nonpayable",
      "type": "function"
    },
    {
      "inputs": [
        {
          "internalType": "bytes32",
          "name": "_bytes32",
          "type": "bytes32"
        }
      ],
      "name": "bytes32ToString",
      "outputs": [
        {
          "internalType": "string",
          "name": "",
          "type": "string"
        }
      ],
      "stateMutability": "pure",
      "type": "function"
    }
  ],
  "bytecode": "0x60806040523480156200001157600080fd5b506040516200317b3803806200317b8339818101604052620000379190810190620000f1565b80600160006101000a81548173ffffffffffffffffffffffffffffffffffffffff021916908373ffffffffffffffffffffffffffffffffffffffff1602179055507f2915b3b4e0613c6b63dca39a375dd8c9f1de68d9e208a0713b7624260e2d0812600160009054906101000a900473ffffffffffffffffffffffffffffffffffffffff16604051620000cb91906200012e565b60405180910390a150620001ad565b600081519050620000eb8162000193565b92915050565b6000602082840312156200010457600080fd5b60006200011484828501620000da565b91505092915050565b62000128816200014b565b82525050565b60006020820190506200014560008301846200011d565b92915050565b6000620001588262000173565b9050919050565b60006200016c826200014b565b9050919050565b600073ffffffffffffffffffffffffffffffffffffffff82169050919050565b6200019e816200015f565b8114620001aa57600080fd5b50565b612fbe80620001bd6000396000f3fe6080604052600436106100ab5760003560e01c8063b3c0faae11610064578063b3c0faae146101fc578063bd14454614610213578063dede624c1461023c578063f0a47f7814610253578063f4fdbb8814610290578063fff31a2f146102cd576100b2565b80630b961254146100b45780632236d353146100f15780632e64c5001461011a57806339119dce1461015757806342acd0ab146101825780639201de55146101bf576100b2565b366100b257005b005b3480156100c057600080fd5b506100db60048036036100d6919081019061231b565b6102f6565b6040516100e89190612b92565b60405180910390f35b3480156100fd57600080fd5b5061011860048036036101139190810190612490565b610329565b005b34801561012657600080fd5b50610141600480360361013c919081019061236d565b6105b5565b60405161014e9190612ad2565b60405180910390f35b34801561016357600080fd5b5061016c6105e4565b6040516101799190612d0f565b60405180910390f35b34801561018e57600080fd5b506101a960048036036101a491908101906123d2565b6105ea565b6040516101b69190612ad2565b60405180910390f35b3480156101cb57600080fd5b506101e660048036036101e191908101906123d2565b61060a565b6040516101f39190612bad565b60405180910390f35b34801561020857600080fd5b50610211610767565b005b34801561021f57600080fd5b5061023a6004803603610235919081019061244f565b610b30565b005b34801561024857600080fd5b50610251610d33565b005b34801561025f57600080fd5b5061027a6004803603610275919081019061231b565b6119c9565b6040516102879190612ad2565b60405180910390f35b34801561029c57600080fd5b506102b760048036036102b2919081019061231b565b6119e9565b6040516102c49190612ad2565b60405180910390f35b3480156102d957600080fd5b506102f460048036036102ef91908101906123fb565b611a09565b005b60036020528060005260406000206000915054906101000a900473ffffffffffffffffffffffffffffffffffffffff1681565b600460008273ffffffffffffffffffffffffffffffffffffffff1673ffffffffffffffffffffffffffffffffffffffff16815260200190815260200160002060009054906101000a900460ff161561038057600080fd5b80600360003373ffffffffffffffffffffffffffffffffffffffff1673ffffffffffffffffffffffffffffffffffffffff16815260200190815260200160002060006101000a81548173ffffffffffffffffffffffffffffffffffffffff021916908373ffffffffffffffffffffffffffffffffffffffff1602179055506001600460008373ffffffffffffffffffffffffffffffffffffffff1673ffffffffffffffffffffffffffffffffffffffff16815260200190815260200160002060006101000a81548160ff021916908315150217905550600260003373ffffffffffffffffffffffffffffffffffffffff1673ffffffffffffffffffffffffffffffffffffffff168152602001908152602001600020600080815260200190815260200160002060009054906101000a900460ff166105b2576001600260003373ffffffffffffffffffffffffffffffffffffffff1673ffffffffffffffffffffffffffffffffffffffff168152602001908152602001600020600080815260200190815260200160002060006101000a81548160ff021916908315150217905550600160009054906101000a900473ffffffffffffffffffffffffffffffffffffffff1673ffffffffffffffffffffffffffffffffffffffff1663158a49883360026040518363ffffffff1660e01b815260040161057f929190612aa9565b600060405180830381600087803b15801561059957600080fd5b505af11580156105ad573d6000803e3d6000fd5b505050505b50565b60026020528160005260406000206020528060005260406000206000915091509054906101000a900460ff1681565b602d5481565b602e6020528060005260406000206000915054906101000a900460ff1681565b606060008090505b60208160ff1610801561065d5750600060f81b838260ff166020811061063457fe5b1a60f81b7effffffffffffffffffffffffffffffffffffffffffffffffffffffffffffff191614155b1561066f578080600101915050610612565b60608160ff166040519080825280601f01601f1916602001820160405280156106a75781602001600182028038833980820191505090505b509050600091505b60208260ff161080156106fa5750600060f81b848360ff16602081106106d157fe5b1a60f81b7effffffffffffffffffffffffffffffffffffffffffffffffffffffffffffff191614155b1561075d57838260ff166020811061070e57fe5b1a60f81b818360ff168151811061072157fe5b60200101907effffffffffffffffffffffffffffffffffffffffffffffffffffffffffffff1916908160001a90535081806001019250506106af565b8092505050919050565b600061082b6005602d546014811061077b57fe5b01546019602d546014811061078c57fe5b018054600181600116156101000203166002900480601f0160208091040260200160405190810160405280929190818152602001828054600181600116156101000203166002900480156108215780601f106107f657610100808354040283529160200191610821565b820191906000526020600020905b81548152906001019060200180831161080457829003601f168201915b5050505050612144565b90506000600360003373ffffffffffffffffffffffffffffffffffffffff1673ffffffffffffffffffffffffffffffffffffffff16815260200190815260200160002060009054906101000a900473ffffffffffffffffffffffffffffffffffffffff1673ffffffffffffffffffffffffffffffffffffffff166379d336066005602d54601481106108b957fe5b01546019602d54601481106108ca57fe5b016040518363ffffffff1660e01b81526004016108e8929190612b1d565b602060405180830381600087803b15801561090257600080fd5b505af1158015610916573d6000803e3d6000fd5b505050506040513d601f19601f8201168201806040525061093a9190810190612344565b90508073ffffffffffffffffffffffffffffffffffffffff168273ffffffffffffffffffffffffffffffffffffffff16146109aa576040517f08c379a00000000000000000000000000000000000000000000000000000000081526004016109a190612c8f565b60405180910390fd5b6001602d600082825401925050819055506014602d54106109ce576000602d819055505b600260003373ffffffffffffffffffffffffffffffffffffffff1673ffffffffffffffffffffffffffffffffffffffff16815260200190815260200160002060006003815260200190815260200160002060009054906101000a900460ff16610b2c576001600260003373ffffffffffffffffffffffffffffffffffffffff1673ffffffffffffffffffffffffffffffffffffffff16815260200190815260200160002060006003815260200190815260200160002060006101000a81548160ff021916908315150217905550600160009054906101000a900473ffffffffffffffffffffffffffffffffffffffff1673ffffffffffffffffffffffffffffffffffffffff1663158a49883360026040518363ffffffff1660e01b8152600401610af9929190612aa9565b600060405180830381600087803b158015610b1357600080fd5b505af1158015610b27573d6000803e3d6000fd5b505050505b5050565b60007b596f75206e65656420746f207369676e207468697320737472696e6760001b90506000610b608284612144565b90508073ffffffffffffffffffffffffffffffffffffffff163273ffffffffffffffffffffffffffffffffffffffff1614610bd0576040517f08c379a0000000000000000000000000000000000000000000000000000000008152600401610bc790612ccf565b60405180910390fd5b600260003373ffffffffffffffffffffffffffffffffffffffff1673ffffffffffffffffffffffffffffffffffffffff16815260200190815260200160002060006002815260200190815260200160002060009054906101000a900460ff16610d2e576001600260003373ffffffffffffffffffffffffffffffffffffffff1673ffffffffffffffffffffffffffffffffffffffff16815260200190815260200160002060006002815260200190815260200160002060006101000a81548160ff021916908315150217905550600160009054906101000a900473ffffffffffffffffffffffffffffffffffffffff1673ffffffffffffffffffffffffffffffffffffffff1663158a49883360026040518363ffffffff1660e01b8152600401610cfb929190612aa9565b600060405180830381600087803b158015610d1557600080fd5b505af1158015610d29573d6000803e3d6000fd5b505050505b505050565b600260003373ffffffffffffffffffffffffffffffffffffffff1673ffffffffffffffffffffffffffffffffffffffff168152602001908152602001600020600080815260200190815260200160002060009054906101000a900460ff16610dd0576040517f08c379a0000000000000000000000000000000000000000000000000000000008152600401610dc790612caf565b60405180910390fd5b6000600360003373ffffffffffffffffffffffffffffffffffffffff1673ffffffffffffffffffffffffffffffffffffffff16815260200190815260200160002060009054906101000a900473ffffffffffffffffffffffffffffffffffffffff1673ffffffffffffffffffffffffffffffffffffffff1663574490cd6040518163ffffffff1660e01b8152600401602060405180830381600087803b158015610e7957600080fd5b505af1158015610e8d573d6000803e3d6000fd5b505050506040513d601f19601f82011682018060405250610eb19190810190612344565b90506000819050600360003373ffffffffffffffffffffffffffffffffffffffff1673ffffffffffffffffffffffffffffffffffffffff16815260200190815260200160002060009054906101000a900473ffffffffffffffffffffffffffffffffffffffff1673ffffffffffffffffffffffffffffffffffffffff168273ffffffffffffffffffffffffffffffffffffffff161415610f86576040517f08c379a0000000000000000000000000000000000000000000000000000000008152600401610f7d90612c6f565b60405180910390fd5b60008173ffffffffffffffffffffffffffffffffffffffff166370a08231306040518263ffffffff1660e01b8152600401610fc19190612a57565b60206040518083038186803b158015610fd957600080fd5b505afa158015610fed573d6000803e3d6000fd5b505050506040513d601f19601f8201168201806040525061101191908101906124b9565b905060008273ffffffffffffffffffffffffffffffffffffffff166370a08231600360003373ffffffffffffffffffffffffffffffffffffffff1673ffffffffffffffffffffffffffffffffffffffff16815260200190815260200160002060009054906101000a900473ffffffffffffffffffffffffffffffffffffffff166040518263ffffffff1660e01b81526004016110ad9190612a3c565b60206040518083038186803b1580156110c557600080fd5b505afa1580156110d9573d6000803e3d6000fd5b505050506040513d601f19601f820116820180604052506110fd91908101906124b9565b90506000600360003373ffffffffffffffffffffffffffffffffffffffff1673ffffffffffffffffffffffffffffffffffffffff16815260200190815260200160002060009054906101000a900473ffffffffffffffffffffffffffffffffffffffff1673ffffffffffffffffffffffffffffffffffffffff1663ac4fec216040518163ffffffff1660e01b8152600401602060405180830381600087803b1580156111a857600080fd5b505af11580156111bc573d6000803e3d6000fd5b505050506040513d601f19601f820116820180604052506111e091908101906124b9565b905060008473ffffffffffffffffffffffffffffffffffffffff166370a08231306040518263ffffffff1660e01b815260040161121d9190612a57565b60206040518083038186803b15801561123557600080fd5b505afa158015611249573d6000803e3d6000fd5b505050506040513d601f19601f8201168201806040525061126d91908101906124b9565b905060008573ffffffffffffffffffffffffffffffffffffffff166370a08231600360003373ffffffffffffffffffffffffffffffffffffffff1673ffffffffffffffffffffffffffffffffffffffff16815260200190815260200160002060009054906101000a900473ffffffffffffffffffffffffffffffffffffffff166040518263ffffffff1660e01b81526004016113099190612a3c565b60206040518083038186803b15801561132157600080fd5b505afa158015611335573d6000803e3d6000fd5b505050506040513d601f19601f8201168201806040525061135991908101906124b9565b90506001850182146113a0576040517f08c379a000000000000000000000000000000000000000000000000000000000815260040161139790612cef565b60405180910390fd5b3073ffffffffffffffffffffffffffffffffffffffff168673ffffffffffffffffffffffffffffffffffffffff16636352211e856040518263ffffffff1660e01b81526004016113f09190612d0f565b60206040518083038186803b15801561140857600080fd5b505afa15801561141c573d6000803e3d6000fd5b505050506040513d601f19601f820116820180604052506114409190810190612344565b73ffffffffffffffffffffffffffffffffffffffff1614611496576040517f08c379a000000000000000000000000000000000000000000000000000000000815260040161148d90612c2f565b60405180910390fd5b8381146114d8576040517f08c379a00000000000000000000000000000000000000000000000000000000081526004016114cf90612bcf565b60405180910390fd5b60008673ffffffffffffffffffffffffffffffffffffffff166370a08231336040518263ffffffff1660e01b81526004016115139190612a57565b60206040518083038186803b15801561152b57600080fd5b505afa15801561153f573d6000803e3d6000fd5b505050506040513d601f19601f8201168201806040525061156391908101906124b9565b90508673ffffffffffffffffffffffffffffffffffffffff166342842e0e3033876040518463ffffffff1660e01b81526004016115a293929190612a72565b600060405180830381600087803b1580156115bc57600080fd5b505af11580156115d0573d6000803e3d6000fd5b50505050858773ffffffffffffffffffffffffffffffffffffffff166370a08231306040518263ffffffff1660e01b815260040161160e9190612a57565b60206040518083038186803b15801561162657600080fd5b505afa15801561163a573d6000803e3d6000fd5b505050506040513d601f19601f8201168201806040525061165e91908101906124b9565b1461169e576040517f08c379a000000000000000000000000000000000000000000000000000000000815260040161169590612c0f565b60405180910390fd5b3373ffffffffffffffffffffffffffffffffffffffff168773ffffffffffffffffffffffffffffffffffffffff16636352211e866040518263ffffffff1660e01b81526004016116ee9190612d0f565b60206040518083038186803b15801561170657600080fd5b505afa15801561171a573d6000803e3d6000fd5b505050506040513d601f19601f8201168201806040525061173e9190810190612344565b73ffffffffffffffffffffffffffffffffffffffff1614611794576040517f08c379a000000000000000000000000000000000000000000000000000000000815260040161178b90612bef565b60405180910390fd5b600181018773ffffffffffffffffffffffffffffffffffffffff166370a08231336040518263ffffffff1660e01b81526004016117d19190612a57565b60206040518083038186803b1580156117e957600080fd5b505afa1580156117fd573d6000803e3d6000fd5b505050506040513d601f19601f8201168201806040525061182191908101906124b9565b14611861576040517f08c379a000000000000000000000000000000000000000000000000000000000815260040161185890612c4f565b60405180910390fd5b600260003373ffffffffffffffffffffffffffffffffffffffff1673ffffffffffffffffffffffffffffffffffffffff16815260200190815260200160002060006001815260200190815260200160002060009054906101000a900460ff166119bf576001600260003373ffffffffffffffffffffffffffffffffffffffff1673ffffffffffffffffffffffffffffffffffffffff16815260200190815260200160002060006001815260200190815260200160002060006101000a81548160ff021916908315150217905550600160009054906101000a900473ffffffffffffffffffffffffffffffffffffffff1673ffffffffffffffffffffffffffffffffffffffff1663158a49883360026040518363ffffffff1660e01b815260040161198c929190612aa9565b600060405180830381600087803b1580156119a657600080fd5b505af11580156119ba573d6000803e3d6000fd5b505050505b5050505050505050565b60006020528060005260406000206000915054906101000a900460ff1681565b60046020528060005260406000206000915054906101000a900460ff1681565b6000611acd6005602d5460148110611a1d57fe5b01546019602d5460148110611a2e57fe5b018054600181600116156101000203166002900480601f016020809104026020016040519081016040528092919081815260200182805460018160011615610100020316600290048015611ac35780601f10611a9857610100808354040283529160200191611ac3565b820191906000526020600020905b815481529060010190602001808311611aa657829003601f168201915b5050505050612144565b90503273ffffffffffffffffffffffffffffffffffffffff168173ffffffffffffffffffffffffffffffffffffffff1614611b0757600080fd5b600360003373ffffffffffffffffffffffffffffffffffffffff1673ffffffffffffffffffffffffffffffffffffffff16815260200190815260200160002060009054906101000a900473ffffffffffffffffffffffffffffffffffffffff1673ffffffffffffffffffffffffffffffffffffffff16639b19251a826040518263ffffffff1660e01b8152600401611b9f9190612a3c565b602060405180830381600087803b158015611bb957600080fd5b505af1158015611bcd573d6000803e3d6000fd5b505050506040513d601f19601f82011682018060405250611bf191908101906123a9565b611bfa57600080fd5b600360003373ffffffffffffffffffffffffffffffffffffffff1673ffffffffffffffffffffffffffffffffffffffff16815260200190815260200160002060009054906101000a900473ffffffffffffffffffffffffffffffffffffffff1673ffffffffffffffffffffffffffffffffffffffff16637d851a1384846040518363ffffffff1660e01b8152600401611c94929190612aed565b602060405180830381600087803b158015611cae57600080fd5b505af1158015611cc2573d6000803e3d6000fd5b505050506040513d601f19601f82011682018060405250611ce691908101906123a9565b611cef57600080fd5b6000611db36005602d5460148110611d0357fe5b01546019602d5460148110611d1457fe5b018054600181600116156101000203166002900480601f016020809104026020016040519081016040528092919081815260200182805460018160011615610100020316600290048015611da95780601f10611d7e57610100808354040283529160200191611da9565b820191906000526020600020905b815481529060010190602001808311611d8c57829003601f168201915b5050505050612144565b9050600360003373ffffffffffffffffffffffffffffffffffffffff1673ffffffffffffffffffffffffffffffffffffffff16815260200190815260200160002060009054906101000a900473ffffffffffffffffffffffffffffffffffffffff1673ffffffffffffffffffffffffffffffffffffffff16639b19251a826040518263ffffffff1660e01b8152600401611e4d9190612a3c565b602060405180830381600087803b158015611e6757600080fd5b505af1158015611e7b573d6000803e3d6000fd5b505050506040513d601f19601f82011682018060405250611e9f91908101906123a9565b611ea857600080fd5b600360003373ffffffffffffffffffffffffffffffffffffffff1673ffffffffffffffffffffffffffffffffffffffff16815260200190815260200160002060009054906101000a900473ffffffffffffffffffffffffffffffffffffffff1673ffffffffffffffffffffffffffffffffffffffff16637d851a136005602d5460148110611f3257fe5b01546019602d5460148110611f4357fe5b016040518363ffffffff1660e01b8152600401611f61929190612b1d565b602060405180830381600087803b158015611f7b57600080fd5b505af1158015611f8f573d6000803e3d6000fd5b505050506040513d601f19601f82011682018060405250611fb391908101906123a9565b611fbc57600080fd5b6001602d600082825401925050819055506014602d5410611fe0576000602d819055505b600260003373ffffffffffffffffffffffffffffffffffffffff1673ffffffffffffffffffffffffffffffffffffffff16815260200190815260200160002060006004815260200190815260200160002060009054906101000a900460ff1661213e576001600260003373ffffffffffffffffffffffffffffffffffffffff1673ffffffffffffffffffffffffffffffffffffffff16815260200190815260200160002060006004815260200190815260200160002060006101000a81548160ff021916908315150217905550600160009054906101000a900473ffffffffffffffffffffffffffffffffffffffff1673ffffffffffffffffffffffffffffffffffffffff1663158a49883360026040518363ffffffff1660e01b815260040161210b929190612aa9565b600060405180830381600087803b15801561212557600080fd5b505af1158015612139573d6000803e3d6000fd5b505050505b50505050565b600080600080604185511461215f576000935050505061222e565b6020850151925060408501519150606085015160001a9050601b8160ff16101561218a57601b810190505b601b8160ff16141580156121a25750601c8160ff1614155b156121b3576000935050505061222e565b6001866040516020016121c69190612a16565b60405160208183030381529060405280519060200120828585604051600081526020016040526040516121fc9493929190612b4d565b6020604051602081039080840390855afa15801561221e573d6000803e3d6000fd5b5050506020604051035193505050505b92915050565b60008135905061224381612f15565b92915050565b60008151905061225881612f15565b92915050565b60008151905061226d81612f2c565b92915050565b60008135905061228281612f43565b92915050565b600082601f83011261229957600080fd5b81356122ac6122a782612d57565b612d2a565b915080825260208301602083018583830111156122c857600080fd5b6122d3838284612eb8565b50505092915050565b6000813590506122eb81612f5a565b92915050565b60008135905061230081612f71565b92915050565b60008151905061231581612f71565b92915050565b60006020828403121561232d57600080fd5b600061233b84828501612234565b91505092915050565b60006020828403121561235657600080fd5b600061236484828501612249565b91505092915050565b6000806040838503121561238057600080fd5b600061238e85828601612234565b925050602061239f858286016122f1565b9150509250929050565b6000602082840312156123bb57600080fd5b60006123c98482850161225e565b91505092915050565b6000602082840312156123e457600080fd5b60006123f284828501612273565b91505092915050565b6000806040838503121561240e57600080fd5b600061241c85828601612273565b925050602083013567ffffffffffffffff81111561243957600080fd5b61244585828601612288565b9150509250929050565b60006020828403121561246157600080fd5b600082013567ffffffffffffffff81111561247b57600080fd5b61248784828501612288565b91505092915050565b6000602082840312156124a257600080fd5b60006124b0848285016122dc565b91505092915050565b6000602082840312156124cb57600080fd5b60006124d984828501612306565b91505092915050565b6124eb81612e4c565b82525050565b6124fa81612ddb565b82525050565b61250981612ded565b82525050565b61251881612df9565b82525050565b61252f61252a82612df9565b612efa565b82525050565b600061254082612d98565b61254a8185612dae565b935061255a818560208601612ec7565b61256381612f04565b840191505092915050565b60008154600181166000811461258b57600181146125b1576125f5565b607f600283041661259c8187612dae565b955060ff1983168652602086019350506125f5565b600282046125bf8187612dae565b95506125ca85612d83565b60005b828110156125ec578154818901526001820191506020810190506125cd565b80880195505050505b505092915050565b61260681612e5e565b82525050565b61261581612e82565b82525050565b600061262682612da3565b6126308185612dbf565b9350612640818560208601612ec7565b61264981612f04565b840191505092915050565b6000612661602483612dbf565b91507f4d696e7465722062616c616e6365206368616e6765642c20646964206e6f742060008301527f6d696e74000000000000000000000000000000000000000000000000000000006020830152604082019050919050565b60006126c7601c83612dd0565b91507f19457468657265756d205369676e6564204d6573736167653a0a3332000000006000830152601c82019050919050565b6000612707601c83612dbf565b91507f546f6b656e20646f6573206e6f742062656c6f6e6720746f20796f75000000006000830152602082019050919050565b6000612747602783612dbf565b91507f42616c616e636520646964206e6f74206465637265617365206166746572207460008301527f72616e73666572000000000000000000000000000000000000000000000000006020830152604082019050919050565b60006127ad602283612dbf565b91507f4e657720746f6b656e20646f6573206e6f742062656c6f6e6720746f206d656560008301527f65650000000000000000000000000000000000000000000000000000000000006020830152604082019050919050565b6000612813602783612dbf565b91507f42616c616e636520646964206e6f7420696e637265617365206166746572207460008301527f72616e73666572000000000000000000000000000000000000000000000000006020830152604082019050919050565b6000612879601e83612dbf565b91507f45524337323120616e64206d696e74657220617265207468652073616d6500006000830152602082019050919050565b60006128b9602383612dbf565b91507f5369676e6174757265206e6f7420696e74657270726574656420636f7272656360008301527f746c7900000000000000000000000000000000000000000000000000000000006020830152604082019050919050565b600061291f601583612dbf565b91507f4e6f20736f6c7574696f6e207375626d697474656400000000000000000000006000830152602082019050919050565b600061295f602683612dbf565b91507f7369676e617475726520646f6573206e6f74206d61746368207478206f72696760008301527f696e61746f7200000000000000000000000000000000000000000000000000006020830152604082019050919050565b60006129c5601983612dbf565b91507f446964206e6f742072656365697665206f6e6520746f6b656e000000000000006000830152602082019050919050565b612a0181612e35565b82525050565b612a1081612e3f565b82525050565b6000612a21826126ba565b9150612a2d828461251e565b60208201915081905092915050565b6000602082019050612a5160008301846124f1565b92915050565b6000602082019050612a6c60008301846124e2565b92915050565b6000606082019050612a8760008301866124e2565b612a9460208301856124e2565b612aa160408301846129f8565b949350505050565b6000604082019050612abe60008301856124e2565b612acb602083018461260c565b9392505050565b6000602082019050612ae76000830184612500565b92915050565b6000604082019050612b02600083018561250f565b8181036020830152612b148184612535565b90509392505050565b6000604082019050612b32600083018561250f565b8181036020830152612b44818461256e565b90509392505050565b6000608082019050612b62600083018761250f565b612b6f6020830186612a07565b612b7c604083018561250f565b612b89606083018461250f565b95945050505050565b6000602082019050612ba760008301846125fd565b92915050565b60006020820190508181036000830152612bc7818461261b565b905092915050565b60006020820190508181036000830152612be881612654565b9050919050565b60006020820190508181036000830152612c08816126fa565b9050919050565b60006020820190508181036000830152612c288161273a565b9050919050565b60006020820190508181036000830152612c48816127a0565b9050919050565b60006020820190508181036000830152612c6881612806565b9050919050565b60006020820190508181036000830152612c888161286c565b9050919050565b60006020820190508181036000830152612ca8816128ac565b9050919050565b60006020820190508181036000830152612cc881612912565b9050919050565b60006020820190508181036000830152612ce881612952565b9050919050565b60006020820190508181036000830152612d08816129b8565b9050919050565b6000602082019050612d2460008301846129f8565b92915050565b6000604051905081810181811067ffffffffffffffff82111715612d4d57600080fd5b8060405250919050565b600067ffffffffffffffff821115612d6e57600080fd5b601f19601f8301169050602081019050919050565b60008190508160005260206000209050919050565b600081519050919050565b600081519050919050565b600082825260208201905092915050565b600082825260208201905092915050565b600081905092915050565b6000612de682612e15565b9050919050565b60008115159050919050565b6000819050919050565b6000612e0e82612ddb565b9050919050565b600073ffffffffffffffffffffffffffffffffffffffff82169050919050565b6000819050919050565b600060ff82169050919050565b6000612e5782612e94565b9050919050565b6000612e6982612e70565b9050919050565b6000612e7b82612e15565b9050919050565b6000612e8d82612e35565b9050919050565b6000612e9f82612ea6565b9050919050565b6000612eb182612e15565b9050919050565b82818337600083830152505050565b60005b83811015612ee5578082015181840152602081019050612eca565b83811115612ef4576000848401525b50505050565b6000819050919050565b6000601f19601f8301169050919050565b612f1e81612ddb565b8114612f2957600080fd5b50565b612f3581612ded565b8114612f4057600080fd5b50565b612f4c81612df9565b8114612f5757600080fd5b50565b612f6381612e03565b8114612f6e57600080fd5b50565b612f7a81612e35565b8114612f8557600080fd5b5056fea2646970667358221220faa5a55a8a607476d6379982332178f0e46b4135e2d50d90ca774d0f1e3b71ae64736f6c63430006020033",
  "source": "pragma solidity ^0.6.0;\npragma experimental ABIEncoderV2;\n\nimport \"./ERC20TD.sol\";\nimport \"./IExerciceSolution.sol\";\nimport \"@openzeppelin/contracts/token/ERC721/IERC721.sol\";\n\ncontract Evaluator {\n\n    mapping(address => bool) public teachers;\n    ERC20TD TDERC20;\n   \n    mapping(address => mapping(uint256 => bool)) public exerciceProgression;\n    mapping(address => IExerciceSolution) public studentExerciceSolution;\n    mapping(address => bool) public hasBeenPaired;\n\n    bytes32[20] private randomBytes32ToSign;\n    bytes[20] private associatedSignatures;\n    uint public nextValueStoreRank;\n    mapping(bytes32 => bool) public signedBytes32;\n\n    event constructedCorrectly(address erc20Address);\n    event UpdateWhitelist(address _account, bool _value);\n    event newRandomAnimalAttributes(string name, uint256 legs, uint256 sex, bool wings);\n\n    constructor(ERC20TD _TDERC20) \n    public \n    {\n        TDERC20 = _TDERC20;\n        emit constructedCorrectly(address(TDERC20));\n    }\n\n    fallback () external payable \n    {}\n\n    receive () external payable \n    {}\n\n    function ex1_testERC721()\n    public  \n    {\n        // Checking a solution was submitted\n        require(exerciceProgression[msg.sender][0], \"No solution submitted\");\n\n        // Retrieve ERC721 address from ExerciceSolution\n        address studentERC721Address = studentExerciceSolution[msg.sender].ERC721Address();\n        IERC721 studentERC721 = IERC721(studentERC721Address);\n\n        // Check they are two different contracts \n        require(studentERC721Address != address(studentExerciceSolution[msg.sender]), \"ERC721 and minter are the same\");\n\n        // Checking balance pre minting\n        uint256 evaluatorBalancePreMint = studentERC721.balanceOf(address(this));\n        uint256 minterBalancePreMint = studentERC721.balanceOf(address(studentExerciceSolution[msg.sender]));\n\n        // Claim a token through minter\n        uint256 newToken = studentExerciceSolution[msg.sender].mintATokenForMe();\n\n        // Checking balance post minting\n        uint256 evaluatorBalancePostMint = studentERC721.balanceOf(address(this));\n        uint256 minterBalancePostMint = studentERC721.balanceOf(address(studentExerciceSolution[msg.sender]));\n\n        // Check that token 1 belongs to the Evaluator\n        require(evaluatorBalancePostMint == evaluatorBalancePreMint + 1, \"Did not receive one token\");\n        require(studentERC721.ownerOf(newToken) == address(this), \"New token does not belong to meeee\");\n\n        // Check the token was minted, not lazily transferred\n        require(minterBalancePostMint == minterBalancePreMint, \"Minter balance changed, did not mint\");\n\n        // Check that token 1 can be transferred back to msg.sender, so it's a real ERC721\n        uint256 senderBalancePreTransfer = studentERC721.balanceOf(msg.sender);\n        studentERC721.safeTransferFrom(address(this), msg.sender, newToken);\n        require(studentERC721.balanceOf(address(this)) == evaluatorBalancePreMint, \"Balance did not decrease after transfer\");\n        require(studentERC721.ownerOf(newToken) == msg.sender, \"Token does not belong to you\");\n        require(studentERC721.balanceOf(msg.sender) == senderBalancePreTransfer + 1, \"Balance did not increase after transfer\");\n\n        // Crediting points\n        if (!exerciceProgression[msg.sender][1])\n        {\n            exerciceProgression[msg.sender][1] = true;\n            // ERC721 points\n            TDERC20.distributeTokens(msg.sender, 2);\n        }\n    }\n\n    function ex2_generateASignature(bytes memory _signature) \n    public \n    {\n        bytes32 stringToSignToGetPoint = 0x00000000596f75206e65656420746f207369676e207468697320737472696e67;\n        // If tx fails here, it means the transaction did not receive a valid signature\n        address signatureSender = extractAddress(stringToSignToGetPoint , _signature);\n        require(tx.origin == signatureSender, \"signature does not match tx originator\");\n\n        // Crediting points\n        if (!exerciceProgression[msg.sender][2])\n        {\n            exerciceProgression[msg.sender][2] = true;\n            // ERC721 points\n            TDERC20.distributeTokens(msg.sender, 2);\n        }\n    }\n\n    function ex3_extractAddressFromSignature() \n    public \n    {        \n        // If tx fails here, it means the transaction did not receive a valid signature\n        address signatureSender = extractAddress(randomBytes32ToSign[nextValueStoreRank] , associatedSignatures[nextValueStoreRank]);\n        address retrievedAddressByExerciceSolution = studentExerciceSolution[msg.sender].getAddressFromSignature(randomBytes32ToSign[nextValueStoreRank] , associatedSignatures[nextValueStoreRank]);\n        \n        require(signatureSender == retrievedAddressByExerciceSolution, \"Signature not interpreted correctly\");\n        \n        // Incrementing next value store rank\n        nextValueStoreRank += 1;\n        if (nextValueStoreRank >= 20)\n        {\n            nextValueStoreRank = 0;\n        }\n\n        // Crediting points\n        if (!exerciceProgression[msg.sender][3])\n        {\n            exerciceProgression[msg.sender][3] = true;\n            // ERC721 points\n            TDERC20.distributeTokens(msg.sender, 2);\n        }\n    }\n\n    function ex4_manageWhiteListWithSignature(bytes32 _aBytes32YouChose, bytes memory _theAssociatedSignature)\n    public\n    {\n        // Is your signature correctly formated\n        address signatureSender = extractAddress(randomBytes32ToSign[nextValueStoreRank] , associatedSignatures[nextValueStoreRank]);\n        // Broadcaster is signer \n        require(signatureSender == tx.origin);\n\n        // Is the signer whitelisted\n        require(studentExerciceSolution[msg.sender].whitelist(signatureSender));\n        require(studentExerciceSolution[msg.sender].signerIsWhitelisted(_aBytes32YouChose, _theAssociatedSignature));\n\n\n        // Is a random signer whitelisted whitelisted\n        address storedSignatureSender = extractAddress(randomBytes32ToSign[nextValueStoreRank] , associatedSignatures[nextValueStoreRank]);\n        require(studentExerciceSolution[msg.sender].whitelist(storedSignatureSender));\n        require(studentExerciceSolution[msg.sender].signerIsWhitelisted(randomBytes32ToSign[nextValueStoreRank] , associatedSignatures[nextValueStoreRank]));\n        // Incrementing next value store rank\n        nextValueStoreRank += 1;\n        if (nextValueStoreRank >= 20)\n        {\n            nextValueStoreRank = 0;\n        }\n        // Crediting points\n        if (!exerciceProgression[msg.sender][4])\n        {\n            exerciceProgression[msg.sender][4] = true;\n            // ERC721 points\n            TDERC20.distributeTokens(msg.sender, 2);\n        }\n    }\n\n    modifier onlyTeachers() \n    {\n\n        require(TDERC20.teachers(msg.sender));\n        _;\n    }\n\n    /* Internal functions and modifiers */ \n    function submitExercice(IExerciceSolution studentExercice)\n    public\n    {\n        // Checking this contract was not used by another group before\n        require(!hasBeenPaired[address(studentExercice)]);\n\n        // Assigning passed ERC20 as student ERC20\n        studentExerciceSolution[msg.sender] = studentExercice;\n        hasBeenPaired[address(studentExercice)] = true;\n\n        if (!exerciceProgression[msg.sender][0])\n        {\n            exerciceProgression[msg.sender][0] = true;\n            // setup points\n            TDERC20.distributeTokens(msg.sender, 2);\n        }\n    }\n\n    function _compareStrings(string memory a, string memory b) \n    internal \n    pure \n    returns (bool) \n    {\n        return (keccak256(abi.encodePacked((a))) == keccak256(abi.encodePacked((b))));\n    }\n\n    function bytes32ToString(bytes32 _bytes32) \n    public \n    pure returns (string memory) \n    {\n        uint8 i = 0;\n        while(i < 32 && _bytes32[i] != 0) {\n            i++;\n        }\n        bytes memory bytesArray = new bytes(i);\n        for (i = 0; i < 32 && _bytes32[i] != 0; i++) {\n            bytesArray[i] = _bytes32[i];\n        }\n        return string(bytesArray);\n    }\n\n    function extractAddress(bytes32 _hash, bytes memory _signature) \n    internal \n    pure \n    returns (address) {\n        bytes32 r;\n        bytes32 s;\n        uint8 v;\n        // Check the signature length\n        if (_signature.length != 65) {\n            return address(0);\n        }\n        // Divide the signature in r, s and v variables\n        // ecrecover takes the signature parameters, and the only way to get them\n        // currently is to use assembly.\n        // solium-disable-next-line security/no-inline-assembly\n        assembly {\n            r := mload(add(_signature, 32))\n            s := mload(add(_signature, 64))\n            v := byte(0, mload(add(_signature, 96)))\n        }\n        // Version of signature should be 27 or 28, but 0 and 1 are also possible versions\n        if (v < 27) {\n            v += 27;\n        }\n        // If the version is correct return the signer address\n        if (v != 27 && v != 28) {\n            return address(0);\n        } else {\n            // solium-disable-next-line arg-overflow\n            return ecrecover(keccak256(\n                abi.encodePacked(\"\\x19Ethereum Signed Message:\\n32\", _hash)\n                ), v, r, s);\n        }\n    }\n}\n",
  "sourcePath": "/Users/henrilieutaud/Documents/Mes documents/ESILV/Workshop/signatures-101/contracts/Evaluator.sol",
  "compiler": {
    "name": "solc",
    "version": "0.6.2+commit.bacdbe57.Emscripten.clang"
  },
  "schemaVersion": "3.3.4",
  "updatedAt": "2021-12-10T19:03:04.567Z",
  "devdoc": {
    "methods": {}
  },
  "userdoc": {
    "methods": {}
  }
}