{
  "contractName": "MetaTxExercice",
  "abi": [
    {
      "inputs": [
        {
          "internalType": "address",
          "name": "_ERC721address",
          "type": "address"
        }
      ],
      "stateMutability": "nonpayable",
      "type": "constructor"
    },
    {
      "anonymous": false,
      "inputs": [
        {
          "indexed": false,
          "internalType": "address",
          "name": "_account",
          "type": "address"
        },
        {
          "indexed": false,
          "internalType": "bool",
          "name": "_value",
          "type": "bool"
        }
      ],
      "name": "UpdateWhitelist",
      "type": "event"
    },
    {
      "anonymous": false,
      "inputs": [
        {
          "indexed": false,
          "internalType": "uint256",
          "name": "_tokenNumber",
          "type": "uint256"
        },
        {
          "indexed": false,
          "internalType": "address",
          "name": "_tokenClaimer",
          "type": "address"
        }
      ],
      "name": "aTokenWasClaimed",
      "type": "event"
    },
    {
      "inputs": [],
      "name": "ERC721address",
      "outputs": [
        {
          "internalType": "address",
          "name": "",
          "type": "address"
        }
      ],
      "stateMutability": "view",
      "type": "function"
    },
    {
      "inputs": [],
      "name": "hashToSignToGetWhiteListed",
      "outputs": [
        {
          "internalType": "bytes32",
          "name": "",
          "type": "bytes32"
        }
      ],
      "stateMutability": "view",
      "type": "function"
    },
    {
      "inputs": [
        {
          "internalType": "address",
          "name": "",
          "type": "address"
        }
      ],
      "name": "whitelist",
      "outputs": [
        {
          "internalType": "bool",
          "name": "",
          "type": "bool"
        }
      ],
      "stateMutability": "view",
      "type": "function"
    },
    {
      "inputs": [
        {
          "internalType": "bytes",
          "name": "_signature",
          "type": "bytes"
        }
      ],
      "name": "claimAToken",
      "outputs": [
        {
          "internalType": "bool",
          "name": "",
          "type": "bool"
        }
      ],
      "stateMutability": "nonpayable",
      "type": "function"
    },
    {
      "inputs": [
        {
          "internalType": "bytes",
          "name": "_signature",
          "type": "bytes"
        }
      ],
      "name": "getWhiteListed",
      "outputs": [],
      "stateMutability": "nonpayable",
      "type": "function"
    },
    {
      "inputs": [
        {
          "internalType": "address",
          "name": "_account",
          "type": "address"
        },
        {
          "internalType": "bool",
          "name": "_value",
          "type": "bool"
        }
      ],
      "name": "updateWhitelist",
      "outputs": [
        {
          "internalType": "bool",
          "name": "",
          "type": "bool"
        }
      ],
      "stateMutability": "nonpayable",
      "type": "function"
    }
  ],
  "bytecode": "0x60806040527f596f75206e65656420746f207369676e207468697320737472696e670000000060025534801561003457600080fd5b50604051610bec380380610bec8339818101604052602081101561005757600080fd5b810190808051906020019092919050505060016000803373ffffffffffffffffffffffffffffffffffffffff1673ffffffffffffffffffffffffffffffffffffffff16815260200190815260200160002060006101000a81548160ff02191690831515021790555080600160006101000a81548173ffffffffffffffffffffffffffffffffffffffff021916908373ffffffffffffffffffffffffffffffffffffffff16021790555050610adc806101106000396000f3fe608060405234801561001057600080fd5b50600436106100625760003560e01c80630d392cd9146100675780633222d49a146100cf5780633fb9707c1461018a5780633fdf99c4146101a85780639b19251a1461027b578063b7171a2e146102d7575b600080fd5b6100b56004803603604081101561007d57600080fd5b81019080803573ffffffffffffffffffffffffffffffffffffffff169060200190929190803515159060200190929190505050610321565b604051808215151515815260200191505060405180910390f35b610188600480360360208110156100e557600080fd5b810190808035906020019064010000000081111561010257600080fd5b82018360208201111561011457600080fd5b8035906020019184600183028401116401000000008311171561013657600080fd5b91908080601f016020809104026020016040519081016040528093929190818152602001838380828437600081840152601f19601f8201169050808301925050505050505091929192905050506104b0565b005b6101926105b6565b6040518082815260200191505060405180910390f35b610261600480360360208110156101be57600080fd5b81019080803590602001906401000000008111156101db57600080fd5b8201836020820111156101ed57600080fd5b8035906020019184600183028401116401000000008311171561020f57600080fd5b91908080601f016020809104026020016040519081016040528093929190818152602001838380828437600081840152601f19601f8201169050808301925050505050505091929192905050506105bc565b604051808215151515815260200191505060405180910390f35b6102bd6004803603602081101561029157600080fd5b81019080803573ffffffffffffffffffffffffffffffffffffffff16906020019092919050505061087c565b604051808215151515815260200191505060405180910390f35b6102df61089c565b604051808273ffffffffffffffffffffffffffffffffffffffff1673ffffffffffffffffffffffffffffffffffffffff16815260200191505060405180910390f35b60008060003373ffffffffffffffffffffffffffffffffffffffff1673ffffffffffffffffffffffffffffffffffffffff16815260200190815260200160002060009054906101000a900460ff166103e1576040517f08c379a00000000000000000000000000000000000000000000000000000000081526004018080602001828103825260178152602001807f4163636f756e74204e6f742057686974656c697374656400000000000000000081525060200191505060405180910390fd5b816000808573ffffffffffffffffffffffffffffffffffffffff1673ffffffffffffffffffffffffffffffffffffffff16815260200190815260200160002060006101000a81548160ff0219169083151502179055507f08b2c0469ecd1d7a21d7e1492f0fc75fc7e8e0fa4fdf4275949c90875f5ebdf58383604051808373ffffffffffffffffffffffffffffffffffffffff1673ffffffffffffffffffffffffffffffffffffffff168152602001821515151581526020019250505060405180910390a16001905092915050565b6104bc600254826108c2565b73ffffffffffffffffffffffffffffffffffffffff163373ffffffffffffffffffffffffffffffffffffffff161461055c576040517f08c379a000000000000000000000000000000000000000000000000000000000815260040180806020018281038252601f8152602001807f7369676e617475726520646f6573206e6f74206d617463682073656e6465720081525060200191505060405180910390fd5b60016000803373ffffffffffffffffffffffffffffffffffffffff1673ffffffffffffffffffffffffffffffffffffffff16815260200190815260200160002060006101000a81548160ff02191690831515021790555050565b60025481565b600080600160009054906101000a900473ffffffffffffffffffffffffffffffffffffffff16905060008173ffffffffffffffffffffffffffffffffffffffff166375794a3c6040518163ffffffff1660e01b815260040160206040518083038186803b15801561062c57600080fd5b505afa158015610640573d6000803e3d6000fd5b505050506040513d602081101561065657600080fd5b810190808051906020019092919050505090506000600160009054906101000a900473ffffffffffffffffffffffffffffffffffffffff1682604051602001808373ffffffffffffffffffffffffffffffffffffffff1673ffffffffffffffffffffffffffffffffffffffff168152602001828152602001925050506040516020818303038152906040528051906020012090506106f481866109f2565b610749576040517f08c379a0000000000000000000000000000000000000000000000000000000008152600401808060200182810382526032815260200180610a756032913960400191505060405180910390fd5b600061075582876108c2565b90503373ffffffffffffffffffffffffffffffffffffffff168173ffffffffffffffffffffffffffffffffffffffff1614156107dc576040517f08c379a0000000000000000000000000000000000000000000000000000000008152600401808060200182810382526023815260200180610a526023913960400191505060405180910390fd5b8373ffffffffffffffffffffffffffffffffffffffff16636a627842336040518263ffffffff1660e01b8152600401808273ffffffffffffffffffffffffffffffffffffffff1673ffffffffffffffffffffffffffffffffffffffff168152602001915050600060405180830381600087803b15801561085b57600080fd5b505af115801561086f573d6000803e3d6000fd5b5050505050505050919050565b60006020528060005260406000206000915054906101000a900460ff1681565b600160009054906101000a900473ffffffffffffffffffffffffffffffffffffffff1681565b60008060008060418551146108dd57600093505050506109ec565b6020850151925060408501519150606085015160001a9050601b8160ff16101561090857601b810190505b601b8160ff16141580156109205750601c8160ff1614155b1561093157600093505050506109ec565b60018660405160200180807f19457468657265756d205369676e6564204d6573736167653a0a333200000000815250601c018281526020019150506040516020818303038152906040528051906020012082858560405160008152602001604052604051808581526020018460ff1660ff1681526020018381526020018281526020019450505050506020604051602081039080840390855afa1580156109dc573d6000803e3d6000fd5b5050506020604051035193505050505b92915050565b6000806000610a0185856108c2565b73ffffffffffffffffffffffffffffffffffffffff1673ffffffffffffffffffffffffffffffffffffffff16815260200190815260200160002060009054906101000a900460ff1690509291505056fe4d696e74657220616e642073656e646572206d75737420626520646966666572656e74436c61696d3a207369676e6572206e6f742077686974656c6973746564206f72207369676e617475726520696e76616c6964a26469706673582212207a23a146f724060fe364aa0a20981b91b5ceef765862151c20d1bc03485cb50f64736f6c63430006020033",
  "source": "pragma solidity ^0.6.0;\n\nimport \"./ERC721TD.sol\";\n\ncontract MetaTxExercice {\n    event UpdateWhitelist(address _account, bool _value);\n    event aTokenWasClaimed(uint _tokenNumber, address _tokenClaimer);\n\n    mapping(address => bool) public whitelist;\n\n    address public ERC721address;\n    bytes32 public hashToSignToGetWhiteListed = \"You need to sign this string\";\n\n    constructor(address _ERC721address) public {\n        whitelist[msg.sender] = true;\n        ERC721address = _ERC721address;\n    }\n\n    function claimAToken(bytes memory _signature) \n    public \n    returns (bool)\n    {\n\n        ERC721TD myERC721 = ERC721TD(ERC721address);\n\n        // Finding next token id\n        uint nextTokenToMint = myERC721.nextTokenId();\n\n        // Creating a hash of the concatenation of the ERC721 address and the next token to mint\n        bytes32 _hash = keccak256(abi.encode(ERC721address, nextTokenToMint));\n\n        // Checking that the signer of the mint order is authorized\n        require(signerIsWhitelisted(_hash, _signature), \"Claim: signer not whitelisted or signature invalid\");\n            \n        // Checking that the authorized minter is not the claimer\n        address tokenMintedBy = extractAddress(_hash , _signature);\n        require(tokenMintedBy != msg.sender, \"Minter and sender must be different\");\n\n        myERC721.mint(msg.sender);\n    }\n\n    function getWhiteListed(bytes memory _signature) public {\n        require(msg.sender == extractAddress(hashToSignToGetWhiteListed , _signature), \"signature does not match sender\");\n        whitelist[msg.sender] = true;\n    }\n\n    function extractAddress(bytes32 _hash, bytes memory _signature) internal view returns (address) {\n        bytes32 r;\n        bytes32 s;\n        uint8 v;\n        // Check the signature length\n        if (_signature.length != 65) {\n            return address(0);\n        }\n        // Divide the signature in r, s and v variables\n        // ecrecover takes the signature parameters, and the only way to get them\n        // currently is to use assembly.\n        // solium-disable-next-line security/no-inline-assembly\n        assembly {\n            r := mload(add(_signature, 32))\n            s := mload(add(_signature, 64))\n            v := byte(0, mload(add(_signature, 96)))\n        }\n        // Version of signature should be 27 or 28, but 0 and 1 are also possible versions\n        if (v < 27) {\n            v += 27;\n        }\n        // If the version is correct return the signer address\n        if (v != 27 && v != 28) {\n            return address(0);\n        } else {\n            // solium-disable-next-line arg-overflow\n            return ecrecover(keccak256(\n                abi.encodePacked(\"\\x19Ethereum Signed Message:\\n32\", _hash)\n                ), v, r, s);\n        }\n    }\n\n    // 20/02/27: Borrowed from https://github.com/austintgriffith/bouncer-proxy/blob/master/BouncerProxy/BouncerProxy.sol\n    //borrowed from OpenZeppelin's ESDA stuff:\n    //https://github.com/OpenZeppelin/openzeppelin-solidity/blob/master/contracts/cryptography/ECDSA.sol\n    function signerIsWhitelisted(bytes32 _hash, bytes memory _signature) internal view returns (bool) {\n\t\treturn whitelist[extractAddress(_hash, _signature)];\n\t}\n\n\t//  20/02/27: Borrowed from https://github.com/rocksideio/contracts/blob/master/contracts/Identity.sol\n\tfunction updateWhitelist(address _account, bool _value) onlyWhitelisted public returns (bool) {\n        whitelist[_account] = _value;\n        emit UpdateWhitelist(_account, _value);\n        return true;\n    }\n\n    modifier onlyWhitelisted() {\n        require(whitelist[msg.sender], \"Account Not Whitelisted\");\n        _;\n    }\n}\n",
  "sourcePath": "/Users/henrilieutaud/Documents/Mes documents/ESILV/Workshop/signatures-101/contracts/MetaTxExercice.sol",
  "compiler": {
    "name": "solc",
    "version": "0.6.2+commit.bacdbe57.Emscripten.clang"
  },
  "schemaVersion": "3.3.4",
  "updatedAt": "2021-12-10T16:32:57.142Z",
  "devdoc": {
    "methods": {}
  },
  "userdoc": {
    "methods": {}
  }
}