{
  "contractName": "Minter",
  "abi": [
    {
      "inputs": [
        {
          "internalType": "contract myERC721",
          "name": "_myERC721Instance",
          "type": "address"
        }
      ],
      "stateMutability": "nonpayable",
      "type": "constructor"
    },
    {
      "inputs": [],
      "name": "myERC721Instance",
      "outputs": [
        {
          "internalType": "contract myERC721",
          "name": "",
          "type": "address"
        }
      ],
      "stateMutability": "view",
      "type": "function",
      "constant": true
    },
    {
      "inputs": [],
      "name": "ERC721Address",
      "outputs": [
        {
          "internalType": "address",
          "name": "",
          "type": "address"
        }
      ],
      "stateMutability": "nonpayable",
      "type": "function"
    },
    {
      "inputs": [],
      "name": "mintATokenForMe",
      "outputs": [
        {
          "internalType": "uint256",
          "name": "",
          "type": "uint256"
        }
      ],
      "stateMutability": "nonpayable",
      "type": "function"
    },
    {
      "inputs": [
        {
          "internalType": "bytes",
          "name": "_signature",
          "type": "bytes"
        }
      ],
      "name": "mintATokenForMeWithASignature",
      "outputs": [
        {
          "internalType": "uint256",
          "name": "",
          "type": "uint256"
        }
      ],
      "stateMutability": "nonpayable",
      "type": "function"
    },
    {
      "inputs": [
        {
          "internalType": "bytes32",
          "name": "_hash",
          "type": "bytes32"
        },
        {
          "internalType": "bytes",
          "name": "_signature",
          "type": "bytes"
        }
      ],
      "name": "getAddressFromSignature",
      "outputs": [
        {
          "internalType": "address",
          "name": "",
          "type": "address"
        }
      ],
      "stateMutability": "nonpayable",
      "type": "function"
    },
    {
      "inputs": [
        {
          "internalType": "bytes32",
          "name": "_hash",
          "type": "bytes32"
        },
        {
          "internalType": "bytes",
          "name": "_signature",
          "type": "bytes"
        }
      ],
      "name": "signerIsWhitelisted",
      "outputs": [
        {
          "internalType": "bool",
          "name": "",
          "type": "bool"
        }
      ],
      "stateMutability": "nonpayable",
      "type": "function"
    },
    {
      "inputs": [
        {
          "internalType": "address",
          "name": "_signer",
          "type": "address"
        }
      ],
      "name": "whitelist",
      "outputs": [
        {
          "internalType": "bool",
          "name": "",
          "type": "bool"
        }
      ],
      "stateMutability": "nonpayable",
      "type": "function"
    }
  ],
  "bytecode": "0x608060405234801561001057600080fd5b506040516105a93803806105a98339818101604052602081101561003357600080fd5b8101908080519060200190929190505050806000806101000a81548173ffffffffffffffffffffffffffffffffffffffff021916908373ffffffffffffffffffffffffffffffffffffffff16021790555050610515806100946000396000f3fe608060405234801561001057600080fd5b506004361061007d5760003560e01c80639a9a291f1161005b5780639a9a291f1461022a5780639b19251a146102b7578063a3c1fc3914610313578063ac4fec211461035d5761007d565b8063574490cd1461008257806379d33606146100cc5780637d851a131461018f575b600080fd5b61008a61037b565b604051808273ffffffffffffffffffffffffffffffffffffffff1673ffffffffffffffffffffffffffffffffffffffff16815260200191505060405180910390f35b61014d600480360360408110156100e257600080fd5b81019080803590602001909291908035906020019064010000000081111561010957600080fd5b82018360208201111561011b57600080fd5b8035906020019184600183028401116401000000008311171561013d57600080fd5b90919293919293905050506103a4565b604051808273ffffffffffffffffffffffffffffffffffffffff1673ffffffffffffffffffffffffffffffffffffffff16815260200191505060405180910390f35b610210600480360360408110156101a557600080fd5b8101908080359060200190929190803590602001906401000000008111156101cc57600080fd5b8201836020820111156101de57600080fd5b8035906020019184600183028401116401000000008311171561020057600080fd5b90919293919293905050506103b0565b604051808215151515815260200191505060405180910390f35b6102a16004803603602081101561024057600080fd5b810190808035906020019064010000000081111561025d57600080fd5b82018360208201111561026f57600080fd5b8035906020019184600183028401116401000000008311171561029157600080fd5b90919293919293905050506103bd565b6040518082815260200191505060405180910390f35b6102f9600480360360208110156102cd57600080fd5b81019080803573ffffffffffffffffffffffffffffffffffffffff1690602001909291905050506103c8565b604051808215151515815260200191505060405180910390f35b61031b6103d3565b604051808273ffffffffffffffffffffffffffffffffffffffff1673ffffffffffffffffffffffffffffffffffffffff16815260200191505060405180910390f35b6103656103f8565b6040518082815260200191505060405180910390f35b60008060009054906101000a900473ffffffffffffffffffffffffffffffffffffffff16905090565b60008090509392505050565b6000600190509392505050565b600080905092915050565b600060019050919050565b6000809054906101000a900473ffffffffffffffffffffffffffffffffffffffff1681565b6000806000809054906101000a900473ffffffffffffffffffffffffffffffffffffffff1673ffffffffffffffffffffffffffffffffffffffff166332a93a3a336040518263ffffffff1660e01b8152600401808273ffffffffffffffffffffffffffffffffffffffff1673ffffffffffffffffffffffffffffffffffffffff168152602001915050602060405180830381600087803b15801561049b57600080fd5b505af11580156104af573d6000803e3d6000fd5b505050506040513d60208110156104c557600080fd5b81019080805190602001909291905050509050809150509056fea2646970667358221220eac36720691b8cfad29b23461dcea0571f8c791659f56fb01bcc211bf13506c064736f6c63430006020033",
  "source": "pragma solidity ^0.6.0;\nimport \"./IExerciceSolution.sol\";\nimport \"./myERC721.sol\";\n\ncontract Minter is IExerciceSolution {\n    myERC721 public myERC721Instance;\n\n    constructor(myERC721 _myERC721Instance) public \n    {\n        myERC721Instance = _myERC721Instance;\n    }\n\n\n\tfunction ERC721Address() external override returns (address)\n    {return address(myERC721Instance);}\n\n\tfunction mintATokenForMe() external override returns (uint256)\n    {   \n        uint256 newTokenId = myERC721Instance.publicMint(msg.sender);\n        return newTokenId;\n    }\n\n\tfunction mintATokenForMeWithASignature(bytes calldata _signature) external override returns (uint256)\n    {return 0;}\n\n\tfunction getAddressFromSignature(bytes32 _hash, bytes calldata _signature) external override returns (address)\n    {return address(0);}\n\tfunction signerIsWhitelisted(bytes32 _hash, bytes calldata _signature) external override returns (bool)\n    {return true;}\n\tfunction whitelist(address _signer) external override returns (bool)\n    {return true;}\n\n}",
  "sourcePath": "/Users/henrilieutaud/Documents/Workshop/Solidity/signatures-101/contracts/Minter.sol",
  "compiler": {
    "name": "solc",
    "version": "0.6.2+commit.bacdbe57.Emscripten.clang"
  },
  "schemaVersion": "3.4.7",
  "updatedAt": "2023-02-24T15:16:21.268Z",
  "networkType": "ethereum",
  "devdoc": {
    "methods": {}
  },
  "userdoc": {
    "methods": {}
  }
}